{
  "_format": "hh-sol-artifact-1",
  "contractName": "ChainAIV2",
  "sourceName": "contracts/ChainAIV2.sol",
  "abi": [
    {
      "inputs": [
        {
          "internalType": "uint256",
          "name": "inferencePrice_",
          "type": "uint256"
        }
      ],
      "stateMutability": "nonpayable",
      "type": "constructor"
    },
    {
      "anonymous": false,
      "inputs": [
        {
          "indexed": false,
          "internalType": "uint256",
          "name": "jobId",
          "type": "uint256"
        },
        {
          "indexed": false,
          "internalType": "enum DataTypes.ModelCategory",
          "name": "modelCategory",
          "type": "uint8"
        },
        {
          "indexed": false,
          "internalType": "bytes",
          "name": "seed",
          "type": "bytes"
        },
        {
          "indexed": false,
          "internalType": "string",
          "name": "modelConfigLocation",
          "type": "string"
        },
        {
          "indexed": false,
          "internalType": "enum DataTypes.InputDataLocationType",
          "name": "inputDataLocationType",
          "type": "uint8"
        },
        {
          "indexed": false,
          "internalType": "string",
          "name": "input",
          "type": "string"
        },
        {
          "indexed": false,
          "internalType": "enum DataTypes.OutputDataLocationType",
          "name": "outputDataLocationType",
          "type": "uint8"
        },
        {
          "indexed": false,
          "internalType": "enum DataTypes.OutputDataFormat",
          "name": "outputDataFormat",
          "type": "uint8"
        },
        {
          "indexed": false,
          "internalType": "uint256",
          "name": "createdTimestamp",
          "type": "uint256"
        }
      ],
      "name": "JobCreated",
      "type": "event"
    },
    {
      "anonymous": false,
      "inputs": [
        {
          "indexed": false,
          "internalType": "uint256",
          "name": "jobId",
          "type": "uint256"
        }
      ],
      "name": "JobFailed",
      "type": "event"
    },
    {
      "anonymous": false,
      "inputs": [
        {
          "indexed": false,
          "internalType": "uint256",
          "name": "jobId",
          "type": "uint256"
        }
      ],
      "name": "JobSucceeded",
      "type": "event"
    },
    {
      "anonymous": false,
      "inputs": [
        {
          "indexed": false,
          "internalType": "address",
          "name": "model",
          "type": "address"
        }
      ],
      "name": "ModelAdded",
      "type": "event"
    },
    {
      "inputs": [
        {
          "internalType": "address",
          "name": "model",
          "type": "address"
        }
      ],
      "name": "addModel",
      "outputs": [],
      "stateMutability": "nonpayable",
      "type": "function"
    },
    {
      "inputs": [
        {
          "internalType": "address",
          "name": "sequencer",
          "type": "address"
        }
      ],
      "name": "addSequencer",
      "outputs": [],
      "stateMutability": "nonpayable",
      "type": "function"
    },
    {
      "inputs": [],
      "name": "inferencePrice",
      "outputs": [
        {
          "internalType": "uint256",
          "name": "",
          "type": "uint256"
        }
      ],
      "stateMutability": "view",
      "type": "function"
    },
    {
      "inputs": [
        {
          "internalType": "uint256",
          "name": "",
          "type": "uint256"
        }
      ],
      "name": "jobs",
      "outputs": [
        {
          "components": [
            {
              "internalType": "enum ChainAIV2.JobStatus",
              "name": "status",
              "type": "uint8"
            },
            {
              "internalType": "uint256",
              "name": "id",
              "type": "uint256"
            },
            {
              "internalType": "uint256",
              "name": "createdTimestamp",
              "type": "uint256"
            },
            {
              "internalType": "uint256",
              "name": "callbackId",
              "type": "uint256"
            },
            {
              "internalType": "address",
              "name": "callbackAddress",
              "type": "address"
            },
            {
              "internalType": "bytes4",
              "name": "callbackFunction",
              "type": "bytes4"
            }
          ],
          "internalType": "struct ChainAIV2.JobParams",
          "name": "jobParams",
          "type": "tuple"
        },
        {
          "internalType": "enum DataTypes.InputDataLocationType",
          "name": "inputDataLocationType",
          "type": "uint8"
        },
        {
          "internalType": "enum DataTypes.OutputDataLocationType",
          "name": "outputDataLocationType",
          "type": "uint8"
        },
        {
          "internalType": "enum DataTypes.OutputDataFormat",
          "name": "outputDataFormat",
          "type": "uint8"
        },
        {
          "internalType": "uint256",
          "name": "modelVersion",
          "type": "uint256"
        },
        {
          "internalType": "address",
          "name": "model",
          "type": "address"
        },
        {
          "internalType": "bytes",
          "name": "seed",
          "type": "bytes"
        },
        {
          "internalType": "string",
          "name": "input",
          "type": "string"
        },
        {
          "internalType": "bytes",
          "name": "output",
          "type": "bytes"
        }
      ],
      "stateMutability": "view",
      "type": "function"
    },
    {
      "inputs": [],
      "name": "latestJobId",
      "outputs": [
        {
          "internalType": "uint256",
          "name": "",
          "type": "uint256"
        }
      ],
      "stateMutability": "view",
      "type": "function"
    },
    {
      "inputs": [
        {
          "internalType": "address",
          "name": "",
          "type": "address"
        }
      ],
      "name": "models",
      "outputs": [
        {
          "internalType": "bool",
          "name": "",
          "type": "bool"
        }
      ],
      "stateMutability": "view",
      "type": "function"
    },
    {
      "inputs": [
        {
          "internalType": "address",
          "name": "model",
          "type": "address"
        }
      ],
      "name": "removeModel",
      "outputs": [],
      "stateMutability": "nonpayable",
      "type": "function"
    },
    {
      "inputs": [
        {
          "internalType": "address",
          "name": "sequencer",
          "type": "address"
        }
      ],
      "name": "removeSequencer",
      "outputs": [],
      "stateMutability": "nonpayable",
      "type": "function"
    },
    {
      "inputs": [
        {
          "internalType": "address",
          "name": "",
          "type": "address"
        }
      ],
      "name": "sequencers",
      "outputs": [
        {
          "internalType": "bool",
          "name": "",
          "type": "bool"
        }
      ],
      "stateMutability": "view",
      "type": "function"
    },
    {
      "inputs": [
        {
          "internalType": "bytes",
          "name": "seed",
          "type": "bytes"
        },
        {
          "internalType": "uint256",
          "name": "callbackId",
          "type": "uint256"
        },
        {
          "internalType": "address",
          "name": "callbackAddress",
          "type": "address"
        },
        {
          "internalType": "bytes4",
          "name": "callbackFunction",
          "type": "bytes4"
        },
        {
          "internalType": "enum DataTypes.InputDataLocationType",
          "name": "inputDataLocationType",
          "type": "uint8"
        },
        {
          "internalType": "string",
          "name": "input",
          "type": "string"
        },
        {
          "internalType": "enum DataTypes.OutputDataLocationType",
          "name": "outputDataLocationType",
          "type": "uint8"
        },
        {
          "internalType": "enum DataTypes.OutputDataFormat",
          "name": "outputDataFormat",
          "type": "uint8"
        }
      ],
      "name": "startJob",
      "outputs": [],
      "stateMutability": "payable",
      "type": "function"
    },
    {
      "inputs": [
        {
          "internalType": "uint256",
          "name": "newPrice",
          "type": "uint256"
        }
      ],
      "name": "updateInferencePrice",
      "outputs": [],
      "stateMutability": "nonpayable",
      "type": "function"
    },
    {
      "inputs": [
        {
          "internalType": "uint256",
          "name": "jobId",
          "type": "uint256"
        },
        {
          "internalType": "enum ChainAIV2.JobStatus",
          "name": "jobStatus",
          "type": "uint8"
        },
        {
          "internalType": "bytes",
          "name": "callbackData",
          "type": "bytes"
        }
      ],
      "name": "updateJobStatus",
      "outputs": [],
      "stateMutability": "nonpayable",
      "type": "function"
    },
    {
      "inputs": [],
      "name": "withdraw",
      "outputs": [],
      "stateMutability": "nonpayable",
      "type": "function"
    }
  ],
  "bytecode": "0x608060405234801561001057600080fd5b506040516116d73803806116d783398101604081905261002f91610049565b600055600280546001600160a01b03191633179055610061565b60006020828403121561005a578081fd5b5051919050565b611667806100706000396000f3fe6080604052600436106100c25760003560e01c8063380b806e1161007f57806354917f831161005957806354917f831461020e5780636989ca7c1461023e5780638a3362311461025e5780639334aefd1461027e57600080fd5b8063380b806e146101ba5780633ccfd60b146101da5780634f36a184146101ef57600080fd5b8063015232d8146100c75780630dd07f79146100e95780631468cabd14610109578063180aedf31461011c5780631c7a07ee1461015a5780633371fbf51461019a575b600080fd5b3480156100d357600080fd5b506100e76100e2366004611270565b610294565b005b3480156100f557600080fd5b506100e7610104366004611240565b61051a565b6100e76101173660046110df565b610549565b34801561012857600080fd5b5061013c610137366004611240565b610a88565b60405161015199989796959493929190611358565b60405180910390f35b34801561016657600080fd5b5061018a6101753660046110be565b60046020526000908152604090205460ff1681565b6040519015158152602001610151565b3480156101a657600080fd5b506100e76101b53660046110be565b610d1f565b3480156101c657600080fd5b506100e76101d53660046110be565b610d6a565b3480156101e657600080fd5b506100e7610dee565b3480156101fb57600080fd5b506000545b604051908152602001610151565b34801561021a57600080fd5b5061018a6102293660046110be565b60036020526000908152604090205460ff1681565b34801561024a57600080fd5b506100e76102593660046110be565b610f05565b34801561026a57600080fd5b506100e76102793660046110be565b610f50565b34801561028a57600080fd5b5061020060015481565b3360009081526004602052604090205460ff166102f85760405162461bcd60e51b815260206004820152601860248201527f4e6f74206120747275737465642047505520776f726b6572000000000000000060448201526064015b60405180910390fd5b600083815260056020908152604090912082519091829161032191600a84019190860190610f9e565b5081548490839060ff1916600183600281111561034e57634e487b7160e01b600052602160045260246000fd5b0217905550600184600281111561037557634e487b7160e01b600052602160045260246000fd5b14156103b3576040518581527fb75cf56c3b87307029f0059a671fedc39db6212ba4ef07f39d4f053185dc90069060200160405180910390a1610513565b60028460028111156103d557634e487b7160e01b600052602160045260246000fd5b14156105135760048201546003830154604051600092600160a01b900460e01b91610404918790602401611441565b60408051601f198184030181529181526020820180516001600160e01b03166001600160e01b031990941693909317909252600485015491519092506000916001600160a01b031690610458908490611310565b6000604051808303816000865af19150503d8060008114610495576040519150601f19603f3d011682016040523d82523d6000602084013e61049a565b606091505b50509050806104dd5760405162461bcd60e51b815260206004820152600f60248201526e10d85b1b189858dac819985a5b1959608a1b60448201526064016102ef565b6040518781527fc5ff1ec8ea45d0671a3ea8676bd4bcb43a0b3550d0e6b392e4e1c42bcd2208279060200160405180910390a150505b5050505050565b6002546001600160a01b031633146105445760405162461bcd60e51b81526004016102ef9061132c565b600055565b3360009081526003602052604090205460ff166105b45760405162461bcd60e51b815260206004820152602360248201527f4f6e6c79206d6f64656c20636f6e747261637420616c6c6f77656420746f2063604482015262185b1b60ea1b60648201526084016102ef565b600180549060006105c4836115c1565b90915550506040805160c08101909152429033906000908082815260200160015481526020018481526020018b81526020018a6001600160a01b03168152602001896001600160e01b0319168152509050600060405180610120016040528083815260200189600281111561064957634e487b7160e01b600052602160045260246000fd5b815260200187600281111561066e57634e487b7160e01b600052602160045260246000fd5b815260200186600181111561069357634e487b7160e01b600052602160045260246000fd5b8152602001846001600160a01b031663029b015f6040518163ffffffff1660e01b815260040160206040518083038186803b1580156106d157600080fd5b505afa1580156106e5573d6000803e3d6000fd5b505050506040513d601f19601f820116820180604052508101906107099190611258565b8152602001336001600160a01b031681526020018d81526020018881526020016040518060200160405280600081525081525090508060056000600154815260200190815260200160002060008201518160000160008201518160000160006101000a81548160ff0219169083600281111561079557634e487b7160e01b600052602160045260246000fd5b021790555060208281015160018084019190915560408401516002808501919091556060850151600385015560808501516004909401805460a09096015160e01c600160a01b026001600160c01b03199096166001600160a01b0390951694909417949094179092558401516005840180549193909260ff199092169190849081111561083257634e487b7160e01b600052602160045260246000fd5b0217905550604082015160058201805461ff00191661010083600281111561086a57634e487b7160e01b600052602160045260246000fd5b0217905550606082015160058201805462ff00001916620100008360018111156108a457634e487b7160e01b600052602160045260246000fd5b02179055506080820151600682015560a08201516007820180546001600160a01b0319166001600160a01b0390921691909117905560c082015180516108f4916008840191602090910190610f9e565b5060e08201518051610910916009840191602090910190610f9e565b50610100820151805161092d91600a840191602090910190610f9e565b509050507f1529f354cf8b170521e59ba0012587aaa9f0f8f237034a968395248656545c79816000015160200151846001600160a01b03166383e27aea6040518163ffffffff1660e01b815260040160206040518083038186803b15801561099457600080fd5b505afa1580156109a8573d6000803e3d6000fd5b505050506040513d601f19601f820116820180604052508101906109cc91906111ae565b8360c00151866001600160a01b0316637408836f6040518163ffffffff1660e01b815260040160006040518083038186803b158015610a0a57600080fd5b505afa158015610a1e573d6000803e3d6000fd5b505050506040513d6000823e601f3d908101601f19168201604052610a4691908101906111cd565b602086015160e087015160408089015160608a01518a518301519251610a729998979695949390611462565b60405180910390a1505050505050505050505050565b60056020526000908152604090819020815160c0810190925280549091908290829060ff166002811115610acc57634e487b7160e01b600052602160045260246000fd5b6002811115610aeb57634e487b7160e01b600052602160045260246000fd5b81526001820154602082015260028201546040820152600382015460608201526004909101546001600160a01b038082166080840152600160a01b90910460e01b6001600160e01b03191660a090920191909152600583015460068401546007850154600886018054959660ff80861697610100870482169762010000909704909116959390931692909190610b8090611586565b80601f0160208091040260200160405190810160405280929190818152602001828054610bac90611586565b8015610bf95780601f10610bce57610100808354040283529160200191610bf9565b820191906000526020600020905b815481529060010190602001808311610bdc57829003601f168201915b505050505090806009018054610c0e90611586565b80601f0160208091040260200160405190810160405280929190818152602001828054610c3a90611586565b8015610c875780601f10610c5c57610100808354040283529160200191610c87565b820191906000526020600020905b815481529060010190602001808311610c6a57829003601f168201915b50505050509080600a018054610c9c90611586565b80601f0160208091040260200160405190810160405280929190818152602001828054610cc890611586565b8015610d155780601f10610cea57610100808354040283529160200191610d15565b820191906000526020600020905b815481529060010190602001808311610cf857829003601f168201915b5050505050905089565b6002546001600160a01b03163314610d495760405162461bcd60e51b81526004016102ef9061132c565b6001600160a01b03166000908152600360205260409020805460ff19169055565b6002546001600160a01b03163314610d945760405162461bcd60e51b81526004016102ef9061132c565b6001600160a01b038116600081815260036020908152604091829020805460ff1916600117905590519182527fbdaf0f76928c54dcb974064491e48a5bb176f8da215819e58200e91ab6bade40910160405180910390a150565b6002546001600160a01b03163314610e185760405162461bcd60e51b81526004016102ef9061132c565b6002546001600160a01b03163314610e5f5760405162461bcd60e51b815260206004820152600a60248201526927b7363c9037bbb732b960b11b60448201526064016102ef565b6002546040516000916001600160a01b03169047908381818185875af1925050503d8060008114610eac576040519150601f19603f3d011682016040523d82523d6000602084013e610eb1565b606091505b5050905080610f025760405162461bcd60e51b815260206004820152601860248201527f576974686472617720746f206f776e6572206661696c6564000000000000000060448201526064016102ef565b50565b6002546001600160a01b03163314610f2f5760405162461bcd60e51b81526004016102ef9061132c565b6001600160a01b03166000908152600460205260409020805460ff19169055565b6002546001600160a01b03163314610f7a5760405162461bcd60e51b81526004016102ef9061132c565b6001600160a01b03166000908152600460205260409020805460ff19166001179055565b828054610faa90611586565b90600052602060002090601f016020900481019282610fcc5760008555611012565b82601f10610fe557805160ff1916838001178555611012565b82800160010185558215611012579182015b82811115611012578251825591602001919060010190610ff7565b5061101e929150611022565b5090565b5b8082111561101e5760008155600101611023565b80356001600160a01b038116811461104e57600080fd5b919050565b600082601f830112611063578081fd5b81356110766110718261152e565b6114fd565b81815284602083860101111561108a578283fd5b816020850160208301379081016020019190915292915050565b803561104e81611624565b80356002811061104e57600080fd5b6000602082840312156110cf578081fd5b6110d882611037565b9392505050565b600080600080600080600080610100898b0312156110fb578384fd5b883567ffffffffffffffff80821115611112578586fd5b61111e8c838d01611053565b995060208b0135985061113360408c01611037565b975060608b013591506001600160e01b031982168214611151578586fd5b81965061116060808c016110a4565b955060a08b0135915080821115611175578485fd5b506111828b828c01611053565b93505061119160c08a016110a4565b915061119f60e08a016110af565b90509295985092959890939650565b6000602082840312156111bf578081fd5b8151600481106110d8578182fd5b6000602082840312156111de578081fd5b815167ffffffffffffffff8111156111f4578182fd5b8201601f81018413611204578182fd5b80516112126110718261152e565b818152856020838501011115611226578384fd5b611237826020830160208601611556565b95945050505050565b600060208284031215611251578081fd5b5035919050565b600060208284031215611269578081fd5b5051919050565b600080600060608486031215611284578283fd5b83359250602084013561129681611624565b9150604084013567ffffffffffffffff8111156112b1578182fd5b6112bd86828701611053565b9150509250925092565b600081518084526112df816020860160208601611556565b601f01601f19169290920160200192915050565b6112fc81611614565b9052565b600281106112fc576112fc6115e8565b60008251611322818460208701611556565b9190910192915050565b60208082526012908201527113db9b1e481bdddb995c88185b1b1bddd95960721b604082015260600190565b60006101c08b5161136881611614565b835260208c810151908401526040808d0151908401526060808d0151908401526080808d01516001600160a01b03169084015260a0808d01516001600160e01b031916908401526113bc60c084018c6112f3565b6113c960e084018b6112f3565b6113d761010084018a611300565b876101208401526113f46101408401886001600160a01b03169052565b80610160840152611407818401876112c7565b905082810361018084015261141c81866112c7565b90508281036101a084015261143181856112c7565b9c9b505050505050505050505050565b82815260406020820152600061145a60408301846112c7565b949350505050565b60006101208b835260048b1061147a5761147a6115e8565b8a60208401528060408401526114928184018b6112c7565b905082810360608401526114a6818a6112c7565b90506114b188611614565b87608084015282810360a08401526114c981886112c7565b9150506114d585611614565b8460c08301526114e860e0830185611300565b826101008301529a9950505050505050505050565b604051601f8201601f1916810167ffffffffffffffff81118282101715611526576115266115fe565b604052919050565b600067ffffffffffffffff821115611548576115486115fe565b50601f01601f191660200190565b60005b83811015611571578181015183820152602001611559565b83811115611580576000848401525b50505050565b600181811c9082168061159a57607f821691505b602082108114156115bb57634e487b7160e01b600052602260045260246000fd5b50919050565b60006000198214156115e157634e487b7160e01b81526011600452602481fd5b5060010190565b634e487b7160e01b600052602160045260246000fd5b634e487b7160e01b600052604160045260246000fd5b60038110610f0257610f026115e8565b60038110610f0257600080fdfea2646970667358221220b0ce2936e2fdbc289a7363fe9807632e131a22cbb027c04e33e010574bee2e0764736f6c63430008040033",
  "linkReferences": {},
  "deployedLinkReferences": {}
}