{
  "_format": "hh-sol-artifact-1",
  "contractName": "ChainAIV2",
  "sourceName": "contracts/ChainAIV2.sol",
  "abi": [
    {
      "inputs": [
        {
          "internalType": "uint256",
          "name": "inferencePrice_",
          "type": "uint256"
        }
      ],
      "stateMutability": "nonpayable",
      "type": "constructor"
    },
    {
      "anonymous": false,
      "inputs": [
        {
          "indexed": false,
          "internalType": "uint256",
          "name": "jobId",
          "type": "uint256"
        },
        {
          "indexed": false,
          "internalType": "enum DataTypes.ModelCategory",
          "name": "modelCategory",
          "type": "uint8"
        },
        {
          "indexed": false,
          "internalType": "bytes",
          "name": "seed",
          "type": "bytes"
        },
        {
          "indexed": false,
          "internalType": "string",
          "name": "modelConfigLocation",
          "type": "string"
        },
        {
          "indexed": false,
          "internalType": "enum DataTypes.InputDataLocationType",
          "name": "inputDataLocationType",
          "type": "uint8"
        },
        {
          "indexed": false,
          "internalType": "string",
          "name": "input",
          "type": "string"
        },
        {
          "indexed": false,
          "internalType": "enum DataTypes.OutputDataLocationType",
          "name": "outputDataLocationType",
          "type": "uint8"
        },
        {
          "indexed": false,
          "internalType": "enum DataTypes.OutputDataFormat",
          "name": "outputDataFormat",
          "type": "uint8"
        },
        {
          "indexed": false,
          "internalType": "uint256",
          "name": "createdTimestamp",
          "type": "uint256"
        }
      ],
      "name": "JobCreated",
      "type": "event"
    },
    {
      "anonymous": false,
      "inputs": [
        {
          "indexed": false,
          "internalType": "uint256",
          "name": "jobId",
          "type": "uint256"
        }
      ],
      "name": "JobFailed",
      "type": "event"
    },
    {
      "anonymous": false,
      "inputs": [
        {
          "indexed": false,
          "internalType": "uint256",
          "name": "jobId",
          "type": "uint256"
        }
      ],
      "name": "JobSucceeded",
      "type": "event"
    },
    {
      "anonymous": false,
      "inputs": [
        {
          "indexed": false,
          "internalType": "address",
          "name": "model",
          "type": "address"
        }
      ],
      "name": "ModelAdded",
      "type": "event"
    },
    {
      "inputs": [
        {
          "internalType": "address",
          "name": "model",
          "type": "address"
        }
      ],
      "name": "addModel",
      "outputs": [],
      "stateMutability": "nonpayable",
      "type": "function"
    },
    {
      "inputs": [
        {
          "internalType": "address",
          "name": "sequencer",
          "type": "address"
        }
      ],
      "name": "addSequencer",
      "outputs": [],
      "stateMutability": "nonpayable",
      "type": "function"
    },
    {
      "inputs": [],
      "name": "inferencePrice",
      "outputs": [
        {
          "internalType": "uint256",
          "name": "",
          "type": "uint256"
        }
      ],
      "stateMutability": "view",
      "type": "function"
    },
    {
      "inputs": [
        {
          "internalType": "uint256",
          "name": "",
          "type": "uint256"
        }
      ],
      "name": "jobs",
      "outputs": [
        {
          "components": [
            {
              "internalType": "enum ChainAIV2.JobStatus",
              "name": "status",
              "type": "uint8"
            },
            {
              "internalType": "uint256",
              "name": "id",
              "type": "uint256"
            },
            {
              "internalType": "uint256",
              "name": "createdTimestamp",
              "type": "uint256"
            },
            {
              "internalType": "uint256",
              "name": "callbackId",
              "type": "uint256"
            },
            {
              "internalType": "address",
              "name": "callbackAddress",
              "type": "address"
            },
            {
              "internalType": "bytes4",
              "name": "callbackFunction",
              "type": "bytes4"
            }
          ],
          "internalType": "struct ChainAIV2.JobParams",
          "name": "jobParams",
          "type": "tuple"
        },
        {
          "internalType": "enum DataTypes.InputDataLocationType",
          "name": "inputDataLocationType",
          "type": "uint8"
        },
        {
          "internalType": "enum DataTypes.OutputDataLocationType",
          "name": "outputDataLocationType",
          "type": "uint8"
        },
        {
          "internalType": "enum DataTypes.OutputDataFormat",
          "name": "outputDataFormat",
          "type": "uint8"
        },
        {
          "internalType": "uint256",
          "name": "modelVersion",
          "type": "uint256"
        },
        {
          "internalType": "address",
          "name": "model",
          "type": "address"
        },
        {
          "internalType": "bytes",
          "name": "seed",
          "type": "bytes"
        },
        {
          "internalType": "string",
          "name": "input",
          "type": "string"
        },
        {
          "internalType": "bytes",
          "name": "output",
          "type": "bytes"
        }
      ],
      "stateMutability": "view",
      "type": "function"
    },
    {
      "inputs": [],
      "name": "latestJobId",
      "outputs": [
        {
          "internalType": "uint256",
          "name": "",
          "type": "uint256"
        }
      ],
      "stateMutability": "view",
      "type": "function"
    },
    {
      "inputs": [
        {
          "internalType": "address",
          "name": "",
          "type": "address"
        }
      ],
      "name": "models",
      "outputs": [
        {
          "internalType": "bool",
          "name": "",
          "type": "bool"
        }
      ],
      "stateMutability": "view",
      "type": "function"
    },
    {
      "inputs": [
        {
          "internalType": "address",
          "name": "model",
          "type": "address"
        }
      ],
      "name": "removeModel",
      "outputs": [],
      "stateMutability": "nonpayable",
      "type": "function"
    },
    {
      "inputs": [
        {
          "internalType": "address",
          "name": "sequencer",
          "type": "address"
        }
      ],
      "name": "removeSequencer",
      "outputs": [],
      "stateMutability": "nonpayable",
      "type": "function"
    },
    {
      "inputs": [
        {
          "internalType": "address",
          "name": "",
          "type": "address"
        }
      ],
      "name": "sequencers",
      "outputs": [
        {
          "internalType": "bool",
          "name": "",
          "type": "bool"
        }
      ],
      "stateMutability": "view",
      "type": "function"
    },
    {
      "inputs": [
        {
          "internalType": "bytes",
          "name": "seed",
          "type": "bytes"
        },
        {
          "internalType": "uint256",
          "name": "callbackId",
          "type": "uint256"
        },
        {
          "internalType": "address",
          "name": "callbackAddress",
          "type": "address"
        },
        {
          "internalType": "bytes4",
          "name": "callbackFunction",
          "type": "bytes4"
        },
        {
          "internalType": "enum DataTypes.InputDataLocationType",
          "name": "inputDataLocationType",
          "type": "uint8"
        },
        {
          "internalType": "string",
          "name": "input",
          "type": "string"
        },
        {
          "internalType": "enum DataTypes.OutputDataLocationType",
          "name": "outputDataLocationType",
          "type": "uint8"
        },
        {
          "internalType": "enum DataTypes.OutputDataFormat",
          "name": "outputDataFormat",
          "type": "uint8"
        }
      ],
      "name": "startJob",
      "outputs": [],
      "stateMutability": "payable",
      "type": "function"
    },
    {
      "inputs": [
        {
          "internalType": "uint256",
          "name": "newPrice",
          "type": "uint256"
        }
      ],
      "name": "updateInferencePrice",
      "outputs": [],
      "stateMutability": "nonpayable",
      "type": "function"
    },
    {
      "inputs": [
        {
          "internalType": "uint256",
          "name": "jobId",
          "type": "uint256"
        },
        {
          "internalType": "enum ChainAIV2.JobStatus",
          "name": "jobStatus",
          "type": "uint8"
        },
        {
          "internalType": "bytes",
          "name": "callbackData",
          "type": "bytes"
        }
      ],
      "name": "updateJobStatus",
      "outputs": [],
      "stateMutability": "nonpayable",
      "type": "function"
    },
    {
      "inputs": [],
      "name": "withdraw",
      "outputs": [],
      "stateMutability": "nonpayable",
      "type": "function"
    }
  ],
  "bytecode": "0x60806040523480156200001157600080fd5b50604051620029e2380380620029e283398181016040528101906200003791906200009d565b8060008190555033600260006101000a81548173ffffffffffffffffffffffffffffffffffffffff021916908373ffffffffffffffffffffffffffffffffffffffff16021790555050620000ed565b6000815190506200009781620000d3565b92915050565b600060208284031215620000b057600080fd5b6000620000c08482850162000086565b91505092915050565b6000819050919050565b620000de81620000c9565b8114620000ea57600080fd5b50565b6128e580620000fd6000396000f3fe6080604052600436106100c25760003560e01c8063380b806e1161007f57806354917f831161005957806354917f831461024b5780636989ca7c146102885780638a336231146102b15780639334aefd146102da576100c2565b8063380b806e146101e05780633ccfd60b146102095780634f36a18414610220576100c2565b8063015232d8146100c75780630dd07f79146100f05780631468cabd14610119578063180aedf3146101355780631c7a07ee1461017a5780633371fbf5146101b7575b600080fd5b3480156100d357600080fd5b506100ee60048036038101906100e99190611d10565b610305565b005b3480156100fc57600080fd5b5061011760048036038101906101129190611cbe565b6106e4565b005b610133600480360381019061012e9190611b72565b61077e565b005b34801561014157600080fd5b5061015c60048036038101906101579190611cbe565b610e81565b60405161017199989796959493929190612151565b60405180910390f35b34801561018657600080fd5b506101a1600480360381019061019c9190611b49565b611208565b6040516101ae9190612076565b60405180910390f35b3480156101c357600080fd5b506101de60048036038101906101d99190611b49565b611228565b005b3480156101ec57600080fd5b5061020760048036038101906102029190611b49565b611313565b005b34801561021557600080fd5b5061021e611435565b005b34801561022c57600080fd5b50610235611626565b60405161024291906121f8565b60405180910390f35b34801561025757600080fd5b50610272600480360381019061026d9190611b49565b61162f565b60405161027f9190612076565b60405180910390f35b34801561029457600080fd5b506102af60048036038101906102aa9190611b49565b61164f565b005b3480156102bd57600080fd5b506102d860048036038101906102d39190611b49565b61173a565b005b3480156102e657600080fd5b506102ef611825565b6040516102fc91906121f8565b60405180910390f35b600460003373ffffffffffffffffffffffffffffffffffffffff1673ffffffffffffffffffffffffffffffffffffffff16815260200190815260200160002060009054906101000a900460ff16610391576040517f08c379a000000000000000000000000000000000000000000000000000000000815260040161038890612091565b60405180910390fd5b6000806005600086815260200190815260200160002090508060000191508281600a0190805190602001906103c792919061182b565b50838260000160006101000a81548160ff02191690836002811115610415577f4e487b7100000000000000000000000000000000000000000000000000000000600052602160045260246000fd5b021790555060016002811115610454577f4e487b7100000000000000000000000000000000000000000000000000000000600052602160045260246000fd5b84600281111561048d577f4e487b7100000000000000000000000000000000000000000000000000000000600052602160045260246000fd5b14156104cf577fb75cf56c3b87307029f0059a671fedc39db6212ba4ef07f39d4f053185dc9006856040516104c291906121f8565b60405180910390a16106dd565b600280811115610508577f4e487b7100000000000000000000000000000000000000000000000000000000600052602160045260246000fd5b846002811115610541577f4e487b7100000000000000000000000000000000000000000000000000000000600052602160045260246000fd5b14156106dc5760008260040160149054906101000a900460e01b836003015485604051602401610572929190612213565b604051602081830303815290604052907bffffffffffffffffffffffffffffffffffffffffffffffffffffffff19166020820180517bffffffffffffffffffffffffffffffffffffffffffffffffffffffff8381831617835250505050905060008360040160009054906101000a900473ffffffffffffffffffffffffffffffffffffffff1673ffffffffffffffffffffffffffffffffffffffff168260405161061c919061202f565b6000604051808303816000865af19150503d8060008114610659576040519150601f19603f3d011682016040523d82523d6000602084013e61065e565b606091505b50509050806106a2576040517f08c379a000000000000000000000000000000000000000000000000000000000815260040161069990612111565b60405180910390fd5b7fc5ff1ec8ea45d0671a3ea8676bd4bcb43a0b3550d0e6b392e4e1c42bcd220827876040516106d191906121f8565b60405180910390a150505b5b5050505050565b600260009054906101000a900473ffffffffffffffffffffffffffffffffffffffff1673ffffffffffffffffffffffffffffffffffffffff163373ffffffffffffffffffffffffffffffffffffffff1614610774576040517f08c379a000000000000000000000000000000000000000000000000000000000815260040161076b906120f1565b60405180910390fd5b8060008190555050565b600360003373ffffffffffffffffffffffffffffffffffffffff1673ffffffffffffffffffffffffffffffffffffffff16815260200190815260200160002060009054906101000a900460ff1661080a576040517f08c379a0000000000000000000000000000000000000000000000000000000008152600401610801906120d1565b60405180910390fd5b6001600081548092919061081d90612581565b91905055506000429050600033905060006040518060c0016040528060006002811115610873577f4e487b7100000000000000000000000000000000000000000000000000000000600052602160045260246000fd5b815260200160015481526020018481526020018b81526020018a73ffffffffffffffffffffffffffffffffffffffff168152602001897bffffffffffffffffffffffffffffffffffffffffffffffffffffffff19168152509050600060405180610120016040528083815260200189600281111561091a577f4e487b7100000000000000000000000000000000000000000000000000000000600052602160045260246000fd5b8152602001876002811115610958577f4e487b7100000000000000000000000000000000000000000000000000000000600052602160045260246000fd5b8152602001866001811115610996577f4e487b7100000000000000000000000000000000000000000000000000000000600052602160045260246000fd5b81526020018473ffffffffffffffffffffffffffffffffffffffff1663029b015f6040518163ffffffff1660e01b815260040160206040518083038186803b1580156109e157600080fd5b505afa1580156109f5573d6000803e3d6000fd5b505050506040513d601f19601f82011682018060405250810190610a199190611ce7565b81526020013373ffffffffffffffffffffffffffffffffffffffff1681526020018d81526020018881526020016040518060200160405280600081525081525090508060056000600154815260200190815260200160002060008201518160000160008201518160000160006101000a81548160ff02191690836002811115610acb577f4e487b7100000000000000000000000000000000000000000000000000000000600052602160045260246000fd5b021790555060208201518160010155604082015181600201556060820151816003015560808201518160040160006101000a81548173ffffffffffffffffffffffffffffffffffffffff021916908373ffffffffffffffffffffffffffffffffffffffff16021790555060a08201518160040160146101000a81548163ffffffff021916908360e01c0217905550505060208201518160050160006101000a81548160ff02191690836002811115610bac577f4e487b7100000000000000000000000000000000000000000000000000000000600052602160045260246000fd5b021790555060408201518160050160016101000a81548160ff02191690836002811115610c02577f4e487b7100000000000000000000000000000000000000000000000000000000600052602160045260246000fd5b021790555060608201518160050160026101000a81548160ff02191690836001811115610c58577f4e487b7100000000000000000000000000000000000000000000000000000000600052602160045260246000fd5b02179055506080820151816006015560a08201518160070160006101000a81548173ffffffffffffffffffffffffffffffffffffffff021916908373ffffffffffffffffffffffffffffffffffffffff16021790555060c0820151816008019080519060200190610cca92919061182b565b5060e0820151816009019080519060200190610ce79291906118b1565b5061010082015181600a019080519060200190610d0592919061182b565b509050507f1529f354cf8b170521e59ba0012587aaa9f0f8f237034a968395248656545c798160000151602001518473ffffffffffffffffffffffffffffffffffffffff166383e27aea6040518163ffffffff1660e01b815260040160206040518083038186803b158015610d7957600080fd5b505afa158015610d8d573d6000803e3d6000fd5b505050506040513d601f19601f82011682018060405250810190610db19190611c54565b8360c001518673ffffffffffffffffffffffffffffffffffffffff16637408836f6040518163ffffffff1660e01b815260040160006040518083038186803b158015610dfc57600080fd5b505afa158015610e10573d6000803e3d6000fd5b505050506040513d6000823e3d601f19601f82011682018060405250810190610e399190611c7d565b85602001518660e0015187604001518860600151896000015160400151604051610e6b99989796959493929190612243565b60405180910390a1505050505050505050505050565b6005602052806000526040600020600091509050806000016040518060c00160405290816000820160009054906101000a900460ff166002811115610eef577f4e487b7100000000000000000000000000000000000000000000000000000000600052602160045260246000fd5b6002811115610f27577f4e487b7100000000000000000000000000000000000000000000000000000000600052602160045260246000fd5b81526020016001820154815260200160028201548152602001600382015481526020016004820160009054906101000a900473ffffffffffffffffffffffffffffffffffffffff1673ffffffffffffffffffffffffffffffffffffffff1673ffffffffffffffffffffffffffffffffffffffff1681526020016004820160149054906101000a900460e01b7bffffffffffffffffffffffffffffffffffffffffffffffffffffffff19167bffffffffffffffffffffffffffffffffffffffffffffffffffffffff191681525050908060050160009054906101000a900460ff16908060050160019054906101000a900460ff16908060050160029054906101000a900460ff16908060060154908060070160009054906101000a900473ffffffffffffffffffffffffffffffffffffffff16908060080180546110699061251e565b80601f01602080910402602001604051908101604052809291908181526020018280546110959061251e565b80156110e25780601f106110b7576101008083540402835291602001916110e2565b820191906000526020600020905b8154815290600101906020018083116110c557829003601f168201915b5050505050908060090180546110f79061251e565b80601f01602080910402602001604051908101604052809291908181526020018280546111239061251e565b80156111705780601f1061114557610100808354040283529160200191611170565b820191906000526020600020905b81548152906001019060200180831161115357829003601f168201915b50505050509080600a0180546111859061251e565b80601f01602080910402602001604051908101604052809291908181526020018280546111b19061251e565b80156111fe5780601f106111d3576101008083540402835291602001916111fe565b820191906000526020600020905b8154815290600101906020018083116111e157829003601f168201915b5050505050905089565b60046020528060005260406000206000915054906101000a900460ff1681565b600260009054906101000a900473ffffffffffffffffffffffffffffffffffffffff1673ffffffffffffffffffffffffffffffffffffffff163373ffffffffffffffffffffffffffffffffffffffff16146112b8576040517f08c379a00000000000000000000000000000000000000000000000000000000081526004016112af906120f1565b60405180910390fd5b6000600360008373ffffffffffffffffffffffffffffffffffffffff1673ffffffffffffffffffffffffffffffffffffffff16815260200190815260200160002060006101000a81548160ff02191690831515021790555050565b600260009054906101000a900473ffffffffffffffffffffffffffffffffffffffff1673ffffffffffffffffffffffffffffffffffffffff163373ffffffffffffffffffffffffffffffffffffffff16146113a3576040517f08c379a000000000000000000000000000000000000000000000000000000000815260040161139a906120f1565b60405180910390fd5b6001600360008373ffffffffffffffffffffffffffffffffffffffff1673ffffffffffffffffffffffffffffffffffffffff16815260200190815260200160002060006101000a81548160ff0219169083151502179055507fbdaf0f76928c54dcb974064491e48a5bb176f8da215819e58200e91ab6bade408160405161142a919061205b565b60405180910390a150565b600260009054906101000a900473ffffffffffffffffffffffffffffffffffffffff1673ffffffffffffffffffffffffffffffffffffffff163373ffffffffffffffffffffffffffffffffffffffff16146114c5576040517f08c379a00000000000000000000000000000000000000000000000000000000081526004016114bc906120f1565b60405180910390fd5b600260009054906101000a900473ffffffffffffffffffffffffffffffffffffffff1673ffffffffffffffffffffffffffffffffffffffff163373ffffffffffffffffffffffffffffffffffffffff1614611555576040517f08c379a000000000000000000000000000000000000000000000000000000000815260040161154c906120b1565b60405180910390fd5b6000600260009054906101000a900473ffffffffffffffffffffffffffffffffffffffff1673ffffffffffffffffffffffffffffffffffffffff164760405161159d90612046565b60006040518083038185875af1925050503d80600081146115da576040519150601f19603f3d011682016040523d82523d6000602084013e6115df565b606091505b5050905080611623576040517f08c379a000000000000000000000000000000000000000000000000000000000815260040161161a90612131565b60405180910390fd5b50565b60008054905090565b60036020528060005260406000206000915054906101000a900460ff1681565b600260009054906101000a900473ffffffffffffffffffffffffffffffffffffffff1673ffffffffffffffffffffffffffffffffffffffff163373ffffffffffffffffffffffffffffffffffffffff16146116df576040517f08c379a00000000000000000000000000000000000000000000000000000000081526004016116d6906120f1565b60405180910390fd5b6000600460008373ffffffffffffffffffffffffffffffffffffffff1673ffffffffffffffffffffffffffffffffffffffff16815260200190815260200160002060006101000a81548160ff02191690831515021790555050565b600260009054906101000a900473ffffffffffffffffffffffffffffffffffffffff1673ffffffffffffffffffffffffffffffffffffffff163373ffffffffffffffffffffffffffffffffffffffff16146117ca576040517f08c379a00000000000000000000000000000000000000000000000000000000081526004016117c1906120f1565b60405180910390fd5b6001600460008373ffffffffffffffffffffffffffffffffffffffff1673ffffffffffffffffffffffffffffffffffffffff16815260200190815260200160002060006101000a81548160ff02191690831515021790555050565b60015481565b8280546118379061251e565b90600052602060002090601f01602090048101928261185957600085556118a0565b82601f1061187257805160ff19168380011785556118a0565b828001600101855582156118a0579182015b8281111561189f578251825591602001919060010190611884565b5b5090506118ad9190611937565b5090565b8280546118bd9061251e565b90600052602060002090601f0160209004810192826118df5760008555611926565b82601f106118f857805160ff1916838001178555611926565b82800160010185558215611926579182015b8281111561192557825182559160200191906001019061190a565b5b5090506119339190611937565b5090565b5b80821115611950576000816000905550600101611938565b5090565b60006119676119628461230a565b6122e5565b90508281526020810184848401111561197f57600080fd5b61198a8482856124dc565b509392505050565b60006119a56119a08461233b565b6122e5565b9050828152602081018484840111156119bd57600080fd5b6119c88482856124dc565b509392505050565b60006119e36119de8461233b565b6122e5565b9050828152602081018484840111156119fb57600080fd5b611a068482856124eb565b509392505050565b600081359050611a1d8161281a565b92915050565b600081359050611a3281612831565b92915050565b600082601f830112611a4957600080fd5b8135611a59848260208601611954565b91505092915050565b600081359050611a7181612848565b92915050565b600081359050611a8681612858565b92915050565b600081519050611a9b81612868565b92915050565b600081359050611ab081612878565b92915050565b600081359050611ac581612888565b92915050565b600082601f830112611adc57600080fd5b8135611aec848260208601611992565b91505092915050565b600082601f830112611b0657600080fd5b8151611b168482602086016119d0565b91505092915050565b600081359050611b2e81612898565b92915050565b600081519050611b4381612898565b92915050565b600060208284031215611b5b57600080fd5b6000611b6984828501611a0e565b91505092915050565b600080600080600080600080610100898b031215611b8f57600080fd5b600089013567ffffffffffffffff811115611ba957600080fd5b611bb58b828c01611a38565b9850506020611bc68b828c01611b1f565b9750506040611bd78b828c01611a0e565b9650506060611be88b828c01611a23565b9550506080611bf98b828c01611a62565b94505060a089013567ffffffffffffffff811115611c1657600080fd5b611c228b828c01611acb565b93505060c0611c338b828c01611ab6565b92505060e0611c448b828c01611aa1565b9150509295985092959890939650565b600060208284031215611c6657600080fd5b6000611c7484828501611a8c565b91505092915050565b600060208284031215611c8f57600080fd5b600082015167ffffffffffffffff811115611ca957600080fd5b611cb584828501611af5565b91505092915050565b600060208284031215611cd057600080fd5b6000611cde84828501611b1f565b91505092915050565b600060208284031215611cf957600080fd5b6000611d0784828501611b34565b91505092915050565b600080600060608486031215611d2557600080fd5b6000611d3386828701611b1f565b9350506020611d4486828701611a77565b925050604084013567ffffffffffffffff811115611d6157600080fd5b611d6d86828701611a38565b9150509250925092565b611d80816123af565b82525050565b611d8f816123af565b82525050565b611d9e816123c1565b82525050565b611dad816123cd565b82525050565b6000611dbe8261236c565b611dc88185612382565b9350611dd88185602086016124eb565b611de181612686565b840191505092915050565b6000611df78261236c565b611e018185612393565b9350611e118185602086016124eb565b80840191505092915050565b611e2681612482565b82525050565b611e3581612494565b82525050565b611e44816124a6565b82525050565b611e53816124b8565b82525050565b611e62816124ca565b82525050565b6000611e7382612377565b611e7d818561239e565b9350611e8d8185602086016124eb565b611e9681612686565b840191505092915050565b6000611eae60188361239e565b9150611eb982612697565b602082019050919050565b6000611ed1600a8361239e565b9150611edc826126c0565b602082019050919050565b6000611ef460238361239e565b9150611eff826126e9565b604082019050919050565b6000611f1760128361239e565b9150611f2282612738565b602082019050919050565b6000611f3a600f8361239e565b9150611f4582612761565b602082019050919050565b6000611f5d600083612393565b9150611f688261278a565b600082019050919050565b6000611f8060188361239e565b9150611f8b8261278d565b602082019050919050565b60c082016000820151611fac6000850182611e2c565b506020820151611fbf6020850182612011565b506040820151611fd26040850182612011565b506060820151611fe56060850182612011565b506080820151611ff86080850182611d77565b5060a082015161200b60a0850182611da4565b50505050565b61201a81612478565b82525050565b61202981612478565b82525050565b600061203b8284611dec565b915081905092915050565b600061205182611f50565b9150819050919050565b60006020820190506120706000830184611d86565b92915050565b600060208201905061208b6000830184611d95565b92915050565b600060208201905081810360008301526120aa81611ea1565b9050919050565b600060208201905081810360008301526120ca81611ec4565b9050919050565b600060208201905081810360008301526120ea81611ee7565b9050919050565b6000602082019050818103600083015261210a81611f0a565b9050919050565b6000602082019050818103600083015261212a81611f2d565b9050919050565b6000602082019050818103600083015261214a81611f73565b9050919050565b60006101c082019050612167600083018c611f96565b61217460c083018b611e1d565b61218160e083018a611e59565b61218f610100830189611e4a565b61219d610120830188612020565b6121ab610140830187611d86565b8181036101608301526121be8186611db3565b90508181036101808301526121d38185611e68565b90508181036101a08301526121e88184611db3565b90509a9950505050505050505050565b600060208201905061220d6000830184612020565b92915050565b60006040820190506122286000830185612020565b818103602083015261223a8184611db3565b90509392505050565b600061012082019050612259600083018c612020565b612266602083018b611e3b565b8181036040830152612278818a611db3565b9050818103606083015261228c8189611e68565b905061229b6080830188611e1d565b81810360a08301526122ad8187611e68565b90506122bc60c0830186611e59565b6122c960e0830185611e4a565b6122d7610100830184612020565b9a9950505050505050505050565b60006122ef612300565b90506122fb8282612550565b919050565b6000604051905090565b600067ffffffffffffffff82111561232557612324612657565b5b61232e82612686565b9050602081019050919050565b600067ffffffffffffffff82111561235657612355612657565b5b61235f82612686565b9050602081019050919050565b600081519050919050565b600081519050919050565b600082825260208201905092915050565b600081905092915050565b600082825260208201905092915050565b60006123ba82612458565b9050919050565b60008115159050919050565b60007fffffffff0000000000000000000000000000000000000000000000000000000082169050919050565b6000819050612407826127b6565b919050565b600081905061241a826127ca565b919050565b600081905061242d826127de565b919050565b6000819050612440826127f2565b919050565b600081905061245382612806565b919050565b600073ffffffffffffffffffffffffffffffffffffffff82169050919050565b6000819050919050565b600061248d826123f9565b9050919050565b600061249f8261240c565b9050919050565b60006124b18261241f565b9050919050565b60006124c382612432565b9050919050565b60006124d582612445565b9050919050565b82818337600083830152505050565b60005b838110156125095780820151818401526020810190506124ee565b83811115612518576000848401525b50505050565b6000600282049050600182168061253657607f821691505b6020821081141561254a57612549612628565b5b50919050565b61255982612686565b810181811067ffffffffffffffff8211171561257857612577612657565b5b80604052505050565b600061258c82612478565b91507fffffffffffffffffffffffffffffffffffffffffffffffffffffffffffffffff8214156125bf576125be6125ca565b5b600182019050919050565b7f4e487b7100000000000000000000000000000000000000000000000000000000600052601160045260246000fd5b7f4e487b7100000000000000000000000000000000000000000000000000000000600052602160045260246000fd5b7f4e487b7100000000000000000000000000000000000000000000000000000000600052602260045260246000fd5b7f4e487b7100000000000000000000000000000000000000000000000000000000600052604160045260246000fd5b6000601f19601f8301169050919050565b7f4e6f74206120747275737465642047505520776f726b65720000000000000000600082015250565b7f4f6e6c79206f776e657200000000000000000000000000000000000000000000600082015250565b7f4f6e6c79206d6f64656c20636f6e747261637420616c6c6f77656420746f206360008201527f616c6c0000000000000000000000000000000000000000000000000000000000602082015250565b7f4f6e6c79206f776e657220616c6c6f7765640000000000000000000000000000600082015250565b7f43616c6c6261636b206661696c65640000000000000000000000000000000000600082015250565b50565b7f576974686472617720746f206f776e6572206661696c65640000000000000000600082015250565b600381106127c7576127c66125f9565b5b50565b600381106127db576127da6125f9565b5b50565b600481106127ef576127ee6125f9565b5b50565b60028110612803576128026125f9565b5b50565b60038110612817576128166125f9565b5b50565b612823816123af565b811461282e57600080fd5b50565b61283a816123cd565b811461284557600080fd5b50565b6003811061285557600080fd5b50565b6003811061286557600080fd5b50565b6004811061287557600080fd5b50565b6002811061288557600080fd5b50565b6003811061289557600080fd5b50565b6128a181612478565b81146128ac57600080fd5b5056fea2646970667358221220b257343b68d1d161b94d0c03fb89ecac6ce3e224342a6682c23bb4432bd12a3e64736f6c63430008040033",
  "linkReferences": {},
  "deployedLinkReferences": {}
}