{
  "_format": "hh-sol-artifact-1",
  "contractName": "EvolvingNFT",
  "sourceName": "contracts/EvolvingNFT.sol",
  "abi": [
    {
      "inputs": [
        {
          "internalType": "address",
          "name": "owner_",
          "type": "address"
        },
        {
          "internalType": "address",
          "name": "mlCoordinator_",
          "type": "address"
        },
        {
          "internalType": "uint256",
          "name": "price_",
          "type": "uint256"
        },
        {
          "internalType": "enum ChainAIV2.ModelCategory",
          "name": "modelCategory_",
          "type": "uint8"
        },
        {
          "internalType": "string",
          "name": "model_",
          "type": "string"
        }
      ],
      "stateMutability": "nonpayable",
      "type": "constructor"
    },
    {
      "anonymous": false,
      "inputs": [
        {
          "indexed": true,
          "internalType": "address",
          "name": "owner",
          "type": "address"
        },
        {
          "indexed": true,
          "internalType": "address",
          "name": "approved",
          "type": "address"
        },
        {
          "indexed": true,
          "internalType": "uint256",
          "name": "tokenId",
          "type": "uint256"
        }
      ],
      "name": "Approval",
      "type": "event"
    },
    {
      "anonymous": false,
      "inputs": [
        {
          "indexed": true,
          "internalType": "address",
          "name": "owner",
          "type": "address"
        },
        {
          "indexed": true,
          "internalType": "address",
          "name": "operator",
          "type": "address"
        },
        {
          "indexed": false,
          "internalType": "bool",
          "name": "approved",
          "type": "bool"
        }
      ],
      "name": "ApprovalForAll",
      "type": "event"
    },
    {
      "anonymous": false,
      "inputs": [
        {
          "indexed": false,
          "internalType": "uint256",
          "name": "tokenId",
          "type": "uint256"
        },
        {
          "indexed": false,
          "internalType": "string",
          "name": "tokenURI",
          "type": "string"
        }
      ],
      "name": "TokenUriSet",
      "type": "event"
    },
    {
      "anonymous": false,
      "inputs": [
        {
          "indexed": true,
          "internalType": "address",
          "name": "from",
          "type": "address"
        },
        {
          "indexed": true,
          "internalType": "address",
          "name": "to",
          "type": "address"
        },
        {
          "indexed": true,
          "internalType": "uint256",
          "name": "tokenId",
          "type": "uint256"
        }
      ],
      "name": "Transfer",
      "type": "event"
    },
    {
      "inputs": [
        {
          "internalType": "address",
          "name": "to",
          "type": "address"
        },
        {
          "internalType": "uint256",
          "name": "tokenId",
          "type": "uint256"
        }
      ],
      "name": "approve",
      "outputs": [],
      "stateMutability": "nonpayable",
      "type": "function"
    },
    {
      "inputs": [
        {
          "internalType": "address",
          "name": "owner",
          "type": "address"
        }
      ],
      "name": "balanceOf",
      "outputs": [
        {
          "internalType": "uint256",
          "name": "",
          "type": "uint256"
        }
      ],
      "stateMutability": "view",
      "type": "function"
    },
    {
      "inputs": [
        {
          "internalType": "uint256",
          "name": "tokenId",
          "type": "uint256"
        }
      ],
      "name": "getApproved",
      "outputs": [
        {
          "internalType": "address",
          "name": "",
          "type": "address"
        }
      ],
      "stateMutability": "view",
      "type": "function"
    },
    {
      "inputs": [
        {
          "internalType": "address",
          "name": "owner",
          "type": "address"
        },
        {
          "internalType": "address",
          "name": "operator",
          "type": "address"
        }
      ],
      "name": "isApprovedForAll",
      "outputs": [
        {
          "internalType": "bool",
          "name": "",
          "type": "bool"
        }
      ],
      "stateMutability": "view",
      "type": "function"
    },
    {
      "inputs": [
        {
          "internalType": "address",
          "name": "to",
          "type": "address"
        },
        {
          "internalType": "string",
          "name": "prompt",
          "type": "string"
        }
      ],
      "name": "mint",
      "outputs": [
        {
          "internalType": "uint256",
          "name": "",
          "type": "uint256"
        }
      ],
      "stateMutability": "payable",
      "type": "function"
    },
    {
      "inputs": [],
      "name": "mlCoordinator",
      "outputs": [
        {
          "internalType": "address",
          "name": "",
          "type": "address"
        }
      ],
      "stateMutability": "view",
      "type": "function"
    },
    {
      "inputs": [],
      "name": "model",
      "outputs": [
        {
          "internalType": "string",
          "name": "",
          "type": "string"
        }
      ],
      "stateMutability": "view",
      "type": "function"
    },
    {
      "inputs": [],
      "name": "name",
      "outputs": [
        {
          "internalType": "string",
          "name": "",
          "type": "string"
        }
      ],
      "stateMutability": "view",
      "type": "function"
    },
    {
      "inputs": [
        {
          "internalType": "uint256",
          "name": "tokenId",
          "type": "uint256"
        }
      ],
      "name": "ownerOf",
      "outputs": [
        {
          "internalType": "address",
          "name": "",
          "type": "address"
        }
      ],
      "stateMutability": "view",
      "type": "function"
    },
    {
      "inputs": [],
      "name": "price",
      "outputs": [
        {
          "internalType": "uint256",
          "name": "",
          "type": "uint256"
        }
      ],
      "stateMutability": "view",
      "type": "function"
    },
    {
      "inputs": [
        {
          "internalType": "address",
          "name": "from",
          "type": "address"
        },
        {
          "internalType": "address",
          "name": "to",
          "type": "address"
        },
        {
          "internalType": "uint256",
          "name": "tokenId",
          "type": "uint256"
        }
      ],
      "name": "safeTransferFrom",
      "outputs": [],
      "stateMutability": "nonpayable",
      "type": "function"
    },
    {
      "inputs": [
        {
          "internalType": "address",
          "name": "from",
          "type": "address"
        },
        {
          "internalType": "address",
          "name": "to",
          "type": "address"
        },
        {
          "internalType": "uint256",
          "name": "tokenId",
          "type": "uint256"
        },
        {
          "internalType": "bytes",
          "name": "_data",
          "type": "bytes"
        }
      ],
      "name": "safeTransferFrom",
      "outputs": [],
      "stateMutability": "nonpayable",
      "type": "function"
    },
    {
      "inputs": [
        {
          "internalType": "address",
          "name": "operator",
          "type": "address"
        },
        {
          "internalType": "bool",
          "name": "approved",
          "type": "bool"
        }
      ],
      "name": "setApprovalForAll",
      "outputs": [],
      "stateMutability": "nonpayable",
      "type": "function"
    },
    {
      "inputs": [
        {
          "internalType": "uint256",
          "name": "price_",
          "type": "uint256"
        }
      ],
      "name": "setMintPriceToThisContract",
      "outputs": [],
      "stateMutability": "nonpayable",
      "type": "function"
    },
    {
      "inputs": [
        {
          "internalType": "uint256",
          "name": "id",
          "type": "uint256"
        },
        {
          "internalType": "string",
          "name": "location",
          "type": "string"
        }
      ],
      "name": "setOutput",
      "outputs": [],
      "stateMutability": "nonpayable",
      "type": "function"
    },
    {
      "inputs": [
        {
          "internalType": "bytes4",
          "name": "interfaceId",
          "type": "bytes4"
        }
      ],
      "name": "supportsInterface",
      "outputs": [
        {
          "internalType": "bool",
          "name": "",
          "type": "bool"
        }
      ],
      "stateMutability": "view",
      "type": "function"
    },
    {
      "inputs": [],
      "name": "symbol",
      "outputs": [
        {
          "internalType": "string",
          "name": "",
          "type": "string"
        }
      ],
      "stateMutability": "view",
      "type": "function"
    },
    {
      "inputs": [
        {
          "internalType": "uint256",
          "name": "tokenId",
          "type": "uint256"
        }
      ],
      "name": "tokenURI",
      "outputs": [
        {
          "internalType": "string",
          "name": "",
          "type": "string"
        }
      ],
      "stateMutability": "view",
      "type": "function"
    },
    {
      "inputs": [
        {
          "internalType": "address",
          "name": "from",
          "type": "address"
        },
        {
          "internalType": "address",
          "name": "to",
          "type": "address"
        },
        {
          "internalType": "uint256",
          "name": "tokenId",
          "type": "uint256"
        }
      ],
      "name": "transferFrom",
      "outputs": [],
      "stateMutability": "nonpayable",
      "type": "function"
    },
    {
      "inputs": [
        {
          "internalType": "string",
          "name": "newModel",
          "type": "string"
        }
      ],
      "name": "updateModel",
      "outputs": [],
      "stateMutability": "nonpayable",
      "type": "function"
    },
    {
      "inputs": [],
      "name": "withdraw",
      "outputs": [],
      "stateMutability": "nonpayable",
      "type": "function"
    }
  ],
  "bytecode": "0x60806040523480156200001157600080fd5b50604051620040ec380380620040ec83398181016040528101906200003791906200033c565b6040518060400160405280600b81526020017f45766f6c76696e674e46540000000000000000000000000000000000000000008152506040518060400160405280600381526020017f45564f00000000000000000000000000000000000000000000000000000000008152508160009080519060200190620000bb929190620001d5565b508060019080519060200190620000d4929190620001d5565b50505084600760006101000a81548173ffffffffffffffffffffffffffffffffffffffff021916908373ffffffffffffffffffffffffffffffffffffffff16021790555083600860006101000a81548173ffffffffffffffffffffffffffffffffffffffff021916908373ffffffffffffffffffffffffffffffffffffffff16021790555082600a8190555081600b60006101000a81548160ff02191690836002811115620001ac577f4e487b7100000000000000000000000000000000000000000000000000000000600052602160045260246000fd5b021790555080600c9080519060200190620001c9929190620001d5565b505050505050620005ca565b828054620001e390620004aa565b90600052602060002090601f01602090048101928262000207576000855562000253565b82601f106200022257805160ff191683800117855562000253565b8280016001018555821562000253579182015b828111156200025257825182559160200191906001019062000235565b5b50905062000262919062000266565b5090565b5b808211156200028157600081600090555060010162000267565b5090565b60006200029c620002968462000400565b620003d7565b905082815260208101848484011115620002b557600080fd5b620002c284828562000474565b509392505050565b600081519050620002db8162000585565b92915050565b600081519050620002f2816200059f565b92915050565b600082601f8301126200030a57600080fd5b81516200031c84826020860162000285565b91505092915050565b6000815190506200033681620005b0565b92915050565b600080600080600060a086880312156200035557600080fd5b60006200036588828901620002ca565b95505060206200037888828901620002ca565b94505060406200038b8882890162000325565b93505060606200039e88828901620002e1565b925050608086015167ffffffffffffffff811115620003bc57600080fd5b620003ca88828901620002f8565b9150509295509295909350565b6000620003e3620003f6565b9050620003f18282620004e0565b919050565b6000604051905090565b600067ffffffffffffffff8211156200041e576200041d62000545565b5b620004298262000574565b9050602081019050919050565b600062000443826200044a565b9050919050565b600073ffffffffffffffffffffffffffffffffffffffff82169050919050565b6000819050919050565b60005b838110156200049457808201518184015260208101905062000477565b83811115620004a4576000848401525b50505050565b60006002820490506001821680620004c357607f821691505b60208210811415620004da57620004d962000516565b5b50919050565b620004eb8262000574565b810181811067ffffffffffffffff821117156200050d576200050c62000545565b5b80604052505050565b7f4e487b7100000000000000000000000000000000000000000000000000000000600052602260045260246000fd5b7f4e487b7100000000000000000000000000000000000000000000000000000000600052604160045260246000fd5b6000601f19601f8301169050919050565b620005908162000436565b81146200059c57600080fd5b50565b60038110620005ad57600080fd5b50565b620005bb816200046a565b8114620005c757600080fd5b50565b613b1280620005da6000396000f3fe60806040526004361061012a5760003560e01c80636352211e116100ab578063a22cb4651161006f578063a22cb465146103dc578063b88d4fde14610405578063c87b56dd1461042e578063d0def5211461046b578063e985e9c51461049b578063ffac322b146104d85761012a565b80636352211e146102e357806370a08231146103205780638d8025d81461035d57806395d89b4114610386578063a035b1fe146103b15761012a565b806323b872dd116100f257806323b872dd146102285780633ccfd60b14610251578063400021071461026857806342842e0e1461029157806352620c35146102ba5761012a565b806301ffc9a71461012f57806306fdde031461016c578063081812fc14610197578063095ea7b3146101d45780630ad9d052146101fd575b600080fd5b34801561013b57600080fd5b506101566004803603810190610151919061269c565b610503565b6040516101639190612ce5565b60405180910390f35b34801561017857600080fd5b506101816105e5565b60405161018e9190612d00565b60405180910390f35b3480156101a357600080fd5b506101be60048036038101906101b9919061272f565b610677565b6040516101cb9190612c7e565b60405180910390f35b3480156101e057600080fd5b506101fb60048036038101906101f69190612660565b6106fc565b005b34801561020957600080fd5b50610212610814565b60405161021f9190612d00565b60405180910390f35b34801561023457600080fd5b5061024f600480360381019061024a9190612506565b6108a2565b005b34801561025d57600080fd5b50610266610902565b005b34801561027457600080fd5b5061028f600480360381019061028a9190612781565b610a63565b005b34801561029d57600080fd5b506102b860048036038101906102b39190612506565b610b3a565b005b3480156102c657600080fd5b506102e160048036038101906102dc919061272f565b610b5a565b005b3480156102ef57600080fd5b5061030a6004803603810190610305919061272f565b610bf4565b6040516103179190612c7e565b60405180910390f35b34801561032c57600080fd5b50610347600480360381019061034291906124a1565b610ca6565b6040516103549190613072565b60405180910390f35b34801561036957600080fd5b50610384600480360381019061037f91906126ee565b610d5e565b005b34801561039257600080fd5b5061039b610e08565b6040516103a89190612d00565b60405180910390f35b3480156103bd57600080fd5b506103c6610e9a565b6040516103d39190613072565b60405180910390f35b3480156103e857600080fd5b5061040360048036038101906103fe91906125d0565b610f5f565b005b34801561041157600080fd5b5061042c60048036038101906104279190612555565b610f75565b005b34801561043a57600080fd5b506104556004803603810190610450919061272f565b610fd7565b6040516104629190612d00565b60405180910390f35b6104856004803603810190610480919061260c565b611129565b6040516104929190613072565b60405180910390f35b3480156104a757600080fd5b506104c260048036038101906104bd91906124ca565b611310565b6040516104cf9190612ce5565b60405180910390f35b3480156104e457600080fd5b506104ed6113a4565b6040516104fa9190612c7e565b60405180910390f35b60007f80ac58cd000000000000000000000000000000000000000000000000000000007bffffffffffffffffffffffffffffffffffffffffffffffffffffffff1916827bffffffffffffffffffffffffffffffffffffffffffffffffffffffff191614806105ce57507f5b5e139f000000000000000000000000000000000000000000000000000000007bffffffffffffffffffffffffffffffffffffffffffffffffffffffff1916827bffffffffffffffffffffffffffffffffffffffffffffffffffffffff1916145b806105de57506105dd826113ca565b5b9050919050565b6060600080546105f49061333d565b80601f01602080910402602001604051908101604052809291908181526020018280546106209061333d565b801561066d5780601f106106425761010080835404028352916020019161066d565b820191906000526020600020905b81548152906001019060200180831161065057829003601f168201915b5050505050905090565b600061068282611434565b6106c1576040517f08c379a00000000000000000000000000000000000000000000000000000000081526004016106b890612fd2565b60405180910390fd5b6004600083815260200190815260200160002060009054906101000a900473ffffffffffffffffffffffffffffffffffffffff169050919050565b600061070782610bf4565b90508073ffffffffffffffffffffffffffffffffffffffff168373ffffffffffffffffffffffffffffffffffffffff161415610778576040517f08c379a000000000000000000000000000000000000000000000000000000000815260040161076f90613012565b60405180910390fd5b8073ffffffffffffffffffffffffffffffffffffffff166107976114a0565b73ffffffffffffffffffffffffffffffffffffffff1614806107c657506107c5816107c06114a0565b611310565b5b610805576040517f08c379a00000000000000000000000000000000000000000000000000000000081526004016107fc90612ef2565b60405180910390fd5b61080f83836114a8565b505050565b600c80546108219061333d565b80601f016020809104026020016040519081016040528092919081815260200182805461084d9061333d565b801561089a5780601f1061086f5761010080835404028352916020019161089a565b820191906000526020600020905b81548152906001019060200180831161087d57829003601f168201915b505050505081565b6108b36108ad6114a0565b82611561565b6108f2576040517f08c379a00000000000000000000000000000000000000000000000000000000081526004016108e990613032565b60405180910390fd5b6108fd83838361163f565b505050565b600760009054906101000a900473ffffffffffffffffffffffffffffffffffffffff1673ffffffffffffffffffffffffffffffffffffffff163373ffffffffffffffffffffffffffffffffffffffff1614610992576040517f08c379a000000000000000000000000000000000000000000000000000000000815260040161098990612f12565b60405180910390fd5b6000600760009054906101000a900473ffffffffffffffffffffffffffffffffffffffff1673ffffffffffffffffffffffffffffffffffffffff16476040516109da90612c69565b60006040518083038185875af1925050503d8060008114610a17576040519150601f19603f3d011682016040523d82523d6000602084013e610a1c565b606091505b5050905080610a60576040517f08c379a0000000000000000000000000000000000000000000000000000000008152600401610a5790612e52565b60405180910390fd5b50565b600860009054906101000a900473ffffffffffffffffffffffffffffffffffffffff1673ffffffffffffffffffffffffffffffffffffffff163373ffffffffffffffffffffffffffffffffffffffff1614610af3576040517f08c379a0000000000000000000000000000000000000000000000000000000008152600401610aea90612ed2565b60405180910390fd5b610afd82826118a6565b7f6cf6b9ad03c115e67bcbd8096692d400e58bd03076049f0f767f759c06e577648282604051610b2e92919061308d565b60405180910390a15050565b610b5583838360405180602001604052806000815250610f75565b505050565b600760009054906101000a900473ffffffffffffffffffffffffffffffffffffffff1673ffffffffffffffffffffffffffffffffffffffff163373ffffffffffffffffffffffffffffffffffffffff1614610bea576040517f08c379a0000000000000000000000000000000000000000000000000000000008152600401610be190612f12565b60405180910390fd5b80600a8190555050565b6000806002600084815260200190815260200160002060009054906101000a900473ffffffffffffffffffffffffffffffffffffffff169050600073ffffffffffffffffffffffffffffffffffffffff168173ffffffffffffffffffffffffffffffffffffffff161415610c9d576040517f08c379a0000000000000000000000000000000000000000000000000000000008152600401610c9490612f52565b60405180910390fd5b80915050919050565b60008073ffffffffffffffffffffffffffffffffffffffff168273ffffffffffffffffffffffffffffffffffffffff161415610d17576040517f08c379a0000000000000000000000000000000000000000000000000000000008152600401610d0e90612f32565b60405180910390fd5b600360008373ffffffffffffffffffffffffffffffffffffffff1673ffffffffffffffffffffffffffffffffffffffff168152602001908152602001600020549050919050565b600760009054906101000a900473ffffffffffffffffffffffffffffffffffffffff1673ffffffffffffffffffffffffffffffffffffffff163373ffffffffffffffffffffffffffffffffffffffff1614610dee576040517f08c379a0000000000000000000000000000000000000000000000000000000008152600401610de590612f12565b60405180910390fd5b80600c9080519060200190610e049291906122b0565b5050565b606060018054610e179061333d565b80601f0160208091040260200160405190810160405280929190818152602001828054610e439061333d565b8015610e905780601f10610e6557610100808354040283529160200191610e90565b820191906000526020600020905b815481529060010190602001808311610e7357829003601f168201915b5050505050905090565b600080600860009054906101000a900473ffffffffffffffffffffffffffffffffffffffff16905060008173ffffffffffffffffffffffffffffffffffffffff16634f36a1846040518163ffffffff1660e01b815260040160206040518083038186803b158015610f0a57600080fd5b505afa158015610f1e573d6000803e3d6000fd5b505050506040513d601f19601f82011682018060405250810190610f429190612758565b9050600081600a54610f5491906131a7565b905080935050505090565b610f71610f6a6114a0565b838361191a565b5050565b610f86610f806114a0565b83611561565b610fc5576040517f08c379a0000000000000000000000000000000000000000000000000000000008152600401610fbc90613032565b60405180910390fd5b610fd184848484611a87565b50505050565b6060610fe282611434565b611021576040517f08c379a000000000000000000000000000000000000000000000000000000000815260040161101890612fb2565b60405180910390fd5b60006006600084815260200190815260200160002080546110419061333d565b80601f016020809104026020016040519081016040528092919081815260200182805461106d9061333d565b80156110ba5780601f1061108f576101008083540402835291602001916110ba565b820191906000526020600020905b81548152906001019060200180831161109d57829003601f168201915b5050505050905060006110cb611ae3565b90506000815114156110e1578192505050611124565b6000825111156111165780826040516020016110fe929190612c45565b60405160208183030381529060405292505050611124565b61111f84611afa565b925050505b919050565b6000611133610e9a565b341015611175576040517f08c379a000000000000000000000000000000000000000000000000000000000815260040161116c90613052565b60405180910390fd5b60096000815480929190611188906133a0565b919050555061119983600954611ba1565b6000600860009054906101000a900473ffffffffffffffffffffffffffffffffffffffff16905060008173ffffffffffffffffffffffffffffffffffffffff16634f36a1846040518163ffffffff1660e01b815260040160206040518083038186803b15801561120857600080fd5b505afa15801561121c573d6000803e3d6000fd5b505050506040513d601f19601f820116820180604052508101906112409190612758565b90508173ffffffffffffffffffffffffffffffffffffffff166301f81fa482600c876009548a6040516020016112769190612c2a565b60405160208183030381529060405260016040518763ffffffff1660e01b81526004016112a7959493929190612d22565b6000604051808303818588803b1580156112c057600080fd5b505af11580156112d4573d6000803e3d6000fd5b505050505083600d6000600954815260200190815260200160002090805190602001906113029291906122b0565b506009549250505092915050565b6000600560008473ffffffffffffffffffffffffffffffffffffffff1673ffffffffffffffffffffffffffffffffffffffff16815260200190815260200160002060008373ffffffffffffffffffffffffffffffffffffffff1673ffffffffffffffffffffffffffffffffffffffff16815260200190815260200160002060009054906101000a900460ff16905092915050565b600860009054906101000a900473ffffffffffffffffffffffffffffffffffffffff1681565b60007f01ffc9a7000000000000000000000000000000000000000000000000000000007bffffffffffffffffffffffffffffffffffffffffffffffffffffffff1916827bffffffffffffffffffffffffffffffffffffffffffffffffffffffff1916149050919050565b60008073ffffffffffffffffffffffffffffffffffffffff166002600084815260200190815260200160002060009054906101000a900473ffffffffffffffffffffffffffffffffffffffff1673ffffffffffffffffffffffffffffffffffffffff1614159050919050565b600033905090565b816004600083815260200190815260200160002060006101000a81548173ffffffffffffffffffffffffffffffffffffffff021916908373ffffffffffffffffffffffffffffffffffffffff160217905550808273ffffffffffffffffffffffffffffffffffffffff1661151b83610bf4565b73ffffffffffffffffffffffffffffffffffffffff167f8c5be1e5ebec7d5bd14f71427d1e84f3dd0314c0f7b2291e5b200ac8c7c3b92560405160405180910390a45050565b600061156c82611434565b6115ab576040517f08c379a00000000000000000000000000000000000000000000000000000000081526004016115a290612eb2565b60405180910390fd5b60006115b683610bf4565b90508073ffffffffffffffffffffffffffffffffffffffff168473ffffffffffffffffffffffffffffffffffffffff16148061162557508373ffffffffffffffffffffffffffffffffffffffff1661160d84610677565b73ffffffffffffffffffffffffffffffffffffffff16145b8061163657506116358185611310565b5b91505092915050565b8273ffffffffffffffffffffffffffffffffffffffff1661165f82610bf4565b73ffffffffffffffffffffffffffffffffffffffff16146116b5576040517f08c379a00000000000000000000000000000000000000000000000000000000081526004016116ac90612e12565b60405180910390fd5b600073ffffffffffffffffffffffffffffffffffffffff168273ffffffffffffffffffffffffffffffffffffffff161415611725576040517f08c379a000000000000000000000000000000000000000000000000000000000815260040161171c90612e72565b60405180910390fd5b611730838383611d7b565b61173b6000826114a8565b6001600360008573ffffffffffffffffffffffffffffffffffffffff1673ffffffffffffffffffffffffffffffffffffffff168152602001908152602001600020600082825461178b919061322e565b925050819055506001600360008473ffffffffffffffffffffffffffffffffffffffff1673ffffffffffffffffffffffffffffffffffffffff16815260200190815260200160002060008282546117e291906131a7565b92505081905550816002600083815260200190815260200160002060006101000a81548173ffffffffffffffffffffffffffffffffffffffff021916908373ffffffffffffffffffffffffffffffffffffffff160217905550808273ffffffffffffffffffffffffffffffffffffffff168473ffffffffffffffffffffffffffffffffffffffff167fddf252ad1be2c89b69c2b068fc378daa952ba7f163c4a11628f55a4df523b3ef60405160405180910390a46118a1838383611f44565b505050565b6118af82611434565b6118ee576040517f08c379a00000000000000000000000000000000000000000000000000000000081526004016118e590612f72565b60405180910390fd5b806006600084815260200190815260200160002090805190602001906119159291906122b0565b505050565b8173ffffffffffffffffffffffffffffffffffffffff168373ffffffffffffffffffffffffffffffffffffffff161415611989576040517f08c379a000000000000000000000000000000000000000000000000000000000815260040161198090612e92565b60405180910390fd5b80600560008573ffffffffffffffffffffffffffffffffffffffff1673ffffffffffffffffffffffffffffffffffffffff16815260200190815260200160002060008473ffffffffffffffffffffffffffffffffffffffff1673ffffffffffffffffffffffffffffffffffffffff16815260200190815260200160002060006101000a81548160ff0219169083151502179055508173ffffffffffffffffffffffffffffffffffffffff168373ffffffffffffffffffffffffffffffffffffffff167f17307eab39ab6107e8899845ad3d59bd9653f200f220920489ca2b5937696c3183604051611a7a9190612ce5565b60405180910390a3505050565b611a9284848461163f565b611a9e84848484611f49565b611add576040517f08c379a0000000000000000000000000000000000000000000000000000000008152600401611ad490612df2565b60405180910390fd5b50505050565b606060405180602001604052806000815250905090565b6060611b0582611434565b611b44576040517f08c379a0000000000000000000000000000000000000000000000000000000008152600401611b3b90612ff2565b60405180910390fd5b6000611b4e611ae3565b90506000815111611b6e5760405180602001604052806000815250611b99565b80611b78846120e0565b604051602001611b89929190612c45565b6040516020818303038152906040525b915050919050565b600073ffffffffffffffffffffffffffffffffffffffff168273ffffffffffffffffffffffffffffffffffffffff161415611c11576040517f08c379a0000000000000000000000000000000000000000000000000000000008152600401611c0890612f92565b60405180910390fd5b611c1a81611434565b15611c5a576040517f08c379a0000000000000000000000000000000000000000000000000000000008152600401611c5190612e32565b60405180910390fd5b611c6660008383611d7b565b6001600360008473ffffffffffffffffffffffffffffffffffffffff1673ffffffffffffffffffffffffffffffffffffffff1681526020019081526020016000206000828254611cb691906131a7565b92505081905550816002600083815260200190815260200160002060006101000a81548173ffffffffffffffffffffffffffffffffffffffff021916908373ffffffffffffffffffffffffffffffffffffffff160217905550808273ffffffffffffffffffffffffffffffffffffffff16600073ffffffffffffffffffffffffffffffffffffffff167fddf252ad1be2c89b69c2b068fc378daa952ba7f163c4a11628f55a4df523b3ef60405160405180910390a4611d7760008383611f44565b5050565b600073ffffffffffffffffffffffffffffffffffffffff168373ffffffffffffffffffffffffffffffffffffffff1614158015611de55750600073ffffffffffffffffffffffffffffffffffffffff168273ffffffffffffffffffffffffffffffffffffffff1614155b15611f3f576000600860009054906101000a900473ffffffffffffffffffffffffffffffffffffffff16905060008173ffffffffffffffffffffffffffffffffffffffff16634f36a1846040518163ffffffff1660e01b815260040160206040518083038186803b158015611e5957600080fd5b505afa158015611e6d573d6000803e3d6000fd5b505050506040513d601f19601f82011682018060405250810190611e919190612758565b90508173ffffffffffffffffffffffffffffffffffffffff166301f81fa482600c600d600060095481526020019081526020016000208789604051602001611ed99190612c2a565b60405160208183030381529060405260016040518763ffffffff1660e01b8152600401611f0a959493929190612d8a565b6000604051808303818588803b158015611f2357600080fd5b505af1158015611f37573d6000803e3d6000fd5b505050505050505b505050565b505050565b6000611f6a8473ffffffffffffffffffffffffffffffffffffffff1661228d565b156120d3578373ffffffffffffffffffffffffffffffffffffffff1663150b7a02611f936114a0565b8786866040518563ffffffff1660e01b8152600401611fb59493929190612c99565b602060405180830381600087803b158015611fcf57600080fd5b505af192505050801561200057506040513d601f19601f82011682018060405250810190611ffd91906126c5565b60015b612083573d8060008114612030576040519150601f19603f3d011682016040523d82523d6000602084013e612035565b606091505b5060008151141561207b576040517f08c379a000000000000000000000000000000000000000000000000000000000815260040161207290612df2565b60405180910390fd5b805181602001fd5b63150b7a0260e01b7bffffffffffffffffffffffffffffffffffffffffffffffffffffffff1916817bffffffffffffffffffffffffffffffffffffffffffffffffffffffff1916149150506120d8565b600190505b949350505050565b60606000821415612128576040518060400160405280600181526020017f30000000000000000000000000000000000000000000000000000000000000008152509050612288565b600082905060005b6000821461215a578080612143906133a0565b915050600a8261215391906131fd565b9150612130565b60008167ffffffffffffffff81111561219c577f4e487b7100000000000000000000000000000000000000000000000000000000600052604160045260246000fd5b6040519080825280601f01601f1916602001820160405280156121ce5781602001600182028036833780820191505090505b5090505b60008514612281576001826121e7919061322e565b9150600a856121f6919061340d565b603061220291906131a7565b60f81b81838151811061223e577f4e487b7100000000000000000000000000000000000000000000000000000000600052603260045260246000fd5b60200101907effffffffffffffffffffffffffffffffffffffffffffffffffffffffffffff1916908160001a905350600a8561227a91906131fd565b94506121d2565b8093505050505b919050565b6000808273ffffffffffffffffffffffffffffffffffffffff163b119050919050565b8280546122bc9061333d565b90600052602060002090601f0160209004810192826122de5760008555612325565b82601f106122f757805160ff1916838001178555612325565b82800160010185558215612325579182015b82811115612324578251825591602001919060010190612309565b5b5090506123329190612336565b5090565b5b8082111561234f576000816000905550600101612337565b5090565b6000612366612361846130e2565b6130bd565b90508281526020810184848401111561237e57600080fd5b6123898482856132fb565b509392505050565b60006123a461239f84613113565b6130bd565b9050828152602081018484840111156123bc57600080fd5b6123c78482856132fb565b509392505050565b6000813590506123de81613a80565b92915050565b6000813590506123f381613a97565b92915050565b60008135905061240881613aae565b92915050565b60008151905061241d81613aae565b92915050565b600082601f83011261243457600080fd5b8135612444848260208601612353565b91505092915050565b600082601f83011261245e57600080fd5b813561246e848260208601612391565b91505092915050565b60008135905061248681613ac5565b92915050565b60008151905061249b81613ac5565b92915050565b6000602082840312156124b357600080fd5b60006124c1848285016123cf565b91505092915050565b600080604083850312156124dd57600080fd5b60006124eb858286016123cf565b92505060206124fc858286016123cf565b9150509250929050565b60008060006060848603121561251b57600080fd5b6000612529868287016123cf565b935050602061253a868287016123cf565b925050604061254b86828701612477565b9150509250925092565b6000806000806080858703121561256b57600080fd5b6000612579878288016123cf565b945050602061258a878288016123cf565b935050604061259b87828801612477565b925050606085013567ffffffffffffffff8111156125b857600080fd5b6125c487828801612423565b91505092959194509250565b600080604083850312156125e357600080fd5b60006125f1858286016123cf565b9250506020612602858286016123e4565b9150509250929050565b6000806040838503121561261f57600080fd5b600061262d858286016123cf565b925050602083013567ffffffffffffffff81111561264a57600080fd5b6126568582860161244d565b9150509250929050565b6000806040838503121561267357600080fd5b6000612681858286016123cf565b925050602061269285828601612477565b9150509250929050565b6000602082840312156126ae57600080fd5b60006126bc848285016123f9565b91505092915050565b6000602082840312156126d757600080fd5b60006126e58482850161240e565b91505092915050565b60006020828403121561270057600080fd5b600082013567ffffffffffffffff81111561271a57600080fd5b6127268482850161244d565b91505092915050565b60006020828403121561274157600080fd5b600061274f84828501612477565b91505092915050565b60006020828403121561276a57600080fd5b60006127788482850161248c565b91505092915050565b6000806040838503121561279457600080fd5b60006127a285828601612477565b925050602083013567ffffffffffffffff8111156127bf57600080fd5b6127cb8582860161244d565b9150509250929050565b6127de81613262565b82525050565b6127f56127f082613262565b6133e9565b82525050565b61280481613274565b82525050565b600061281582613159565b61281f818561316f565b935061282f81856020860161330a565b61283881613529565b840191505092915050565b61284c816132e9565b82525050565b600061285d82613164565b612867818561318b565b935061287781856020860161330a565b61288081613529565b840191505092915050565b600061289682613164565b6128a0818561319c565b93506128b081856020860161330a565b80840191505092915050565b600081546128c98161333d565b6128d3818661318b565b945060018216600081146128ee576001811461290057612933565b60ff1983168652602086019350612933565b61290985613144565b60005b8381101561292b5781548189015260018201915060208101905061290c565b808801955050505b50505092915050565b600061294960328361318b565b915061295482613547565b604082019050919050565b600061296c60258361318b565b915061297782613596565b604082019050919050565b600061298f601c8361318b565b915061299a826135e5565b602082019050919050565b60006129b2600f8361318b565b91506129bd8261360e565b602082019050919050565b60006129d560248361318b565b91506129e082613637565b604082019050919050565b60006129f860198361318b565b9150612a0382613686565b602082019050919050565b6000612a1b602c8361318b565b9150612a26826136af565b604082019050919050565b6000612a3e60128361318b565b9150612a49826136fe565b602082019050919050565b6000612a6160388361318b565b9150612a6c82613727565b604082019050919050565b6000612a84600d8361318b565b9150612a8f82613776565b602082019050919050565b6000612aa7602a8361318b565b9150612ab28261379f565b604082019050919050565b6000612aca60298361318b565b9150612ad5826137ee565b604082019050919050565b6000612aed602e8361318b565b9150612af88261383d565b604082019050919050565b6000612b1060208361318b565b9150612b1b8261388c565b602082019050919050565b6000612b3360318361318b565b9150612b3e826138b5565b604082019050919050565b6000612b56602c8361318b565b9150612b6182613904565b604082019050919050565b6000612b79602f8361318b565b9150612b8482613953565b604082019050919050565b6000612b9c60218361318b565b9150612ba7826139a2565b604082019050919050565b6000612bbf600083613180565b9150612bca826139f1565b600082019050919050565b6000612be260318361318b565b9150612bed826139f4565b604082019050919050565b6000612c0560208361318b565b9150612c1082613a43565b602082019050919050565b612c24816132df565b82525050565b6000612c3682846127e4565b60148201915081905092915050565b6000612c51828561288b565b9150612c5d828461288b565b91508190509392505050565b6000612c7482612bb2565b9150819050919050565b6000602082019050612c9360008301846127d5565b92915050565b6000608082019050612cae60008301876127d5565b612cbb60208301866127d5565b612cc86040830185612c1b565b8181036060830152612cda818461280a565b905095945050505050565b6000602082019050612cfa60008301846127fb565b92915050565b60006020820190508181036000830152612d1a8184612852565b905092915050565b600060a0820190508181036000830152612d3c81886128bc565b90508181036020830152612d508187612852565b9050612d5f6040830186612c1b565b8181036060830152612d71818561280a565b9050612d806080830184612843565b9695505050505050565b600060a0820190508181036000830152612da481886128bc565b90508181036020830152612db881876128bc565b9050612dc76040830186612c1b565b8181036060830152612dd9818561280a565b9050612de86080830184612843565b9695505050505050565b60006020820190508181036000830152612e0b8161293c565b9050919050565b60006020820190508181036000830152612e2b8161295f565b9050919050565b60006020820190508181036000830152612e4b81612982565b9050919050565b60006020820190508181036000830152612e6b816129a5565b9050919050565b60006020820190508181036000830152612e8b816129c8565b9050919050565b60006020820190508181036000830152612eab816129eb565b9050919050565b60006020820190508181036000830152612ecb81612a0e565b9050919050565b60006020820190508181036000830152612eeb81612a31565b9050919050565b60006020820190508181036000830152612f0b81612a54565b9050919050565b60006020820190508181036000830152612f2b81612a77565b9050919050565b60006020820190508181036000830152612f4b81612a9a565b9050919050565b60006020820190508181036000830152612f6b81612abd565b9050919050565b60006020820190508181036000830152612f8b81612ae0565b9050919050565b60006020820190508181036000830152612fab81612b03565b9050919050565b60006020820190508181036000830152612fcb81612b26565b9050919050565b60006020820190508181036000830152612feb81612b49565b9050919050565b6000602082019050818103600083015261300b81612b6c565b9050919050565b6000602082019050818103600083015261302b81612b8f565b9050919050565b6000602082019050818103600083015261304b81612bd5565b9050919050565b6000602082019050818103600083015261306b81612bf8565b9050919050565b60006020820190506130876000830184612c1b565b92915050565b60006040820190506130a26000830185612c1b565b81810360208301526130b48184612852565b90509392505050565b60006130c76130d8565b90506130d3828261336f565b919050565b6000604051905090565b600067ffffffffffffffff8211156130fd576130fc6134fa565b5b61310682613529565b9050602081019050919050565b600067ffffffffffffffff82111561312e5761312d6134fa565b5b61313782613529565b9050602081019050919050565b60008190508160005260206000209050919050565b600081519050919050565b600081519050919050565b600082825260208201905092915050565b600081905092915050565b600082825260208201905092915050565b600081905092915050565b60006131b2826132df565b91506131bd836132df565b9250827fffffffffffffffffffffffffffffffffffffffffffffffffffffffffffffffff038211156131f2576131f161343e565b5b828201905092915050565b6000613208826132df565b9150613213836132df565b9250826132235761322261346d565b5b828204905092915050565b6000613239826132df565b9150613244836132df565b9250828210156132575761325661343e565b5b828203905092915050565b600061326d826132bf565b9050919050565b60008115159050919050565b60007fffffffff0000000000000000000000000000000000000000000000000000000082169050919050565b60008190506132ba82613a6c565b919050565b600073ffffffffffffffffffffffffffffffffffffffff82169050919050565b6000819050919050565b60006132f4826132ac565b9050919050565b82818337600083830152505050565b60005b8381101561332857808201518184015260208101905061330d565b83811115613337576000848401525b50505050565b6000600282049050600182168061335557607f821691505b60208210811415613369576133686134cb565b5b50919050565b61337882613529565b810181811067ffffffffffffffff82111715613397576133966134fa565b5b80604052505050565b60006133ab826132df565b91507fffffffffffffffffffffffffffffffffffffffffffffffffffffffffffffffff8214156133de576133dd61343e565b5b600182019050919050565b60006133f4826133fb565b9050919050565b60006134068261353a565b9050919050565b6000613418826132df565b9150613423836132df565b9250826134335761343261346d565b5b828206905092915050565b7f4e487b7100000000000000000000000000000000000000000000000000000000600052601160045260246000fd5b7f4e487b7100000000000000000000000000000000000000000000000000000000600052601260045260246000fd5b7f4e487b7100000000000000000000000000000000000000000000000000000000600052602160045260246000fd5b7f4e487b7100000000000000000000000000000000000000000000000000000000600052602260045260246000fd5b7f4e487b7100000000000000000000000000000000000000000000000000000000600052604160045260246000fd5b6000601f19601f8301169050919050565b60008160601b9050919050565b7f4552433732313a207472616e7366657220746f206e6f6e20455243373231526560008201527f63656976657220696d706c656d656e7465720000000000000000000000000000602082015250565b7f4552433732313a207472616e736665722066726f6d20696e636f72726563742060008201527f6f776e6572000000000000000000000000000000000000000000000000000000602082015250565b7f4552433732313a20746f6b656e20616c7265616479206d696e74656400000000600082015250565b7f5769746864726177206661696c65640000000000000000000000000000000000600082015250565b7f4552433732313a207472616e7366657220746f20746865207a65726f2061646460008201527f7265737300000000000000000000000000000000000000000000000000000000602082015250565b7f4552433732313a20617070726f766520746f2063616c6c657200000000000000600082015250565b7f4552433732313a206f70657261746f7220717565727920666f72206e6f6e657860008201527f697374656e7420746f6b656e0000000000000000000000000000000000000000602082015250565b7f4e6f74204d4c20636f6f7264696e61746f720000000000000000000000000000600082015250565b7f4552433732313a20617070726f76652063616c6c6572206973206e6f74206f7760008201527f6e6572206e6f7220617070726f76656420666f7220616c6c0000000000000000602082015250565b7f4e6f7420746865206f776e657200000000000000000000000000000000000000600082015250565b7f4552433732313a2062616c616e636520717565727920666f7220746865207a6560008201527f726f206164647265737300000000000000000000000000000000000000000000602082015250565b7f4552433732313a206f776e657220717565727920666f72206e6f6e657869737460008201527f656e7420746f6b656e0000000000000000000000000000000000000000000000602082015250565b7f45524337323155524953746f726167653a2055524920736574206f66206e6f6e60008201527f6578697374656e7420746f6b656e000000000000000000000000000000000000602082015250565b7f4552433732313a206d696e7420746f20746865207a65726f2061646472657373600082015250565b7f45524337323155524953746f726167653a2055524920717565727920666f722060008201527f6e6f6e6578697374656e7420746f6b656e000000000000000000000000000000602082015250565b7f4552433732313a20617070726f76656420717565727920666f72206e6f6e657860008201527f697374656e7420746f6b656e0000000000000000000000000000000000000000602082015250565b7f4552433732314d657461646174613a2055524920717565727920666f72206e6f60008201527f6e6578697374656e7420746f6b656e0000000000000000000000000000000000602082015250565b7f4552433732313a20617070726f76616c20746f2063757272656e74206f776e6560008201527f7200000000000000000000000000000000000000000000000000000000000000602082015250565b50565b7f4552433732313a207472616e736665722063616c6c6572206973206e6f74206f60008201527f776e6572206e6f7220617070726f766564000000000000000000000000000000602082015250565b7f496e73756666696369656e74207061796d656e7420666f72206d696e74696e67600082015250565b60028110613a7d57613a7c61349c565b5b50565b613a8981613262565b8114613a9457600080fd5b50565b613aa081613274565b8114613aab57600080fd5b50565b613ab781613280565b8114613ac257600080fd5b50565b613ace816132df565b8114613ad957600080fd5b5056fea26469706673582212204eb58a5e4cb932ff3990218e81fb2164ed0662238db09e411a1515fb480f509b64736f6c63430008040033",
  "linkReferences": {},
  "deployedLinkReferences": {}
}