{
  "_format": "hh-sol-artifact-1",
  "contractName": "EvolvingNFT",
  "sourceName": "contracts/EvolvingNFT.sol",
  "abi": [
    {
      "inputs": [
        {
          "internalType": "address",
          "name": "owner_",
          "type": "address"
        },
        {
          "internalType": "address",
          "name": "model_",
          "type": "address"
        },
        {
          "internalType": "uint256",
          "name": "price_",
          "type": "uint256"
        },
        {
          "internalType": "string",
          "name": "loadingImg_",
          "type": "string"
        }
      ],
      "stateMutability": "nonpayable",
      "type": "constructor"
    },
    {
      "anonymous": false,
      "inputs": [
        {
          "indexed": true,
          "internalType": "address",
          "name": "owner",
          "type": "address"
        },
        {
          "indexed": true,
          "internalType": "address",
          "name": "approved",
          "type": "address"
        },
        {
          "indexed": true,
          "internalType": "uint256",
          "name": "tokenId",
          "type": "uint256"
        }
      ],
      "name": "Approval",
      "type": "event"
    },
    {
      "anonymous": false,
      "inputs": [
        {
          "indexed": true,
          "internalType": "address",
          "name": "owner",
          "type": "address"
        },
        {
          "indexed": true,
          "internalType": "address",
          "name": "operator",
          "type": "address"
        },
        {
          "indexed": false,
          "internalType": "bool",
          "name": "approved",
          "type": "bool"
        }
      ],
      "name": "ApprovalForAll",
      "type": "event"
    },
    {
      "anonymous": false,
      "inputs": [
        {
          "indexed": false,
          "internalType": "uint256",
          "name": "tokenId",
          "type": "uint256"
        },
        {
          "indexed": false,
          "internalType": "string",
          "name": "tokenURI",
          "type": "string"
        }
      ],
      "name": "TokenUriSet",
      "type": "event"
    },
    {
      "anonymous": false,
      "inputs": [
        {
          "indexed": true,
          "internalType": "address",
          "name": "from",
          "type": "address"
        },
        {
          "indexed": true,
          "internalType": "address",
          "name": "to",
          "type": "address"
        },
        {
          "indexed": true,
          "internalType": "uint256",
          "name": "tokenId",
          "type": "uint256"
        }
      ],
      "name": "Transfer",
      "type": "event"
    },
    {
      "inputs": [
        {
          "internalType": "address",
          "name": "to",
          "type": "address"
        },
        {
          "internalType": "uint256",
          "name": "tokenId",
          "type": "uint256"
        }
      ],
      "name": "approve",
      "outputs": [],
      "stateMutability": "nonpayable",
      "type": "function"
    },
    {
      "inputs": [
        {
          "internalType": "address",
          "name": "owner",
          "type": "address"
        }
      ],
      "name": "balanceOf",
      "outputs": [
        {
          "internalType": "uint256",
          "name": "",
          "type": "uint256"
        }
      ],
      "stateMutability": "view",
      "type": "function"
    },
    {
      "inputs": [],
      "name": "currentTokenId",
      "outputs": [
        {
          "internalType": "uint256",
          "name": "",
          "type": "uint256"
        }
      ],
      "stateMutability": "view",
      "type": "function"
    },
    {
      "inputs": [
        {
          "internalType": "uint256",
          "name": "tokenId",
          "type": "uint256"
        }
      ],
      "name": "getApproved",
      "outputs": [
        {
          "internalType": "address",
          "name": "",
          "type": "address"
        }
      ],
      "stateMutability": "view",
      "type": "function"
    },
    {
      "inputs": [
        {
          "internalType": "address",
          "name": "owner",
          "type": "address"
        },
        {
          "internalType": "address",
          "name": "operator",
          "type": "address"
        }
      ],
      "name": "isApprovedForAll",
      "outputs": [
        {
          "internalType": "bool",
          "name": "",
          "type": "bool"
        }
      ],
      "stateMutability": "view",
      "type": "function"
    },
    {
      "inputs": [],
      "name": "loadingImg",
      "outputs": [
        {
          "internalType": "string",
          "name": "",
          "type": "string"
        }
      ],
      "stateMutability": "view",
      "type": "function"
    },
    {
      "inputs": [
        {
          "internalType": "address",
          "name": "to",
          "type": "address"
        },
        {
          "internalType": "string",
          "name": "prompt",
          "type": "string"
        }
      ],
      "name": "mint",
      "outputs": [
        {
          "internalType": "uint256",
          "name": "",
          "type": "uint256"
        }
      ],
      "stateMutability": "payable",
      "type": "function"
    },
    {
      "inputs": [],
      "name": "model",
      "outputs": [
        {
          "internalType": "address",
          "name": "",
          "type": "address"
        }
      ],
      "stateMutability": "view",
      "type": "function"
    },
    {
      "inputs": [],
      "name": "name",
      "outputs": [
        {
          "internalType": "string",
          "name": "",
          "type": "string"
        }
      ],
      "stateMutability": "view",
      "type": "function"
    },
    {
      "inputs": [
        {
          "internalType": "uint256",
          "name": "tokenId",
          "type": "uint256"
        }
      ],
      "name": "ownerOf",
      "outputs": [
        {
          "internalType": "address",
          "name": "",
          "type": "address"
        }
      ],
      "stateMutability": "view",
      "type": "function"
    },
    {
      "inputs": [],
      "name": "price",
      "outputs": [
        {
          "internalType": "uint256",
          "name": "",
          "type": "uint256"
        }
      ],
      "stateMutability": "view",
      "type": "function"
    },
    {
      "inputs": [
        {
          "internalType": "address",
          "name": "from",
          "type": "address"
        },
        {
          "internalType": "address",
          "name": "to",
          "type": "address"
        },
        {
          "internalType": "uint256",
          "name": "tokenId",
          "type": "uint256"
        }
      ],
      "name": "safeTransferFrom",
      "outputs": [],
      "stateMutability": "nonpayable",
      "type": "function"
    },
    {
      "inputs": [
        {
          "internalType": "address",
          "name": "from",
          "type": "address"
        },
        {
          "internalType": "address",
          "name": "to",
          "type": "address"
        },
        {
          "internalType": "uint256",
          "name": "tokenId",
          "type": "uint256"
        },
        {
          "internalType": "bytes",
          "name": "_data",
          "type": "bytes"
        }
      ],
      "name": "safeTransferFrom",
      "outputs": [],
      "stateMutability": "nonpayable",
      "type": "function"
    },
    {
      "inputs": [
        {
          "internalType": "address",
          "name": "operator",
          "type": "address"
        },
        {
          "internalType": "bool",
          "name": "approved",
          "type": "bool"
        }
      ],
      "name": "setApprovalForAll",
      "outputs": [],
      "stateMutability": "nonpayable",
      "type": "function"
    },
    {
      "inputs": [
        {
          "internalType": "string",
          "name": "newLoadingImg",
          "type": "string"
        }
      ],
      "name": "setLoadingImage",
      "outputs": [],
      "stateMutability": "nonpayable",
      "type": "function"
    },
    {
      "inputs": [
        {
          "internalType": "uint256",
          "name": "price_",
          "type": "uint256"
        }
      ],
      "name": "setMintPriceToThisContract",
      "outputs": [],
      "stateMutability": "nonpayable",
      "type": "function"
    },
    {
      "inputs": [
        {
          "internalType": "uint256",
          "name": "id",
          "type": "uint256"
        },
        {
          "internalType": "bytes",
          "name": "location",
          "type": "bytes"
        }
      ],
      "name": "setOutput",
      "outputs": [],
      "stateMutability": "nonpayable",
      "type": "function"
    },
    {
      "inputs": [
        {
          "internalType": "bytes4",
          "name": "interfaceId",
          "type": "bytes4"
        }
      ],
      "name": "supportsInterface",
      "outputs": [
        {
          "internalType": "bool",
          "name": "",
          "type": "bool"
        }
      ],
      "stateMutability": "view",
      "type": "function"
    },
    {
      "inputs": [],
      "name": "symbol",
      "outputs": [
        {
          "internalType": "string",
          "name": "",
          "type": "string"
        }
      ],
      "stateMutability": "view",
      "type": "function"
    },
    {
      "inputs": [
        {
          "internalType": "uint256",
          "name": "index",
          "type": "uint256"
        }
      ],
      "name": "tokenByIndex",
      "outputs": [
        {
          "internalType": "uint256",
          "name": "",
          "type": "uint256"
        }
      ],
      "stateMutability": "view",
      "type": "function"
    },
    {
      "inputs": [
        {
          "internalType": "uint256",
          "name": "",
          "type": "uint256"
        }
      ],
      "name": "tokenIdToDataInput",
      "outputs": [
        {
          "internalType": "string",
          "name": "",
          "type": "string"
        }
      ],
      "stateMutability": "view",
      "type": "function"
    },
    {
      "inputs": [
        {
          "internalType": "address",
          "name": "owner",
          "type": "address"
        },
        {
          "internalType": "uint256",
          "name": "index",
          "type": "uint256"
        }
      ],
      "name": "tokenOfOwnerByIndex",
      "outputs": [
        {
          "internalType": "uint256",
          "name": "",
          "type": "uint256"
        }
      ],
      "stateMutability": "view",
      "type": "function"
    },
    {
      "inputs": [
        {
          "internalType": "uint256",
          "name": "tokenId",
          "type": "uint256"
        }
      ],
      "name": "tokenURI",
      "outputs": [
        {
          "internalType": "string",
          "name": "",
          "type": "string"
        }
      ],
      "stateMutability": "view",
      "type": "function"
    },
    {
      "inputs": [],
      "name": "totalSupply",
      "outputs": [
        {
          "internalType": "uint256",
          "name": "",
          "type": "uint256"
        }
      ],
      "stateMutability": "view",
      "type": "function"
    },
    {
      "inputs": [
        {
          "internalType": "address",
          "name": "from",
          "type": "address"
        },
        {
          "internalType": "address",
          "name": "to",
          "type": "address"
        },
        {
          "internalType": "uint256",
          "name": "tokenId",
          "type": "uint256"
        }
      ],
      "name": "transferFrom",
      "outputs": [],
      "stateMutability": "nonpayable",
      "type": "function"
    },
    {
      "inputs": [],
      "name": "withdraw",
      "outputs": [],
      "stateMutability": "nonpayable",
      "type": "function"
    }
  ],
  "bytecode": "0x60806040523480156200001157600080fd5b5060405162004cde38038062004cde8339818101604052810190620000379190620002d3565b6040518060400160405280600b81526020017f45766f6c76696e674e46540000000000000000000000000000000000000000008152506040518060400160405280600381526020017f45564f00000000000000000000000000000000000000000000000000000000008152508160009080519060200190620000bb92919062000183565b508060019080519060200190620000d492919062000183565b50505083600b60006101000a81548173ffffffffffffffffffffffffffffffffffffffff021916908373ffffffffffffffffffffffffffffffffffffffff16021790555082600c60006101000a81548173ffffffffffffffffffffffffffffffffffffffff021916908373ffffffffffffffffffffffffffffffffffffffff16021790555081600e8190555080600f90805190602001906200017892919062000183565b50505050506200053a565b82805462000191906200042b565b90600052602060002090601f016020900481019282620001b5576000855562000201565b82601f10620001d057805160ff191683800117855562000201565b8280016001018555821562000201579182015b8281111562000200578251825591602001919060010190620001e3565b5b50905062000210919062000214565b5090565b5b808211156200022f57600081600090555060010162000215565b5090565b60006200024a620002448462000381565b62000358565b9050828152602081018484840111156200026357600080fd5b62000270848285620003f5565b509392505050565b600081519050620002898162000506565b92915050565b600082601f830112620002a157600080fd5b8151620002b384826020860162000233565b91505092915050565b600081519050620002cd8162000520565b92915050565b60008060008060808587031215620002ea57600080fd5b6000620002fa8782880162000278565b94505060206200030d8782880162000278565b93505060406200032087828801620002bc565b925050606085015167ffffffffffffffff8111156200033e57600080fd5b6200034c878288016200028f565b91505092959194509250565b60006200036462000377565b905062000372828262000461565b919050565b6000604051905090565b600067ffffffffffffffff8211156200039f576200039e620004c6565b5b620003aa82620004f5565b9050602081019050919050565b6000620003c482620003cb565b9050919050565b600073ffffffffffffffffffffffffffffffffffffffff82169050919050565b6000819050919050565b60005b8381101562000415578082015181840152602081019050620003f8565b8381111562000425576000848401525b50505050565b600060028204905060018216806200044457607f821691505b602082108114156200045b576200045a62000497565b5b50919050565b6200046c82620004f5565b810181811067ffffffffffffffff821117156200048e576200048d620004c6565b5b80604052505050565b7f4e487b7100000000000000000000000000000000000000000000000000000000600052602260045260246000fd5b7f4e487b7100000000000000000000000000000000000000000000000000000000600052604160045260246000fd5b6000601f19601f8301169050919050565b6200051181620003b7565b81146200051d57600080fd5b50565b6200052b81620003eb565b81146200053757600080fd5b50565b614794806200054a6000396000f3fe6080604052600436106101805760003560e01c806352620c35116100d1578063a035b1fe1161008a578063b88d4fde11610064578063b88d4fde14610593578063c87b56dd146105bc578063d0def521146105f9578063e985e9c51461062957610180565b8063a035b1fe14610516578063a22cb46514610541578063b698904a1461056a57610180565b806352620c35146103f45780636352211e1461041d57806370a082311461045a578063923539241461049757806395d89b41146104c05780639c6b1bda146104eb57610180565b8063112b91b91161013e5780632f745c59116101185780632f745c591461033a5780633ccfd60b1461037757806342842e0e1461038e5780634f6ccce7146103b757610180565b8063112b91b9146102a957806318160ddd146102e657806323b872dd1461031157610180565b80629a9b7b1461018557806301ffc9a7146101b057806306fdde03146101ed578063081812fc14610218578063095ea7b3146102555780630ad9d0521461027e575b600080fd5b34801561019157600080fd5b5061019a610666565b6040516101a79190613c56565b60405180910390f35b3480156101bc57600080fd5b506101d760048036038101906101d291906131b8565b61066c565b6040516101e49190613897565b60405180910390f35b3480156101f957600080fd5b5061020261068e565b60405161020f91906138b2565b60405180910390f35b34801561022457600080fd5b5061023f600480360381019061023a919061328c565b610720565b60405161024c9190613830565b60405180910390f35b34801561026157600080fd5b5061027c6004803603810190610277919061317c565b6107a5565b005b34801561028a57600080fd5b506102936108bd565b6040516102a09190613830565b60405180910390f35b3480156102b557600080fd5b506102d060048036038101906102cb919061328c565b6108e3565b6040516102dd91906138b2565b60405180910390f35b3480156102f257600080fd5b506102fb610983565b6040516103089190613c56565b60405180910390f35b34801561031d57600080fd5b5061033860048036038101906103339190613022565b610990565b005b34801561034657600080fd5b50610361600480360381019061035c919061317c565b6109f0565b60405161036e9190613c56565b60405180910390f35b34801561038357600080fd5b5061038c610a95565b005b34801561039a57600080fd5b506103b560048036038101906103b09190613022565b610bf6565b005b3480156103c357600080fd5b506103de60048036038101906103d9919061328c565b610c16565b6040516103eb9190613c56565b60405180910390f35b34801561040057600080fd5b5061041b6004803603810190610416919061328c565b610cad565b005b34801561042957600080fd5b50610444600480360381019061043f919061328c565b610d47565b6040516104519190613830565b60405180910390f35b34801561046657600080fd5b50610481600480360381019061047c9190612f94565b610df9565b60405161048e9190613c56565b60405180910390f35b3480156104a357600080fd5b506104be60048036038101906104b991906132de565b610eb1565b005b3480156104cc57600080fd5b506104d561102a565b6040516104e291906138b2565b60405180910390f35b3480156104f757600080fd5b506105006110bc565b60405161050d91906138b2565b60405180910390f35b34801561052257600080fd5b5061052b61114a565b6040516105389190613c56565b60405180910390f35b34801561054d57600080fd5b50610568600480360381019061056391906130ec565b61120f565b005b34801561057657600080fd5b50610591600480360381019061058c919061320a565b611225565b005b34801561059f57600080fd5b506105ba60048036038101906105b59190613071565b6112cf565b005b3480156105c857600080fd5b506105e360048036038101906105de919061328c565b611331565b6040516105f091906138b2565b60405180910390f35b610613600480360381019061060e9190613128565b611343565b6040516106209190613c56565b60405180910390f35b34801561063557600080fd5b50610650600480360381019061064b9190612fe6565b6115c6565b60405161065d9190613897565b60405180910390f35b600d5481565b60006106778261165a565b806106875750610686826116d4565b5b9050919050565b60606000805461069d90613f21565b80601f01602080910402602001604051908101604052809291908181526020018280546106c990613f21565b80156107165780601f106106eb57610100808354040283529160200191610716565b820191906000526020600020905b8154815290600101906020018083116106f957829003601f168201915b5050505050905090565b600061072b826117b6565b61076a576040517f08c379a000000000000000000000000000000000000000000000000000000000815260040161076190613b76565b60405180910390fd5b6004600083815260200190815260200160002060009054906101000a900473ffffffffffffffffffffffffffffffffffffffff169050919050565b60006107b082610d47565b90508073ffffffffffffffffffffffffffffffffffffffff168373ffffffffffffffffffffffffffffffffffffffff161415610821576040517f08c379a000000000000000000000000000000000000000000000000000000000815260040161081890613bb6565b60405180910390fd5b8073ffffffffffffffffffffffffffffffffffffffff16610840611822565b73ffffffffffffffffffffffffffffffffffffffff16148061086f575061086e81610869611822565b6115c6565b5b6108ae576040517f08c379a00000000000000000000000000000000000000000000000000000000081526004016108a590613a96565b60405180910390fd5b6108b8838361182a565b505050565b600c60009054906101000a900473ffffffffffffffffffffffffffffffffffffffff1681565b6010602052806000526040600020600091509050805461090290613f21565b80601f016020809104026020016040519081016040528092919081815260200182805461092e90613f21565b801561097b5780601f106109505761010080835404028352916020019161097b565b820191906000526020600020905b81548152906001019060200180831161095e57829003601f168201915b505050505081565b6000600880549050905090565b6109a161099b611822565b826118e3565b6109e0576040517f08c379a00000000000000000000000000000000000000000000000000000000081526004016109d790613bd6565b60405180910390fd5b6109eb8383836119c1565b505050565b60006109fb83610df9565b8210610a3c576040517f08c379a0000000000000000000000000000000000000000000000000000000008152600401610a3390613996565b60405180910390fd5b600660008473ffffffffffffffffffffffffffffffffffffffff1673ffffffffffffffffffffffffffffffffffffffff168152602001908152602001600020600083815260200190815260200160002054905092915050565b600b60009054906101000a900473ffffffffffffffffffffffffffffffffffffffff1673ffffffffffffffffffffffffffffffffffffffff163373ffffffffffffffffffffffffffffffffffffffff1614610b25576040517f08c379a0000000000000000000000000000000000000000000000000000000008152600401610b1c90613ab6565b60405180910390fd5b6000600b60009054906101000a900473ffffffffffffffffffffffffffffffffffffffff1673ffffffffffffffffffffffffffffffffffffffff1647604051610b6d9061381b565b60006040518083038185875af1925050503d8060008114610baa576040519150601f19603f3d011682016040523d82523d6000602084013e610baf565b606091505b5050905080610bf3576040517f08c379a0000000000000000000000000000000000000000000000000000000008152600401610bea90613a16565b60405180910390fd5b50565b610c11838383604051806020016040528060008152506112cf565b505050565b6000610c20610983565b8210610c61576040517f08c379a0000000000000000000000000000000000000000000000000000000008152600401610c5890613c16565b60405180910390fd5b60088281548110610c9b577f4e487b7100000000000000000000000000000000000000000000000000000000600052603260045260246000fd5b90600052602060002001549050919050565b600b60009054906101000a900473ffffffffffffffffffffffffffffffffffffffff1673ffffffffffffffffffffffffffffffffffffffff163373ffffffffffffffffffffffffffffffffffffffff1614610d3d576040517f08c379a0000000000000000000000000000000000000000000000000000000008152600401610d3490613ab6565b60405180910390fd5b80600e8190555050565b6000806002600084815260200190815260200160002060009054906101000a900473ffffffffffffffffffffffffffffffffffffffff169050600073ffffffffffffffffffffffffffffffffffffffff168173ffffffffffffffffffffffffffffffffffffffff161415610df0576040517f08c379a0000000000000000000000000000000000000000000000000000000008152600401610de790613af6565b60405180910390fd5b80915050919050565b60008073ffffffffffffffffffffffffffffffffffffffff168273ffffffffffffffffffffffffffffffffffffffff161415610e6a576040517f08c379a0000000000000000000000000000000000000000000000000000000008152600401610e6190613ad6565b60405180910390fd5b600360008373ffffffffffffffffffffffffffffffffffffffff1673ffffffffffffffffffffffffffffffffffffffff168152602001908152602001600020549050919050565b6000600c60009054906101000a900473ffffffffffffffffffffffffffffffffffffffff16905060008173ffffffffffffffffffffffffffffffffffffffff16637dc0d1d06040518163ffffffff1660e01b815260040160206040518083038186803b158015610f2057600080fd5b505afa158015610f34573d6000803e3d6000fd5b505050506040513d601f19601f82011682018060405250810190610f589190612fbd565b90508073ffffffffffffffffffffffffffffffffffffffff163373ffffffffffffffffffffffffffffffffffffffff1614610fc8576040517f08c379a0000000000000000000000000000000000000000000000000000000008152600401610fbf90613c36565b60405180910390fd5b600083806020019051810190610fde919061324b565b9050610fea8582611c28565b7f6cf6b9ad03c115e67bcbd8096692d400e58bd03076049f0f767f759c06e57764858260405161101b929190613c71565b60405180910390a15050505050565b60606001805461103990613f21565b80601f016020809104026020016040519081016040528092919081815260200182805461106590613f21565b80156110b25780601f10611087576101008083540402835291602001916110b2565b820191906000526020600020905b81548152906001019060200180831161109557829003601f168201915b5050505050905090565b600f80546110c990613f21565b80601f01602080910402602001604051908101604052809291908181526020018280546110f590613f21565b80156111425780601f1061111757610100808354040283529160200191611142565b820191906000526020600020905b81548152906001019060200180831161112557829003601f168201915b505050505081565b600080600c60009054906101000a900473ffffffffffffffffffffffffffffffffffffffff16905060008173ffffffffffffffffffffffffffffffffffffffff1663a035b1fe6040518163ffffffff1660e01b815260040160206040518083038186803b1580156111ba57600080fd5b505afa1580156111ce573d6000803e3d6000fd5b505050506040513d601f19601f820116820180604052508101906111f291906132b5565b9050600081600e546112049190613d8b565b905080935050505090565b61122161121a611822565b8383611c9c565b5050565b600b60009054906101000a900473ffffffffffffffffffffffffffffffffffffffff1673ffffffffffffffffffffffffffffffffffffffff163373ffffffffffffffffffffffffffffffffffffffff16146112b5576040517f08c379a00000000000000000000000000000000000000000000000000000000081526004016112ac90613ab6565b60405180910390fd5b80600f90805190602001906112cb929190612d26565b5050565b6112e06112da611822565b836118e3565b61131f576040517f08c379a000000000000000000000000000000000000000000000000000000000815260040161131690613bd6565b60405180910390fd5b61132b84848484611e09565b50505050565b606061133c82611e65565b9050919050565b600061134d61114a565b34101561138f576040517f08c379a000000000000000000000000000000000000000000000000000000000815260040161138690613bf6565b60405180910390fd5b600d60008154809291906113a290613f84565b91905055506113b383600d54611fb7565b6000600c60009054906101000a900473ffffffffffffffffffffffffffffffffffffffff16905060008173ffffffffffffffffffffffffffffffffffffffff1663a035b1fe6040518163ffffffff1660e01b815260040160206040518083038186803b15801561142257600080fd5b505afa158015611436573d6000803e3d6000fd5b505050506040513d601f19601f8201168201806040525081019061145a91906132b5565b90508173ffffffffffffffffffffffffffffffffffffffff166396e10fc18286600d54639235392460e01b8a60405160200161149691906137dc565b60405160208183030381529060405260016040518763ffffffff1660e01b81526004016114c79594939291906138d4565b6000604051808303818588803b1580156114e057600080fd5b505af11580156114f4573d6000803e3d6000fd5b50505050508360106000600d5481526020019081526020016000209080519060200190611522929190612d26565b506115b9600d54600f805461153690613f21565b80601f016020809104026020016040519081016040528092919081815260200182805461156290613f21565b80156115af5780601f10611584576101008083540402835291602001916115af565b820191906000526020600020905b81548152906001019060200180831161159257829003601f168201915b5050505050611c28565b600d549250505092915050565b6000600560008473ffffffffffffffffffffffffffffffffffffffff1673ffffffffffffffffffffffffffffffffffffffff16815260200190815260200160002060008373ffffffffffffffffffffffffffffffffffffffff1673ffffffffffffffffffffffffffffffffffffffff16815260200190815260200160002060009054906101000a900460ff16905092915050565b60007f780e9d63000000000000000000000000000000000000000000000000000000007bffffffffffffffffffffffffffffffffffffffffffffffffffffffff1916827bffffffffffffffffffffffffffffffffffffffffffffffffffffffff191614806116cd57506116cc826116d4565b5b9050919050565b60007f80ac58cd000000000000000000000000000000000000000000000000000000007bffffffffffffffffffffffffffffffffffffffffffffffffffffffff1916827bffffffffffffffffffffffffffffffffffffffffffffffffffffffff1916148061179f57507f5b5e139f000000000000000000000000000000000000000000000000000000007bffffffffffffffffffffffffffffffffffffffffffffffffffffffff1916827bffffffffffffffffffffffffffffffffffffffffffffffffffffffff1916145b806117af57506117ae82612191565b5b9050919050565b60008073ffffffffffffffffffffffffffffffffffffffff166002600084815260200190815260200160002060009054906101000a900473ffffffffffffffffffffffffffffffffffffffff1673ffffffffffffffffffffffffffffffffffffffff1614159050919050565b600033905090565b816004600083815260200190815260200160002060006101000a81548173ffffffffffffffffffffffffffffffffffffffff021916908373ffffffffffffffffffffffffffffffffffffffff160217905550808273ffffffffffffffffffffffffffffffffffffffff1661189d83610d47565b73ffffffffffffffffffffffffffffffffffffffff167f8c5be1e5ebec7d5bd14f71427d1e84f3dd0314c0f7b2291e5b200ac8c7c3b92560405160405180910390a45050565b60006118ee826117b6565b61192d576040517f08c379a000000000000000000000000000000000000000000000000000000000815260040161192490613a76565b60405180910390fd5b600061193883610d47565b90508073ffffffffffffffffffffffffffffffffffffffff168473ffffffffffffffffffffffffffffffffffffffff1614806119a757508373ffffffffffffffffffffffffffffffffffffffff1661198f84610720565b73ffffffffffffffffffffffffffffffffffffffff16145b806119b857506119b781856115c6565b5b91505092915050565b8273ffffffffffffffffffffffffffffffffffffffff166119e182610d47565b73ffffffffffffffffffffffffffffffffffffffff1614611a37576040517f08c379a0000000000000000000000000000000000000000000000000000000008152600401611a2e906139d6565b60405180910390fd5b600073ffffffffffffffffffffffffffffffffffffffff168273ffffffffffffffffffffffffffffffffffffffff161415611aa7576040517f08c379a0000000000000000000000000000000000000000000000000000000008152600401611a9e90613a36565b60405180910390fd5b611ab28383836121fb565b611abd60008261182a565b6001600360008573ffffffffffffffffffffffffffffffffffffffff1673ffffffffffffffffffffffffffffffffffffffff1681526020019081526020016000206000828254611b0d9190613e12565b925050819055506001600360008473ffffffffffffffffffffffffffffffffffffffff1673ffffffffffffffffffffffffffffffffffffffff1681526020019081526020016000206000828254611b649190613d8b565b92505081905550816002600083815260200190815260200160002060006101000a81548173ffffffffffffffffffffffffffffffffffffffff021916908373ffffffffffffffffffffffffffffffffffffffff160217905550808273ffffffffffffffffffffffffffffffffffffffff168473ffffffffffffffffffffffffffffffffffffffff167fddf252ad1be2c89b69c2b068fc378daa952ba7f163c4a11628f55a4df523b3ef60405160405180910390a4611c2383838361246b565b505050565b611c31826117b6565b611c70576040517f08c379a0000000000000000000000000000000000000000000000000000000008152600401611c6790613b16565b60405180910390fd5b80600a60008481526020019081526020016000209080519060200190611c97929190612d26565b505050565b8173ffffffffffffffffffffffffffffffffffffffff168373ffffffffffffffffffffffffffffffffffffffff161415611d0b576040517f08c379a0000000000000000000000000000000000000000000000000000000008152600401611d0290613a56565b60405180910390fd5b80600560008573ffffffffffffffffffffffffffffffffffffffff1673ffffffffffffffffffffffffffffffffffffffff16815260200190815260200160002060008473ffffffffffffffffffffffffffffffffffffffff1673ffffffffffffffffffffffffffffffffffffffff16815260200190815260200160002060006101000a81548160ff0219169083151502179055508173ffffffffffffffffffffffffffffffffffffffff168373ffffffffffffffffffffffffffffffffffffffff167f17307eab39ab6107e8899845ad3d59bd9653f200f220920489ca2b5937696c3183604051611dfc9190613897565b60405180910390a3505050565b611e148484846119c1565b611e2084848484612470565b611e5f576040517f08c379a0000000000000000000000000000000000000000000000000000000008152600401611e56906139b6565b60405180910390fd5b50505050565b6060611e70826117b6565b611eaf576040517f08c379a0000000000000000000000000000000000000000000000000000000008152600401611ea690613b56565b60405180910390fd5b6000600a60008481526020019081526020016000208054611ecf90613f21565b80601f0160208091040260200160405190810160405280929190818152602001828054611efb90613f21565b8015611f485780601f10611f1d57610100808354040283529160200191611f48565b820191906000526020600020905b815481529060010190602001808311611f2b57829003601f168201915b505050505090506000611f59612607565b9050600081511415611f6f578192505050611fb2565b600082511115611fa4578082604051602001611f8c9291906137f7565b60405160208183030381529060405292505050611fb2565b611fad8461261e565b925050505b919050565b600073ffffffffffffffffffffffffffffffffffffffff168273ffffffffffffffffffffffffffffffffffffffff161415612027576040517f08c379a000000000000000000000000000000000000000000000000000000000815260040161201e90613b36565b60405180910390fd5b612030816117b6565b15612070576040517f08c379a0000000000000000000000000000000000000000000000000000000008152600401612067906139f6565b60405180910390fd5b61207c600083836121fb565b6001600360008473ffffffffffffffffffffffffffffffffffffffff1673ffffffffffffffffffffffffffffffffffffffff16815260200190815260200160002060008282546120cc9190613d8b565b92505081905550816002600083815260200190815260200160002060006101000a81548173ffffffffffffffffffffffffffffffffffffffff021916908373ffffffffffffffffffffffffffffffffffffffff160217905550808273ffffffffffffffffffffffffffffffffffffffff16600073ffffffffffffffffffffffffffffffffffffffff167fddf252ad1be2c89b69c2b068fc378daa952ba7f163c4a11628f55a4df523b3ef60405160405180910390a461218d6000838361246b565b5050565b60007f01ffc9a7000000000000000000000000000000000000000000000000000000007bffffffffffffffffffffffffffffffffffffffffffffffffffffffff1916827bffffffffffffffffffffffffffffffffffffffffffffffffffffffff1916149050919050565b6122068383836126c5565b600073ffffffffffffffffffffffffffffffffffffffff168373ffffffffffffffffffffffffffffffffffffffff16141580156122705750600073ffffffffffffffffffffffffffffffffffffffff168273ffffffffffffffffffffffffffffffffffffffff1614155b15612466576000600c60009054906101000a900473ffffffffffffffffffffffffffffffffffffffff16905060008173ffffffffffffffffffffffffffffffffffffffff1663a035b1fe6040518163ffffffff1660e01b815260040160206040518083038186803b1580156122e457600080fd5b505afa1580156122f8573d6000803e3d6000fd5b505050506040513d601f19601f8201168201806040525081019061231c91906132b5565b90508173ffffffffffffffffffffffffffffffffffffffff166396e10fc18260106000600d54815260200190815260200160002086639235392460e01b8960405160200161236a91906137dc565b60405160208183030381529060405260016040518763ffffffff1660e01b815260040161239b959493929190613935565b6000604051808303818588803b1580156123b457600080fd5b505af11580156123c8573d6000803e3d6000fd5b5050505050612463600d54600f80546123e090613f21565b80601f016020809104026020016040519081016040528092919081815260200182805461240c90613f21565b80156124595780601f1061242e57610100808354040283529160200191612459565b820191906000526020600020905b81548152906001019060200180831161243c57829003601f168201915b5050505050611c28565b50505b505050565b505050565b60006124918473ffffffffffffffffffffffffffffffffffffffff166127d9565b156125fa578373ffffffffffffffffffffffffffffffffffffffff1663150b7a026124ba611822565b8786866040518563ffffffff1660e01b81526004016124dc949392919061384b565b602060405180830381600087803b1580156124f657600080fd5b505af192505050801561252757506040513d601f19601f8201168201806040525081019061252491906131e1565b60015b6125aa573d8060008114612557576040519150601f19603f3d011682016040523d82523d6000602084013e61255c565b606091505b506000815114156125a2576040517f08c379a0000000000000000000000000000000000000000000000000000000008152600401612599906139b6565b60405180910390fd5b805181602001fd5b63150b7a0260e01b7bffffffffffffffffffffffffffffffffffffffffffffffffffffffff1916817bffffffffffffffffffffffffffffffffffffffffffffffffffffffff1916149150506125ff565b600190505b949350505050565b606060405180602001604052806000815250905090565b6060612629826117b6565b612668576040517f08c379a000000000000000000000000000000000000000000000000000000000815260040161265f90613b96565b60405180910390fd5b6000612672612607565b9050600081511161269257604051806020016040528060008152506126bd565b8061269c846127fc565b6040516020016126ad9291906137f7565b6040516020818303038152906040525b915050919050565b6126d08383836129a9565b600073ffffffffffffffffffffffffffffffffffffffff168373ffffffffffffffffffffffffffffffffffffffff1614156127135761270e816129ae565b612752565b8173ffffffffffffffffffffffffffffffffffffffff168373ffffffffffffffffffffffffffffffffffffffff16146127515761275083826129f7565b5b5b600073ffffffffffffffffffffffffffffffffffffffff168273ffffffffffffffffffffffffffffffffffffffff1614156127955761279081612b64565b6127d4565b8273ffffffffffffffffffffffffffffffffffffffff168273ffffffffffffffffffffffffffffffffffffffff16146127d3576127d28282612ca7565b5b5b505050565b6000808273ffffffffffffffffffffffffffffffffffffffff163b119050919050565b60606000821415612844576040518060400160405280600181526020017f300000000000000000000000000000000000000000000000000000000000000081525090506129a4565b600082905060005b6000821461287657808061285f90613f84565b915050600a8261286f9190613de1565b915061284c565b60008167ffffffffffffffff8111156128b8577f4e487b7100000000000000000000000000000000000000000000000000000000600052604160045260246000fd5b6040519080825280601f01601f1916602001820160405280156128ea5781602001600182028036833780820191505090505b5090505b6000851461299d576001826129039190613e12565b9150600a856129129190613ff1565b603061291e9190613d8b565b60f81b81838151811061295a577f4e487b7100000000000000000000000000000000000000000000000000000000600052603260045260246000fd5b60200101907effffffffffffffffffffffffffffffffffffffffffffffffffffffffffffff1916908160001a905350600a856129969190613de1565b94506128ee565b8093505050505b919050565b505050565b6008805490506009600083815260200190815260200160002081905550600881908060018154018082558091505060019003906000526020600020016000909190919091505550565b60006001612a0484610df9565b612a0e9190613e12565b9050600060076000848152602001908152602001600020549050818114612af3576000600660008673ffffffffffffffffffffffffffffffffffffffff1673ffffffffffffffffffffffffffffffffffffffff168152602001908152602001600020600084815260200190815260200160002054905080600660008773ffffffffffffffffffffffffffffffffffffffff1673ffffffffffffffffffffffffffffffffffffffff168152602001908152602001600020600084815260200190815260200160002081905550816007600083815260200190815260200160002081905550505b6007600084815260200190815260200160002060009055600660008573ffffffffffffffffffffffffffffffffffffffff1673ffffffffffffffffffffffffffffffffffffffff16815260200190815260200160002060008381526020019081526020016000206000905550505050565b60006001600880549050612b789190613e12565b9050600060096000848152602001908152602001600020549050600060088381548110612bce577f4e487b7100000000000000000000000000000000000000000000000000000000600052603260045260246000fd5b906000526020600020015490508060088381548110612c16577f4e487b7100000000000000000000000000000000000000000000000000000000600052603260045260246000fd5b906000526020600020018190555081600960008381526020019081526020016000208190555060096000858152602001908152602001600020600090556008805480612c8b577f4e487b7100000000000000000000000000000000000000000000000000000000600052603160045260246000fd5b6001900381819060005260206000200160009055905550505050565b6000612cb283610df9565b905081600660008573ffffffffffffffffffffffffffffffffffffffff1673ffffffffffffffffffffffffffffffffffffffff168152602001908152602001600020600083815260200190815260200160002081905550806007600084815260200190815260200160002081905550505050565b828054612d3290613f21565b90600052602060002090601f016020900481019282612d545760008555612d9b565b82601f10612d6d57805160ff1916838001178555612d9b565b82800160010185558215612d9b579182015b82811115612d9a578251825591602001919060010190612d7f565b5b509050612da89190612dac565b5090565b5b80821115612dc5576000816000905550600101612dad565b5090565b6000612ddc612dd784613cc6565b613ca1565b905082815260208101848484011115612df457600080fd5b612dff848285613edf565b509392505050565b6000612e1a612e1584613cf7565b613ca1565b905082815260208101848484011115612e3257600080fd5b612e3d848285613edf565b509392505050565b6000612e58612e5384613cf7565b613ca1565b905082815260208101848484011115612e7057600080fd5b612e7b848285613eee565b509392505050565b600081359050612e9281614702565b92915050565b600081519050612ea781614702565b92915050565b600081359050612ebc81614719565b92915050565b600081359050612ed181614730565b92915050565b600081519050612ee681614730565b92915050565b600082601f830112612efd57600080fd5b8135612f0d848260208601612dc9565b91505092915050565b600082601f830112612f2757600080fd5b8135612f37848260208601612e07565b91505092915050565b600082601f830112612f5157600080fd5b8151612f61848260208601612e45565b91505092915050565b600081359050612f7981614747565b92915050565b600081519050612f8e81614747565b92915050565b600060208284031215612fa657600080fd5b6000612fb484828501612e83565b91505092915050565b600060208284031215612fcf57600080fd5b6000612fdd84828501612e98565b91505092915050565b60008060408385031215612ff957600080fd5b600061300785828601612e83565b925050602061301885828601612e83565b9150509250929050565b60008060006060848603121561303757600080fd5b600061304586828701612e83565b935050602061305686828701612e83565b925050604061306786828701612f6a565b9150509250925092565b6000806000806080858703121561308757600080fd5b600061309587828801612e83565b94505060206130a687828801612e83565b93505060406130b787828801612f6a565b925050606085013567ffffffffffffffff8111156130d457600080fd5b6130e087828801612eec565b91505092959194509250565b600080604083850312156130ff57600080fd5b600061310d85828601612e83565b925050602061311e85828601612ead565b9150509250929050565b6000806040838503121561313b57600080fd5b600061314985828601612e83565b925050602083013567ffffffffffffffff81111561316657600080fd5b61317285828601612f16565b9150509250929050565b6000806040838503121561318f57600080fd5b600061319d85828601612e83565b92505060206131ae85828601612f6a565b9150509250929050565b6000602082840312156131ca57600080fd5b60006131d884828501612ec2565b91505092915050565b6000602082840312156131f357600080fd5b600061320184828501612ed7565b91505092915050565b60006020828403121561321c57600080fd5b600082013567ffffffffffffffff81111561323657600080fd5b61324284828501612f16565b91505092915050565b60006020828403121561325d57600080fd5b600082015167ffffffffffffffff81111561327757600080fd5b61328384828501612f40565b91505092915050565b60006020828403121561329e57600080fd5b60006132ac84828501612f6a565b91505092915050565b6000602082840312156132c757600080fd5b60006132d584828501612f7f565b91505092915050565b600080604083850312156132f157600080fd5b60006132ff85828601612f6a565b925050602083013567ffffffffffffffff81111561331c57600080fd5b61332885828601612eec565b9150509250929050565b61333b81613e46565b82525050565b61335261334d82613e46565b613fcd565b82525050565b61336181613e58565b82525050565b61337081613e64565b82525050565b600061338182613d3d565b61338b8185613d53565b935061339b818560208601613eee565b6133a48161410d565b840191505092915050565b6133b881613ecd565b82525050565b60006133c982613d48565b6133d38185613d6f565b93506133e3818560208601613eee565b6133ec8161410d565b840191505092915050565b600061340282613d48565b61340c8185613d80565b935061341c818560208601613eee565b80840191505092915050565b6000815461343581613f21565b61343f8186613d6f565b9450600182166000811461345a576001811461346c5761349f565b60ff198316865260208601935061349f565b61347585613d28565b60005b8381101561349757815481890152600182019150602081019050613478565b808801955050505b50505092915050565b60006134b5602b83613d6f565b91506134c08261412b565b604082019050919050565b60006134d8603283613d6f565b91506134e38261417a565b604082019050919050565b60006134fb602583613d6f565b9150613506826141c9565b604082019050919050565b600061351e601c83613d6f565b915061352982614218565b602082019050919050565b6000613541600f83613d6f565b915061354c82614241565b602082019050919050565b6000613564602483613d6f565b915061356f8261426a565b604082019050919050565b6000613587601983613d6f565b9150613592826142b9565b602082019050919050565b60006135aa602c83613d6f565b91506135b5826142e2565b604082019050919050565b60006135cd603883613d6f565b91506135d882614331565b604082019050919050565b60006135f0600d83613d6f565b91506135fb82614380565b602082019050919050565b6000613613602a83613d6f565b915061361e826143a9565b604082019050919050565b6000613636602983613d6f565b9150613641826143f8565b604082019050919050565b6000613659602e83613d6f565b915061366482614447565b604082019050919050565b600061367c602083613d6f565b915061368782614496565b602082019050919050565b600061369f603183613d6f565b91506136aa826144bf565b604082019050919050565b60006136c2602c83613d6f565b91506136cd8261450e565b604082019050919050565b60006136e5602f83613d6f565b91506136f08261455d565b604082019050919050565b6000613708602183613d6f565b9150613713826145ac565b604082019050919050565b600061372b600083613d64565b9150613736826145fb565b600082019050919050565b600061374e603183613d6f565b9150613759826145fe565b604082019050919050565b6000613771602083613d6f565b915061377c8261464d565b602082019050919050565b6000613794602c83613d6f565b915061379f82614676565b604082019050919050565b60006137b7600a83613d6f565b91506137c2826146c5565b602082019050919050565b6137d681613ec3565b82525050565b60006137e88284613341565b60148201915081905092915050565b600061380382856133f7565b915061380f82846133f7565b91508190509392505050565b60006138268261371e565b9150819050919050565b60006020820190506138456000830184613332565b92915050565b60006080820190506138606000830187613332565b61386d6020830186613332565b61387a60408301856137cd565b818103606083015261388c8184613376565b905095945050505050565b60006020820190506138ac6000830184613358565b92915050565b600060208201905081810360008301526138cc81846133be565b905092915050565b600060a08201905081810360008301526138ee81886133be565b90506138fd60208301876137cd565b61390a6040830186613367565b818103606083015261391c8185613376565b905061392b60808301846133af565b9695505050505050565b600060a082019050818103600083015261394f8188613428565b905061395e60208301876137cd565b61396b6040830186613367565b818103606083015261397d8185613376565b905061398c60808301846133af565b9695505050505050565b600060208201905081810360008301526139af816134a8565b9050919050565b600060208201905081810360008301526139cf816134cb565b9050919050565b600060208201905081810360008301526139ef816134ee565b9050919050565b60006020820190508181036000830152613a0f81613511565b9050919050565b60006020820190508181036000830152613a2f81613534565b9050919050565b60006020820190508181036000830152613a4f81613557565b9050919050565b60006020820190508181036000830152613a6f8161357a565b9050919050565b60006020820190508181036000830152613a8f8161359d565b9050919050565b60006020820190508181036000830152613aaf816135c0565b9050919050565b60006020820190508181036000830152613acf816135e3565b9050919050565b60006020820190508181036000830152613aef81613606565b9050919050565b60006020820190508181036000830152613b0f81613629565b9050919050565b60006020820190508181036000830152613b2f8161364c565b9050919050565b60006020820190508181036000830152613b4f8161366f565b9050919050565b60006020820190508181036000830152613b6f81613692565b9050919050565b60006020820190508181036000830152613b8f816136b5565b9050919050565b60006020820190508181036000830152613baf816136d8565b9050919050565b60006020820190508181036000830152613bcf816136fb565b9050919050565b60006020820190508181036000830152613bef81613741565b9050919050565b60006020820190508181036000830152613c0f81613764565b9050919050565b60006020820190508181036000830152613c2f81613787565b9050919050565b60006020820190508181036000830152613c4f816137aa565b9050919050565b6000602082019050613c6b60008301846137cd565b92915050565b6000604082019050613c8660008301856137cd565b8181036020830152613c9881846133be565b90509392505050565b6000613cab613cbc565b9050613cb78282613f53565b919050565b6000604051905090565b600067ffffffffffffffff821115613ce157613ce06140de565b5b613cea8261410d565b9050602081019050919050565b600067ffffffffffffffff821115613d1257613d116140de565b5b613d1b8261410d565b9050602081019050919050565b60008190508160005260206000209050919050565b600081519050919050565b600081519050919050565b600082825260208201905092915050565b600081905092915050565b600082825260208201905092915050565b600081905092915050565b6000613d9682613ec3565b9150613da183613ec3565b9250827fffffffffffffffffffffffffffffffffffffffffffffffffffffffffffffffff03821115613dd657613dd5614022565b5b828201905092915050565b6000613dec82613ec3565b9150613df783613ec3565b925082613e0757613e06614051565b5b828204905092915050565b6000613e1d82613ec3565b9150613e2883613ec3565b925082821015613e3b57613e3a614022565b5b828203905092915050565b6000613e5182613ea3565b9050919050565b60008115159050919050565b60007fffffffff0000000000000000000000000000000000000000000000000000000082169050919050565b6000819050613e9e826146ee565b919050565b600073ffffffffffffffffffffffffffffffffffffffff82169050919050565b6000819050919050565b6000613ed882613e90565b9050919050565b82818337600083830152505050565b60005b83811015613f0c578082015181840152602081019050613ef1565b83811115613f1b576000848401525b50505050565b60006002820490506001821680613f3957607f821691505b60208210811415613f4d57613f4c6140af565b5b50919050565b613f5c8261410d565b810181811067ffffffffffffffff82111715613f7b57613f7a6140de565b5b80604052505050565b6000613f8f82613ec3565b91507fffffffffffffffffffffffffffffffffffffffffffffffffffffffffffffffff821415613fc257613fc1614022565b5b600182019050919050565b6000613fd882613fdf565b9050919050565b6000613fea8261411e565b9050919050565b6000613ffc82613ec3565b915061400783613ec3565b92508261401757614016614051565b5b828206905092915050565b7f4e487b7100000000000000000000000000000000000000000000000000000000600052601160045260246000fd5b7f4e487b7100000000000000000000000000000000000000000000000000000000600052601260045260246000fd5b7f4e487b7100000000000000000000000000000000000000000000000000000000600052602160045260246000fd5b7f4e487b7100000000000000000000000000000000000000000000000000000000600052602260045260246000fd5b7f4e487b7100000000000000000000000000000000000000000000000000000000600052604160045260246000fd5b6000601f19601f8301169050919050565b60008160601b9050919050565b7f455243373231456e756d657261626c653a206f776e657220696e646578206f7560008201527f74206f6620626f756e6473000000000000000000000000000000000000000000602082015250565b7f4552433732313a207472616e7366657220746f206e6f6e20455243373231526560008201527f63656976657220696d706c656d656e7465720000000000000000000000000000602082015250565b7f4552433732313a207472616e736665722066726f6d20696e636f72726563742060008201527f6f776e6572000000000000000000000000000000000000000000000000000000602082015250565b7f4552433732313a20746f6b656e20616c7265616479206d696e74656400000000600082015250565b7f5769746864726177206661696c65640000000000000000000000000000000000600082015250565b7f4552433732313a207472616e7366657220746f20746865207a65726f2061646460008201527f7265737300000000000000000000000000000000000000000000000000000000602082015250565b7f4552433732313a20617070726f766520746f2063616c6c657200000000000000600082015250565b7f4552433732313a206f70657261746f7220717565727920666f72206e6f6e657860008201527f697374656e7420746f6b656e0000000000000000000000000000000000000000602082015250565b7f4552433732313a20617070726f76652063616c6c6572206973206e6f74206f7760008201527f6e6572206e6f7220617070726f76656420666f7220616c6c0000000000000000602082015250565b7f4e6f7420746865206f776e657200000000000000000000000000000000000000600082015250565b7f4552433732313a2062616c616e636520717565727920666f7220746865207a6560008201527f726f206164647265737300000000000000000000000000000000000000000000602082015250565b7f4552433732313a206f776e657220717565727920666f72206e6f6e657869737460008201527f656e7420746f6b656e0000000000000000000000000000000000000000000000602082015250565b7f45524337323155524953746f726167653a2055524920736574206f66206e6f6e60008201527f6578697374656e7420746f6b656e000000000000000000000000000000000000602082015250565b7f4552433732313a206d696e7420746f20746865207a65726f2061646472657373600082015250565b7f45524337323155524953746f726167653a2055524920717565727920666f722060008201527f6e6f6e6578697374656e7420746f6b656e000000000000000000000000000000602082015250565b7f4552433732313a20617070726f76656420717565727920666f72206e6f6e657860008201527f697374656e7420746f6b656e0000000000000000000000000000000000000000602082015250565b7f4552433732314d657461646174613a2055524920717565727920666f72206e6f60008201527f6e6578697374656e7420746f6b656e0000000000000000000000000000000000602082015250565b7f4552433732313a20617070726f76616c20746f2063757272656e74206f776e6560008201527f7200000000000000000000000000000000000000000000000000000000000000602082015250565b50565b7f4552433732313a207472616e736665722063616c6c6572206973206e6f74206f60008201527f776e6572206e6f7220617070726f766564000000000000000000000000000000602082015250565b7f496e73756666696369656e74207061796d656e7420666f72206d696e74696e67600082015250565b7f455243373231456e756d657261626c653a20676c6f62616c20696e646578206f60008201527f7574206f6620626f756e64730000000000000000000000000000000000000000602082015250565b7f4e6f74206f7261636c6500000000000000000000000000000000000000000000600082015250565b600281106146ff576146fe614080565b5b50565b61470b81613e46565b811461471657600080fd5b50565b61472281613e58565b811461472d57600080fd5b50565b61473981613e64565b811461474457600080fd5b50565b61475081613ec3565b811461475b57600080fd5b5056fea2646970667358221220405d189669c7ea538777ceece7c2d2970ffbadadaf22024be60fa27b4e8c22a164736f6c63430008040033",
  "linkReferences": {},
  "deployedLinkReferences": {}
}