{
  "_format": "hh-sol-artifact-1",
  "contractName": "EvolvingNFT",
  "sourceName": "contracts/EvolvingNFT.sol",
  "abi": [
    {
      "inputs": [
        {
          "internalType": "address",
          "name": "owner_",
          "type": "address"
        },
        {
          "internalType": "address",
          "name": "model_",
          "type": "address"
        },
        {
          "internalType": "uint256",
          "name": "price_",
          "type": "uint256"
        },
        {
          "internalType": "string",
          "name": "loadingImg_",
          "type": "string"
        }
      ],
      "stateMutability": "nonpayable",
      "type": "constructor"
    },
    {
      "anonymous": false,
      "inputs": [
        {
          "indexed": true,
          "internalType": "address",
          "name": "owner",
          "type": "address"
        },
        {
          "indexed": true,
          "internalType": "address",
          "name": "approved",
          "type": "address"
        },
        {
          "indexed": true,
          "internalType": "uint256",
          "name": "tokenId",
          "type": "uint256"
        }
      ],
      "name": "Approval",
      "type": "event"
    },
    {
      "anonymous": false,
      "inputs": [
        {
          "indexed": true,
          "internalType": "address",
          "name": "owner",
          "type": "address"
        },
        {
          "indexed": true,
          "internalType": "address",
          "name": "operator",
          "type": "address"
        },
        {
          "indexed": false,
          "internalType": "bool",
          "name": "approved",
          "type": "bool"
        }
      ],
      "name": "ApprovalForAll",
      "type": "event"
    },
    {
      "anonymous": false,
      "inputs": [
        {
          "indexed": false,
          "internalType": "uint256",
          "name": "tokenId",
          "type": "uint256"
        },
        {
          "indexed": false,
          "internalType": "string",
          "name": "tokenURI",
          "type": "string"
        }
      ],
      "name": "TokenUriSet",
      "type": "event"
    },
    {
      "anonymous": false,
      "inputs": [
        {
          "indexed": true,
          "internalType": "address",
          "name": "from",
          "type": "address"
        },
        {
          "indexed": true,
          "internalType": "address",
          "name": "to",
          "type": "address"
        },
        {
          "indexed": true,
          "internalType": "uint256",
          "name": "tokenId",
          "type": "uint256"
        }
      ],
      "name": "Transfer",
      "type": "event"
    },
    {
      "inputs": [
        {
          "internalType": "address",
          "name": "to",
          "type": "address"
        },
        {
          "internalType": "uint256",
          "name": "tokenId",
          "type": "uint256"
        }
      ],
      "name": "approve",
      "outputs": [],
      "stateMutability": "nonpayable",
      "type": "function"
    },
    {
      "inputs": [
        {
          "internalType": "address",
          "name": "owner",
          "type": "address"
        }
      ],
      "name": "balanceOf",
      "outputs": [
        {
          "internalType": "uint256",
          "name": "",
          "type": "uint256"
        }
      ],
      "stateMutability": "view",
      "type": "function"
    },
    {
      "inputs": [],
      "name": "currentTokenId",
      "outputs": [
        {
          "internalType": "uint256",
          "name": "",
          "type": "uint256"
        }
      ],
      "stateMutability": "view",
      "type": "function"
    },
    {
      "inputs": [
        {
          "internalType": "uint256",
          "name": "tokenId",
          "type": "uint256"
        }
      ],
      "name": "getApproved",
      "outputs": [
        {
          "internalType": "address",
          "name": "",
          "type": "address"
        }
      ],
      "stateMutability": "view",
      "type": "function"
    },
    {
      "inputs": [
        {
          "internalType": "address",
          "name": "owner",
          "type": "address"
        },
        {
          "internalType": "address",
          "name": "operator",
          "type": "address"
        }
      ],
      "name": "isApprovedForAll",
      "outputs": [
        {
          "internalType": "bool",
          "name": "",
          "type": "bool"
        }
      ],
      "stateMutability": "view",
      "type": "function"
    },
    {
      "inputs": [],
      "name": "loadingImg",
      "outputs": [
        {
          "internalType": "string",
          "name": "",
          "type": "string"
        }
      ],
      "stateMutability": "view",
      "type": "function"
    },
    {
      "inputs": [
        {
          "internalType": "address",
          "name": "to",
          "type": "address"
        },
        {
          "internalType": "string",
          "name": "prompt",
          "type": "string"
        }
      ],
      "name": "mint",
      "outputs": [
        {
          "internalType": "uint256",
          "name": "",
          "type": "uint256"
        }
      ],
      "stateMutability": "payable",
      "type": "function"
    },
    {
      "inputs": [],
      "name": "model",
      "outputs": [
        {
          "internalType": "address",
          "name": "",
          "type": "address"
        }
      ],
      "stateMutability": "view",
      "type": "function"
    },
    {
      "inputs": [],
      "name": "name",
      "outputs": [
        {
          "internalType": "string",
          "name": "",
          "type": "string"
        }
      ],
      "stateMutability": "view",
      "type": "function"
    },
    {
      "inputs": [
        {
          "internalType": "uint256",
          "name": "tokenId",
          "type": "uint256"
        }
      ],
      "name": "ownerOf",
      "outputs": [
        {
          "internalType": "address",
          "name": "",
          "type": "address"
        }
      ],
      "stateMutability": "view",
      "type": "function"
    },
    {
      "inputs": [],
      "name": "price",
      "outputs": [
        {
          "internalType": "uint256",
          "name": "",
          "type": "uint256"
        }
      ],
      "stateMutability": "view",
      "type": "function"
    },
    {
      "inputs": [
        {
          "internalType": "address",
          "name": "from",
          "type": "address"
        },
        {
          "internalType": "address",
          "name": "to",
          "type": "address"
        },
        {
          "internalType": "uint256",
          "name": "tokenId",
          "type": "uint256"
        }
      ],
      "name": "safeTransferFrom",
      "outputs": [],
      "stateMutability": "nonpayable",
      "type": "function"
    },
    {
      "inputs": [
        {
          "internalType": "address",
          "name": "from",
          "type": "address"
        },
        {
          "internalType": "address",
          "name": "to",
          "type": "address"
        },
        {
          "internalType": "uint256",
          "name": "tokenId",
          "type": "uint256"
        },
        {
          "internalType": "bytes",
          "name": "_data",
          "type": "bytes"
        }
      ],
      "name": "safeTransferFrom",
      "outputs": [],
      "stateMutability": "nonpayable",
      "type": "function"
    },
    {
      "inputs": [
        {
          "internalType": "address",
          "name": "operator",
          "type": "address"
        },
        {
          "internalType": "bool",
          "name": "approved",
          "type": "bool"
        }
      ],
      "name": "setApprovalForAll",
      "outputs": [],
      "stateMutability": "nonpayable",
      "type": "function"
    },
    {
      "inputs": [
        {
          "internalType": "string",
          "name": "newLoadingImg",
          "type": "string"
        }
      ],
      "name": "setLoadingImage",
      "outputs": [],
      "stateMutability": "nonpayable",
      "type": "function"
    },
    {
      "inputs": [
        {
          "internalType": "uint256",
          "name": "price_",
          "type": "uint256"
        }
      ],
      "name": "setMintPriceToThisContract",
      "outputs": [],
      "stateMutability": "nonpayable",
      "type": "function"
    },
    {
      "inputs": [
        {
          "internalType": "uint256",
          "name": "id",
          "type": "uint256"
        },
        {
          "internalType": "bytes",
          "name": "location",
          "type": "bytes"
        }
      ],
      "name": "setOutput",
      "outputs": [],
      "stateMutability": "nonpayable",
      "type": "function"
    },
    {
      "inputs": [
        {
          "internalType": "bytes4",
          "name": "interfaceId",
          "type": "bytes4"
        }
      ],
      "name": "supportsInterface",
      "outputs": [
        {
          "internalType": "bool",
          "name": "",
          "type": "bool"
        }
      ],
      "stateMutability": "view",
      "type": "function"
    },
    {
      "inputs": [],
      "name": "symbol",
      "outputs": [
        {
          "internalType": "string",
          "name": "",
          "type": "string"
        }
      ],
      "stateMutability": "view",
      "type": "function"
    },
    {
      "inputs": [
        {
          "internalType": "uint256",
          "name": "index",
          "type": "uint256"
        }
      ],
      "name": "tokenByIndex",
      "outputs": [
        {
          "internalType": "uint256",
          "name": "",
          "type": "uint256"
        }
      ],
      "stateMutability": "view",
      "type": "function"
    },
    {
      "inputs": [
        {
          "internalType": "uint256",
          "name": "",
          "type": "uint256"
        }
      ],
      "name": "tokenIdToDataInput",
      "outputs": [
        {
          "internalType": "string",
          "name": "",
          "type": "string"
        }
      ],
      "stateMutability": "view",
      "type": "function"
    },
    {
      "inputs": [
        {
          "internalType": "address",
          "name": "owner",
          "type": "address"
        },
        {
          "internalType": "uint256",
          "name": "index",
          "type": "uint256"
        }
      ],
      "name": "tokenOfOwnerByIndex",
      "outputs": [
        {
          "internalType": "uint256",
          "name": "",
          "type": "uint256"
        }
      ],
      "stateMutability": "view",
      "type": "function"
    },
    {
      "inputs": [
        {
          "internalType": "uint256",
          "name": "tokenId",
          "type": "uint256"
        }
      ],
      "name": "tokenURI",
      "outputs": [
        {
          "internalType": "string",
          "name": "",
          "type": "string"
        }
      ],
      "stateMutability": "view",
      "type": "function"
    },
    {
      "inputs": [],
      "name": "totalSupply",
      "outputs": [
        {
          "internalType": "uint256",
          "name": "",
          "type": "uint256"
        }
      ],
      "stateMutability": "view",
      "type": "function"
    },
    {
      "inputs": [
        {
          "internalType": "address",
          "name": "from",
          "type": "address"
        },
        {
          "internalType": "address",
          "name": "to",
          "type": "address"
        },
        {
          "internalType": "uint256",
          "name": "tokenId",
          "type": "uint256"
        }
      ],
      "name": "transferFrom",
      "outputs": [],
      "stateMutability": "nonpayable",
      "type": "function"
    },
    {
      "inputs": [],
      "name": "withdraw",
      "outputs": [],
      "stateMutability": "nonpayable",
      "type": "function"
    }
  ],
  "bytecode": "0x60806040523480156200001157600080fd5b5060405162002a7e38038062002a7e8339810160408190526200003491620001b3565b604080518082018252600b81526a115d9bdb1d9a5b99d3919560aa1b60208083019182528351808501909452600384526245564f60e81b9084015281519192916200008291600091620000f0565b50805162000098906001906020840190620000f0565b5050600b80546001600160a01b038088166001600160a01b031992831617909255600c80549287169290911691909117905550600e8290558051620000e590600f906020840190620000f0565b50505050506200030c565b828054620000fe90620002b9565b90600052602060002090601f0160209004810192826200012257600085556200016d565b82601f106200013d57805160ff19168380011785556200016d565b828001600101855582156200016d579182015b828111156200016d57825182559160200191906001019062000150565b506200017b9291506200017f565b5090565b5b808211156200017b576000815560010162000180565b80516001600160a01b0381168114620001ae57600080fd5b919050565b60008060008060808587031215620001c9578384fd5b620001d48562000196565b93506020620001e581870162000196565b6040870151606088015191955093506001600160401b038082111562000209578384fd5b818801915088601f8301126200021d578384fd5b815181811115620002325762000232620002f6565b604051601f8201601f19908116603f011681019083821181831017156200025d576200025d620002f6565b816040528281528b8684870101111562000275578687fd5b8693505b8284101562000298578484018601518185018701529285019262000279565b82841115620002a957868684830101525b989b979a50959850505050505050565b600181811c90821680620002ce57607f821691505b60208210811415620002f057634e487b7160e01b600052602260045260246000fd5b50919050565b634e487b7160e01b600052604160045260246000fd5b612762806200031c6000396000f3fe6080604052600436106101805760003560e01c806352620c35116100d1578063a035b1fe1161008a578063b88d4fde11610064578063b88d4fde14610443578063c87b56dd14610463578063d0def52114610483578063e985e9c51461049657600080fd5b8063a035b1fe146103ee578063a22cb46514610403578063b698904a1461042357600080fd5b806352620c35146103445780636352211e1461036457806370a082311461038457806392353924146103a457806395d89b41146103c45780639c6b1bda146103d957600080fd5b8063112b91b91161013e5780632f745c59116101185780632f745c59146102cf5780633ccfd60b146102ef57806342842e0e146103045780634f6ccce71461032457600080fd5b8063112b91b91461027a57806318160ddd1461029a57806323b872dd146102af57600080fd5b80629a9b7b1461018557806301ffc9a7146101ae57806306fdde03146101de578063081812fc14610200578063095ea7b3146102385780630ad9d0521461025a575b600080fd5b34801561019157600080fd5b5061019b600d5481565b6040519081526020015b60405180910390f35b3480156101ba57600080fd5b506101ce6101c936600461218d565b6104df565b60405190151581526020016101a5565b3480156101ea57600080fd5b506101f36104ff565b6040516101a59190612384565b34801561020c57600080fd5b5061022061021b36600461226b565b610591565b6040516001600160a01b0390911681526020016101a5565b34801561024457600080fd5b50610258610253366004612162565b61061e565b005b34801561026657600080fd5b50600c54610220906001600160a01b031681565b34801561028657600080fd5b506101f361029536600461226b565b610734565b3480156102a657600080fd5b5060085461019b565b3480156102bb57600080fd5b506102586102ca366004612039565b6107ce565b3480156102db57600080fd5b5061019b6102ea366004612162565b6107ff565b3480156102fb57600080fd5b50610258610895565b34801561031057600080fd5b5061025861031f366004612039565b610957565b34801561033057600080fd5b5061019b61033f36600461226b565b610972565b34801561035057600080fd5b5061025861035f36600461226b565b610a13565b34801561037057600080fd5b5061022061037f36600461226b565b610a42565b34801561039057600080fd5b5061019b61039f366004611fc9565b610ab9565b3480156103b057600080fd5b506102586103bf36600461229b565b610b40565b3480156103d057600080fd5b506101f3610c6b565b3480156103e557600080fd5b506101f3610c7a565b3480156103fa57600080fd5b5061019b610c87565b34801561040f57600080fd5b5061025861041e3660046120e3565b610d22565b34801561042f57600080fd5b5061025861043e3660046121c5565b610d31565b34801561044f57600080fd5b5061025861045e366004612079565b610d6e565b34801561046f57600080fd5b506101f361047e36600461226b565b610da6565b61019b610491366004612114565b610db1565b3480156104a257600080fd5b506101ce6104b1366004612001565b6001600160a01b03918216600090815260056020908152604080832093909416825291909152205460ff1690565b60006104ea8261101f565b806104f957506104f982611040565b92915050565b60606000805461050e90612655565b80601f016020809104026020016040519081016040528092919081815260200182805461053a90612655565b80156105875780601f1061055c57610100808354040283529160200191610587565b820191906000526020600020905b81548152906001019060200180831161056a57829003601f168201915b5050505050905090565b600061059c82611090565b6106025760405162461bcd60e51b815260206004820152602c60248201527f4552433732313a20617070726f76656420717565727920666f72206e6f6e657860448201526b34b9ba32b73a103a37b5b2b760a11b60648201526084015b60405180910390fd5b506000908152600460205260409020546001600160a01b031690565b600061062982610a42565b9050806001600160a01b0316836001600160a01b031614156106975760405162461bcd60e51b815260206004820152602160248201527f4552433732313a20617070726f76616c20746f2063757272656e74206f776e656044820152603960f91b60648201526084016105f9565b336001600160a01b03821614806106b357506106b381336104b1565b6107255760405162461bcd60e51b815260206004820152603860248201527f4552433732313a20617070726f76652063616c6c6572206973206e6f74206f7760448201527f6e6572206e6f7220617070726f76656420666f7220616c6c000000000000000060648201526084016105f9565b61072f83836110ad565b505050565b6010602052600090815260409020805461074d90612655565b80601f016020809104026020016040519081016040528092919081815260200182805461077990612655565b80156107c65780601f1061079b576101008083540402835291602001916107c6565b820191906000526020600020905b8154815290600101906020018083116107a957829003601f168201915b505050505081565b6107d8338261111b565b6107f45760405162461bcd60e51b81526004016105f990612523565b61072f838383611204565b600061080a83610ab9565b821061086c5760405162461bcd60e51b815260206004820152602b60248201527f455243373231456e756d657261626c653a206f776e657220696e646578206f7560448201526a74206f6620626f756e647360a81b60648201526084016105f9565b506001600160a01b03919091166000908152600660209081526040808320938352929052205490565b600b546001600160a01b031633146108bf5760405162461bcd60e51b81526004016105f9906124fc565b600b546040516000916001600160a01b03169047908381818185875af1925050503d806000811461090c576040519150601f19603f3d011682016040523d82523d6000602084013e610911565b606091505b50509050806109545760405162461bcd60e51b815260206004820152600f60248201526e15da5d1a191c985dc819985a5b1959608a1b60448201526064016105f9565b50565b61072f83838360405180602001604052806000815250610d6e565b600061097d60085490565b82106109e05760405162461bcd60e51b815260206004820152602c60248201527f455243373231456e756d657261626c653a20676c6f62616c20696e646578206f60448201526b7574206f6620626f756e647360a01b60648201526084016105f9565b60088281548110610a0157634e487b7160e01b600052603260045260246000fd5b90600052602060002001549050919050565b600b546001600160a01b03163314610a3d5760405162461bcd60e51b81526004016105f9906124fc565b600e55565b6000818152600260205260408120546001600160a01b0316806104f95760405162461bcd60e51b815260206004820152602960248201527f4552433732313a206f776e657220717565727920666f72206e6f6e657869737460448201526832b73a103a37b5b2b760b91b60648201526084016105f9565b60006001600160a01b038216610b245760405162461bcd60e51b815260206004820152602a60248201527f4552433732313a2062616c616e636520717565727920666f7220746865207a65604482015269726f206164647265737360b01b60648201526084016105f9565b506001600160a01b031660009081526003602052604090205490565b600c54604080516307dc0d1d60e41b815290516001600160a01b03909216916000918391637dc0d1d091600480820192602092909190829003018186803b158015610b8a57600080fd5b505afa158015610b9e573d6000803e3d6000fd5b505050506040513d601f19601f82011682018060405250810190610bc29190611fe5565b9050336001600160a01b03821614610c095760405162461bcd60e51b815260206004820152600a6024820152694e6f74206f7261636c6560b01b60448201526064016105f9565b600083806020019051810190610c1f91906121f8565b9050610c2b85826113ab565b7f6cf6b9ad03c115e67bcbd8096692d400e58bd03076049f0f767f759c06e577648582604051610c5c929190612574565b60405180910390a15050505050565b60606001805461050e90612655565b600f805461074d90612655565b600c546040805163501ad8ff60e11b815290516000926001600160a01b0316918391839163a035b1fe916004808301926020929190829003018186803b158015610cd057600080fd5b505afa158015610ce4573d6000803e3d6000fd5b505050506040513d601f19601f82011682018060405250810190610d089190612283565b9050600081600e54610d1a91906125e6565b949350505050565b610d2d338383611436565b5050565b600b546001600160a01b03163314610d5b5760405162461bcd60e51b81526004016105f9906124fc565b8051610d2d90600f906020840190611edf565b610d78338361111b565b610d945760405162461bcd60e51b81526004016105f990612523565b610da084848484611505565b50505050565b60606104f982611538565b6000610dbb610c87565b341015610e0a5760405162461bcd60e51b815260206004820181905260248201527f496e73756666696369656e74207061796d656e7420666f72206d696e74696e6760448201526064016105f9565b600d8054906000610e1a83612690565b9190505550610e2b83600d546116a7565b600c546040805163501ad8ff60e11b815290516001600160a01b0390921691600091839163a035b1fe91600480820192602092909190829003018186803b158015610e7557600080fd5b505afa158015610e89573d6000803e3d6000fd5b505050506040513d601f19601f82011682018060405250810190610ead9190612283565b9050816001600160a01b03166396e10fc18286600d54639235392460e01b8a604051602001610ef4919060609190911b6bffffffffffffffffffffffff1916815260140190565b60405160208183030381529060405260016040518763ffffffff1660e01b8152600401610f25959493929190612397565b6000604051808303818588803b158015610f3e57600080fd5b505af1158015610f52573d6000803e3d6000fd5b5050600d5460009081526010602090815260409091208851610f7c95509093509088019150611edf565b50611013600d54600f8054610f9090612655565b80601f0160208091040260200160405190810160405280929190818152602001828054610fbc90612655565b80156110095780601f10610fde57610100808354040283529160200191611009565b820191906000526020600020905b815481529060010190602001808311610fec57829003601f168201915b50505050506113ab565b5050600d549392505050565b60006001600160e01b0319821663780e9d6360e01b14806104f957506104f9825b60006001600160e01b031982166380ac58cd60e01b148061107157506001600160e01b03198216635b5e139f60e01b145b806104f957506301ffc9a760e01b6001600160e01b03198316146104f9565b6000908152600260205260409020546001600160a01b0316151590565b600081815260046020526040902080546001600160a01b0319166001600160a01b03841690811790915581906110e282610a42565b6001600160a01b03167f8c5be1e5ebec7d5bd14f71427d1e84f3dd0314c0f7b2291e5b200ac8c7c3b92560405160405180910390a45050565b600061112682611090565b6111875760405162461bcd60e51b815260206004820152602c60248201527f4552433732313a206f70657261746f7220717565727920666f72206e6f6e657860448201526b34b9ba32b73a103a37b5b2b760a11b60648201526084016105f9565b600061119283610a42565b9050806001600160a01b0316846001600160a01b031614806111d957506001600160a01b0380821660009081526005602090815260408083209388168352929052205460ff165b80610d1a5750836001600160a01b03166111f284610591565b6001600160a01b031614949350505050565b826001600160a01b031661121782610a42565b6001600160a01b03161461127b5760405162461bcd60e51b815260206004820152602560248201527f4552433732313a207472616e736665722066726f6d20696e636f72726563742060448201526437bbb732b960d91b60648201526084016105f9565b6001600160a01b0382166112dd5760405162461bcd60e51b8152602060048201526024808201527f4552433732313a207472616e7366657220746f20746865207a65726f206164646044820152637265737360e01b60648201526084016105f9565b6112e88383836117e6565b6112f36000826110ad565b6001600160a01b038316600090815260036020526040812080546001929061131c908490612612565b90915550506001600160a01b038216600090815260036020526040812080546001929061134a9084906125e6565b909155505060008181526002602052604080822080546001600160a01b0319166001600160a01b0386811691821790925591518493918716917fddf252ad1be2c89b69c2b068fc378daa952ba7f163c4a11628f55a4df523b3ef91a4505050565b6113b482611090565b6114175760405162461bcd60e51b815260206004820152602e60248201527f45524337323155524953746f726167653a2055524920736574206f66206e6f6e60448201526d32bc34b9ba32b73a103a37b5b2b760911b60648201526084016105f9565b6000828152600a60209081526040909120825161072f92840190611edf565b816001600160a01b0316836001600160a01b031614156114985760405162461bcd60e51b815260206004820152601960248201527f4552433732313a20617070726f766520746f2063616c6c65720000000000000060448201526064016105f9565b6001600160a01b03838116600081815260056020908152604080832094871680845294825291829020805460ff191686151590811790915591519182527f17307eab39ab6107e8899845ad3d59bd9653f200f220920489ca2b5937696c31910160405180910390a3505050565b611510848484611204565b61151c8484848461196e565b610da05760405162461bcd60e51b81526004016105f9906124aa565b606061154382611090565b6115a95760405162461bcd60e51b815260206004820152603160248201527f45524337323155524953746f726167653a2055524920717565727920666f72206044820152703737b732bc34b9ba32b73a103a37b5b2b760791b60648201526084016105f9565b6000828152600a6020526040812080546115c290612655565b80601f01602080910402602001604051908101604052809291908181526020018280546115ee90612655565b801561163b5780601f106116105761010080835404028352916020019161163b565b820191906000526020600020905b81548152906001019060200180831161161e57829003601f168201915b50505050509050600061165960408051602081019091526000815290565b905080516000141561166c575092915050565b81511561169e578082604051602001611686929190612318565b60405160208183030381529060405292505050919050565b610d1a84611a7b565b6001600160a01b0382166116fd5760405162461bcd60e51b815260206004820181905260248201527f4552433732313a206d696e7420746f20746865207a65726f206164647265737360448201526064016105f9565b61170681611090565b156117535760405162461bcd60e51b815260206004820152601c60248201527f4552433732313a20746f6b656e20616c7265616479206d696e7465640000000060448201526064016105f9565b61175f600083836117e6565b6001600160a01b03821660009081526003602052604081208054600192906117889084906125e6565b909155505060008181526002602052604080822080546001600160a01b0319166001600160a01b03861690811790915590518392907fddf252ad1be2c89b69c2b068fc378daa952ba7f163c4a11628f55a4df523b3ef908290a45050565b6117f1838383611b53565b6001600160a01b0383161580159061181157506001600160a01b03821615155b1561072f57600c546040805163501ad8ff60e11b815290516001600160a01b0390921691600091839163a035b1fe91600480820192602092909190829003018186803b15801561186057600080fd5b505afa158015611874573d6000803e3d6000fd5b505050506040513d601f19601f820116820180604052508101906118989190612283565b9050816001600160a01b03166396e10fc18260106000600d54815260200190815260200160002086639235392460e01b896040516020016118f1919060609190911b6bffffffffffffffffffffffff1916815260140190565b60405160208183030381529060405260016040518763ffffffff1660e01b81526004016119229594939291906123e3565b6000604051808303818588803b15801561193b57600080fd5b505af115801561194f573d6000803e3d6000fd5b5050505050611967600d54600f8054610f9090612655565b5050505050565b60006001600160a01b0384163b15611a7057604051630a85bd0160e11b81526001600160a01b0385169063150b7a02906119b2903390899088908890600401612347565b602060405180830381600087803b1580156119cc57600080fd5b505af19250505080156119fc575060408051601f3d908101601f191682019092526119f9918101906121a9565b60015b611a56573d808015611a2a576040519150601f19603f3d011682016040523d82523d6000602084013e611a2f565b606091505b508051611a4e5760405162461bcd60e51b81526004016105f9906124aa565b805181602001fd5b6001600160e01b031916630a85bd0160e11b149050610d1a565b506001949350505050565b6060611a8682611090565b611aea5760405162461bcd60e51b815260206004820152602f60248201527f4552433732314d657461646174613a2055524920717565727920666f72206e6f60448201526e3732bc34b9ba32b73a103a37b5b2b760891b60648201526084016105f9565b6000611b0160408051602081019091526000815290565b90506000815111611b215760405180602001604052806000815250611b4c565b80611b2b84611c0b565b604051602001611b3c929190612318565b6040516020818303038152906040525b9392505050565b6001600160a01b038316611bae57611ba981600880546000838152600960205260408120829055600182018355919091527ff3f7a9fe364faab93b216da50a3214154f22a0a2b415b23a84c8169e8b636ee30155565b611bd1565b816001600160a01b0316836001600160a01b031614611bd157611bd18382611d25565b6001600160a01b038216611be85761072f81611dc2565b826001600160a01b0316826001600160a01b03161461072f5761072f8282611e9b565b606081611c2f5750506040805180820190915260018152600360fc1b602082015290565b8160005b8115611c595780611c4381612690565b9150611c529050600a836125fe565b9150611c33565b60008167ffffffffffffffff811115611c8257634e487b7160e01b600052604160045260246000fd5b6040519080825280601f01601f191660200182016040528015611cac576020820181803683370190505b5090505b8415610d1a57611cc1600183612612565b9150611cce600a866126ab565b611cd99060306125e6565b60f81b818381518110611cfc57634e487b7160e01b600052603260045260246000fd5b60200101906001600160f81b031916908160001a905350611d1e600a866125fe565b9450611cb0565b60006001611d3284610ab9565b611d3c9190612612565b600083815260076020526040902054909150808214611d8f576001600160a01b03841660009081526006602090815260408083208584528252808320548484528184208190558352600790915290208190555b5060009182526007602090815260408084208490556001600160a01b039094168352600681528383209183525290812055565b600854600090611dd490600190612612565b60008381526009602052604081205460088054939450909284908110611e0a57634e487b7160e01b600052603260045260246000fd5b906000526020600020015490508060088381548110611e3957634e487b7160e01b600052603260045260246000fd5b6000918252602080832090910192909255828152600990915260408082208490558582528120556008805480611e7f57634e487b7160e01b600052603160045260246000fd5b6001900381819060005260206000200160009055905550505050565b6000611ea683610ab9565b6001600160a01b039093166000908152600660209081526040808320868452825280832085905593825260079052919091209190915550565b828054611eeb90612655565b90600052602060002090601f016020900481019282611f0d5760008555611f53565b82601f10611f2657805160ff1916838001178555611f53565b82800160010185558215611f53579182015b82811115611f53578251825591602001919060010190611f38565b50611f5f929150611f63565b5090565b5b80821115611f5f5760008155600101611f64565b600082601f830112611f88578081fd5b8135611f9b611f96826125be565b61258d565b818152846020838601011115611faf578283fd5b816020850160208301379081016020019190915292915050565b600060208284031215611fda578081fd5b8135611b4c81612701565b600060208284031215611ff6578081fd5b8151611b4c81612701565b60008060408385031215612013578081fd5b823561201e81612701565b9150602083013561202e81612701565b809150509250929050565b60008060006060848603121561204d578081fd5b833561205881612701565b9250602084013561206881612701565b929592945050506040919091013590565b6000806000806080858703121561208e578081fd5b843561209981612701565b935060208501356120a981612701565b925060408501359150606085013567ffffffffffffffff8111156120cb578182fd5b6120d787828801611f78565b91505092959194509250565b600080604083850312156120f5578182fd5b823561210081612701565b91506020830135801515811461202e578182fd5b60008060408385031215612126578182fd5b823561213181612701565b9150602083013567ffffffffffffffff81111561214c578182fd5b61215885828601611f78565b9150509250929050565b60008060408385031215612174578182fd5b823561217f81612701565b946020939093013593505050565b60006020828403121561219e578081fd5b8135611b4c81612716565b6000602082840312156121ba578081fd5b8151611b4c81612716565b6000602082840312156121d6578081fd5b813567ffffffffffffffff8111156121ec578182fd5b610d1a84828501611f78565b600060208284031215612209578081fd5b815167ffffffffffffffff81111561221f578182fd5b8201601f8101841361222f578182fd5b805161223d611f96826125be565b818152856020838501011115612251578384fd5b612262826020830160208601612629565b95945050505050565b60006020828403121561227c578081fd5b5035919050565b600060208284031215612294578081fd5b5051919050565b600080604083850312156122ad578182fd5b82359150602083013567ffffffffffffffff81111561214c578182fd5b600081518084526122e2816020860160208601612629565b601f01601f19169290920160200192915050565b6002811061231457634e487b7160e01b600052602160045260246000fd5b9052565b6000835161232a818460208801612629565b83519083019061233e818360208801612629565b01949350505050565b6001600160a01b038581168252841660208201526040810183905260806060820181905260009061237a908301846122ca565b9695505050505050565b602081526000611b4c60208301846122ca565b60a0815260006123aa60a08301886122ca565b602083018790526001600160e01b03198616604084015282810360608401526123d381866122ca565b91505061237a60808301846122f6565b60a08152600080875482600182811c91508083168061240357607f831692505b602080841082141561242357634e487b7160e01b87526022600452602487fd5b60a0880184905260c0880182801561244257600181146124535761247d565b60ff1987168252828201975061247d565b60008f815260209020895b878110156124775781548482015290860190840161245e565b83019850505b505087018b90525050506001600160e01b0319871660408501525082810360608401526123d381866122ca565b60208082526032908201527f4552433732313a207472616e7366657220746f206e6f6e20455243373231526560408201527131b2b4bb32b91034b6b83632b6b2b73a32b960711b606082015260800190565b6020808252600d908201526c2737ba103a34329037bbb732b960991b604082015260600190565b60208082526031908201527f4552433732313a207472616e736665722063616c6c6572206973206e6f74206f6040820152701ddb995c881b9bdc88185c1c1c9bdd9959607a1b606082015260800190565b828152604060208201526000610d1a60408301846122ca565b604051601f8201601f1916810167ffffffffffffffff811182821017156125b6576125b66126eb565b604052919050565b600067ffffffffffffffff8211156125d8576125d86126eb565b50601f01601f191660200190565b600082198211156125f9576125f96126bf565b500190565b60008261260d5761260d6126d5565b500490565b600082821015612624576126246126bf565b500390565b60005b8381101561264457818101518382015260200161262c565b83811115610da05750506000910152565b600181811c9082168061266957607f821691505b6020821081141561268a57634e487b7160e01b600052602260045260246000fd5b50919050565b60006000198214156126a4576126a46126bf565b5060010190565b6000826126ba576126ba6126d5565b500690565b634e487b7160e01b600052601160045260246000fd5b634e487b7160e01b600052601260045260246000fd5b634e487b7160e01b600052604160045260246000fd5b6001600160a01b038116811461095457600080fd5b6001600160e01b03198116811461095457600080fdfea26469706673582212200c808800f7f6a39b290ed42ff4e941d2f9ddbae052b8547cd60292179e89c17564736f6c63430008040033",
  "linkReferences": {},
  "deployedLinkReferences": {}
}