{
  "_format": "hh-sol-artifact-1",
  "contractName": "EvolvingNFT",
  "sourceName": "contracts/EvolvingNFT.sol",
  "abi": [
    {
      "inputs": [
        {
          "internalType": "address",
          "name": "owner_",
          "type": "address"
        },
        {
          "internalType": "address",
          "name": "mlCoordinator_",
          "type": "address"
        },
        {
          "internalType": "uint256",
          "name": "price_",
          "type": "uint256"
        },
        {
          "internalType": "enum ChainAIV2.ModelCategory",
          "name": "modelCategory_",
          "type": "uint8"
        },
        {
          "internalType": "string",
          "name": "model_",
          "type": "string"
        },
        {
          "internalType": "string",
          "name": "loadingImg_",
          "type": "string"
        }
      ],
      "stateMutability": "nonpayable",
      "type": "constructor"
    },
    {
      "anonymous": false,
      "inputs": [
        {
          "indexed": true,
          "internalType": "address",
          "name": "owner",
          "type": "address"
        },
        {
          "indexed": true,
          "internalType": "address",
          "name": "approved",
          "type": "address"
        },
        {
          "indexed": true,
          "internalType": "uint256",
          "name": "tokenId",
          "type": "uint256"
        }
      ],
      "name": "Approval",
      "type": "event"
    },
    {
      "anonymous": false,
      "inputs": [
        {
          "indexed": true,
          "internalType": "address",
          "name": "owner",
          "type": "address"
        },
        {
          "indexed": true,
          "internalType": "address",
          "name": "operator",
          "type": "address"
        },
        {
          "indexed": false,
          "internalType": "bool",
          "name": "approved",
          "type": "bool"
        }
      ],
      "name": "ApprovalForAll",
      "type": "event"
    },
    {
      "anonymous": false,
      "inputs": [
        {
          "indexed": false,
          "internalType": "uint256",
          "name": "tokenId",
          "type": "uint256"
        },
        {
          "indexed": false,
          "internalType": "string",
          "name": "tokenURI",
          "type": "string"
        }
      ],
      "name": "TokenUriSet",
      "type": "event"
    },
    {
      "anonymous": false,
      "inputs": [
        {
          "indexed": true,
          "internalType": "address",
          "name": "from",
          "type": "address"
        },
        {
          "indexed": true,
          "internalType": "address",
          "name": "to",
          "type": "address"
        },
        {
          "indexed": true,
          "internalType": "uint256",
          "name": "tokenId",
          "type": "uint256"
        }
      ],
      "name": "Transfer",
      "type": "event"
    },
    {
      "inputs": [
        {
          "internalType": "address",
          "name": "to",
          "type": "address"
        },
        {
          "internalType": "uint256",
          "name": "tokenId",
          "type": "uint256"
        }
      ],
      "name": "approve",
      "outputs": [],
      "stateMutability": "nonpayable",
      "type": "function"
    },
    {
      "inputs": [
        {
          "internalType": "address",
          "name": "owner",
          "type": "address"
        }
      ],
      "name": "balanceOf",
      "outputs": [
        {
          "internalType": "uint256",
          "name": "",
          "type": "uint256"
        }
      ],
      "stateMutability": "view",
      "type": "function"
    },
    {
      "inputs": [],
      "name": "currentTokenId",
      "outputs": [
        {
          "internalType": "uint256",
          "name": "",
          "type": "uint256"
        }
      ],
      "stateMutability": "view",
      "type": "function"
    },
    {
      "inputs": [
        {
          "internalType": "uint256",
          "name": "tokenId",
          "type": "uint256"
        }
      ],
      "name": "getApproved",
      "outputs": [
        {
          "internalType": "address",
          "name": "",
          "type": "address"
        }
      ],
      "stateMutability": "view",
      "type": "function"
    },
    {
      "inputs": [
        {
          "internalType": "address",
          "name": "owner",
          "type": "address"
        },
        {
          "internalType": "address",
          "name": "operator",
          "type": "address"
        }
      ],
      "name": "isApprovedForAll",
      "outputs": [
        {
          "internalType": "bool",
          "name": "",
          "type": "bool"
        }
      ],
      "stateMutability": "view",
      "type": "function"
    },
    {
      "inputs": [],
      "name": "loadingImg",
      "outputs": [
        {
          "internalType": "string",
          "name": "",
          "type": "string"
        }
      ],
      "stateMutability": "view",
      "type": "function"
    },
    {
      "inputs": [
        {
          "internalType": "address",
          "name": "to",
          "type": "address"
        },
        {
          "internalType": "string",
          "name": "prompt",
          "type": "string"
        }
      ],
      "name": "mint",
      "outputs": [
        {
          "internalType": "uint256",
          "name": "",
          "type": "uint256"
        }
      ],
      "stateMutability": "payable",
      "type": "function"
    },
    {
      "inputs": [],
      "name": "mlCoordinator",
      "outputs": [
        {
          "internalType": "address",
          "name": "",
          "type": "address"
        }
      ],
      "stateMutability": "view",
      "type": "function"
    },
    {
      "inputs": [],
      "name": "model",
      "outputs": [
        {
          "internalType": "string",
          "name": "",
          "type": "string"
        }
      ],
      "stateMutability": "view",
      "type": "function"
    },
    {
      "inputs": [],
      "name": "name",
      "outputs": [
        {
          "internalType": "string",
          "name": "",
          "type": "string"
        }
      ],
      "stateMutability": "view",
      "type": "function"
    },
    {
      "inputs": [
        {
          "internalType": "uint256",
          "name": "tokenId",
          "type": "uint256"
        }
      ],
      "name": "ownerOf",
      "outputs": [
        {
          "internalType": "address",
          "name": "",
          "type": "address"
        }
      ],
      "stateMutability": "view",
      "type": "function"
    },
    {
      "inputs": [],
      "name": "price",
      "outputs": [
        {
          "internalType": "uint256",
          "name": "",
          "type": "uint256"
        }
      ],
      "stateMutability": "view",
      "type": "function"
    },
    {
      "inputs": [
        {
          "internalType": "address",
          "name": "from",
          "type": "address"
        },
        {
          "internalType": "address",
          "name": "to",
          "type": "address"
        },
        {
          "internalType": "uint256",
          "name": "tokenId",
          "type": "uint256"
        }
      ],
      "name": "safeTransferFrom",
      "outputs": [],
      "stateMutability": "nonpayable",
      "type": "function"
    },
    {
      "inputs": [
        {
          "internalType": "address",
          "name": "from",
          "type": "address"
        },
        {
          "internalType": "address",
          "name": "to",
          "type": "address"
        },
        {
          "internalType": "uint256",
          "name": "tokenId",
          "type": "uint256"
        },
        {
          "internalType": "bytes",
          "name": "_data",
          "type": "bytes"
        }
      ],
      "name": "safeTransferFrom",
      "outputs": [],
      "stateMutability": "nonpayable",
      "type": "function"
    },
    {
      "inputs": [
        {
          "internalType": "address",
          "name": "operator",
          "type": "address"
        },
        {
          "internalType": "bool",
          "name": "approved",
          "type": "bool"
        }
      ],
      "name": "setApprovalForAll",
      "outputs": [],
      "stateMutability": "nonpayable",
      "type": "function"
    },
    {
      "inputs": [
        {
          "internalType": "string",
          "name": "newLoadingImg",
          "type": "string"
        }
      ],
      "name": "setLoadingImage",
      "outputs": [],
      "stateMutability": "nonpayable",
      "type": "function"
    },
    {
      "inputs": [
        {
          "internalType": "uint256",
          "name": "price_",
          "type": "uint256"
        }
      ],
      "name": "setMintPriceToThisContract",
      "outputs": [],
      "stateMutability": "nonpayable",
      "type": "function"
    },
    {
      "inputs": [
        {
          "internalType": "uint256",
          "name": "id",
          "type": "uint256"
        },
        {
          "internalType": "string",
          "name": "location",
          "type": "string"
        }
      ],
      "name": "setOutput",
      "outputs": [],
      "stateMutability": "nonpayable",
      "type": "function"
    },
    {
      "inputs": [
        {
          "internalType": "bytes4",
          "name": "interfaceId",
          "type": "bytes4"
        }
      ],
      "name": "supportsInterface",
      "outputs": [
        {
          "internalType": "bool",
          "name": "",
          "type": "bool"
        }
      ],
      "stateMutability": "view",
      "type": "function"
    },
    {
      "inputs": [],
      "name": "symbol",
      "outputs": [
        {
          "internalType": "string",
          "name": "",
          "type": "string"
        }
      ],
      "stateMutability": "view",
      "type": "function"
    },
    {
      "inputs": [
        {
          "internalType": "uint256",
          "name": "tokenId",
          "type": "uint256"
        }
      ],
      "name": "tokenURI",
      "outputs": [
        {
          "internalType": "string",
          "name": "",
          "type": "string"
        }
      ],
      "stateMutability": "view",
      "type": "function"
    },
    {
      "inputs": [
        {
          "internalType": "address",
          "name": "from",
          "type": "address"
        },
        {
          "internalType": "address",
          "name": "to",
          "type": "address"
        },
        {
          "internalType": "uint256",
          "name": "tokenId",
          "type": "uint256"
        }
      ],
      "name": "transferFrom",
      "outputs": [],
      "stateMutability": "nonpayable",
      "type": "function"
    },
    {
      "inputs": [
        {
          "internalType": "string",
          "name": "newModel",
          "type": "string"
        }
      ],
      "name": "updateModel",
      "outputs": [],
      "stateMutability": "nonpayable",
      "type": "function"
    },
    {
      "inputs": [],
      "name": "withdraw",
      "outputs": [],
      "stateMutability": "nonpayable",
      "type": "function"
    }
  ],
  "bytecode": "0x60806040523480156200001157600080fd5b50604051620043a6380380620043a6833981810160405281019062000037919062000356565b6040518060400160405280600b81526020017f45766f6c76696e674e46540000000000000000000000000000000000000000008152506040518060400160405280600381526020017f45564f00000000000000000000000000000000000000000000000000000000008152508160009080519060200190620000bb929190620001ef565b508060019080519060200190620000d4929190620001ef565b50505085600760006101000a81548173ffffffffffffffffffffffffffffffffffffffff021916908373ffffffffffffffffffffffffffffffffffffffff16021790555084600860006101000a81548173ffffffffffffffffffffffffffffffffffffffff021916908373ffffffffffffffffffffffffffffffffffffffff16021790555083600a8190555082600b60006101000a81548160ff02191690836002811115620001ac577f4e487b7100000000000000000000000000000000000000000000000000000000600052602160045260246000fd5b021790555081600c9080519060200190620001c9929190620001ef565b5080600d9080519060200190620001e2929190620001ef565b5050505050505062000611565b828054620001fd90620004f1565b90600052602060002090601f0160209004810192826200022157600085556200026d565b82601f106200023c57805160ff19168380011785556200026d565b828001600101855582156200026d579182015b828111156200026c5782518255916020019190600101906200024f565b5b5090506200027c919062000280565b5090565b5b808211156200029b57600081600090555060010162000281565b5090565b6000620002b6620002b08462000447565b6200041e565b905082815260208101848484011115620002cf57600080fd5b620002dc848285620004bb565b509392505050565b600081519050620002f581620005cc565b92915050565b6000815190506200030c81620005e6565b92915050565b600082601f8301126200032457600080fd5b8151620003368482602086016200029f565b91505092915050565b6000815190506200035081620005f7565b92915050565b60008060008060008060c087890312156200037057600080fd5b60006200038089828a01620002e4565b96505060206200039389828a01620002e4565b9550506040620003a689828a016200033f565b9450506060620003b989828a01620002fb565b935050608087015167ffffffffffffffff811115620003d757600080fd5b620003e589828a0162000312565b92505060a087015167ffffffffffffffff8111156200040357600080fd5b6200041189828a0162000312565b9150509295509295509295565b60006200042a6200043d565b905062000438828262000527565b919050565b6000604051905090565b600067ffffffffffffffff8211156200046557620004646200058c565b5b6200047082620005bb565b9050602081019050919050565b60006200048a8262000491565b9050919050565b600073ffffffffffffffffffffffffffffffffffffffff82169050919050565b6000819050919050565b60005b83811015620004db578082015181840152602081019050620004be565b83811115620004eb576000848401525b50505050565b600060028204905060018216806200050a57607f821691505b602082108114156200052157620005206200055d565b5b50919050565b6200053282620005bb565b810181811067ffffffffffffffff821117156200055457620005536200058c565b5b80604052505050565b7f4e487b7100000000000000000000000000000000000000000000000000000000600052602260045260246000fd5b7f4e487b7100000000000000000000000000000000000000000000000000000000600052604160045260246000fd5b6000601f19601f8301169050919050565b620005d7816200047d565b8114620005e357600080fd5b50565b60038110620005f457600080fd5b50565b6200060281620004b1565b81146200060e57600080fd5b50565b613d8580620006216000396000f3fe60806040526004361061014a5760003560e01c806370a08231116100b6578063b698904a1161006f578063b698904a1461047b578063b88d4fde146104a4578063c87b56dd146104cd578063d0def5211461050a578063e985e9c51461053a578063ffac322b146105775761014a565b806370a082311461036b5780638d8025d8146103a857806395d89b41146103d15780639c6b1bda146103fc578063a035b1fe14610427578063a22cb465146104525761014a565b806323b872dd1161010857806323b872dd146102735780633ccfd60b1461029c57806340002107146102b357806342842e0e146102dc57806352620c35146103055780636352211e1461032e5761014a565b80629a9b7b1461014f57806301ffc9a71461017a57806306fdde03146101b7578063081812fc146101e2578063095ea7b31461021f5780630ad9d05214610248575b600080fd5b34801561015b57600080fd5b506101646105a2565b60405161017191906132e5565b60405180910390f35b34801561018657600080fd5b506101a1600480360381019061019c919061290f565b6105a8565b6040516101ae9190612f58565b60405180910390f35b3480156101c357600080fd5b506101cc61068a565b6040516101d99190612f73565b60405180910390f35b3480156101ee57600080fd5b50610209600480360381019061020491906129a2565b61071c565b6040516102169190612ef1565b60405180910390f35b34801561022b57600080fd5b50610246600480360381019061024191906128d3565b6107a1565b005b34801561025457600080fd5b5061025d6108b9565b60405161026a9190612f73565b60405180910390f35b34801561027f57600080fd5b5061029a60048036038101906102959190612779565b610947565b005b3480156102a857600080fd5b506102b16109a7565b005b3480156102bf57600080fd5b506102da60048036038101906102d591906129f4565b610b08565b005b3480156102e857600080fd5b5061030360048036038101906102fe9190612779565b610bdf565b005b34801561031157600080fd5b5061032c600480360381019061032791906129a2565b610bff565b005b34801561033a57600080fd5b50610355600480360381019061035091906129a2565b610c99565b6040516103629190612ef1565b60405180910390f35b34801561037757600080fd5b50610392600480360381019061038d9190612714565b610d4b565b60405161039f91906132e5565b60405180910390f35b3480156103b457600080fd5b506103cf60048036038101906103ca9190612961565b610e03565b005b3480156103dd57600080fd5b506103e6610ead565b6040516103f39190612f73565b60405180910390f35b34801561040857600080fd5b50610411610f3f565b60405161041e9190612f73565b60405180910390f35b34801561043357600080fd5b5061043c610fcd565b60405161044991906132e5565b60405180910390f35b34801561045e57600080fd5b5061047960048036038101906104749190612843565b611092565b005b34801561048757600080fd5b506104a2600480360381019061049d9190612961565b6110a8565b005b3480156104b057600080fd5b506104cb60048036038101906104c691906127c8565b611152565b005b3480156104d957600080fd5b506104f460048036038101906104ef91906129a2565b6111b4565b6040516105019190612f73565b60405180910390f35b610524600480360381019061051f919061287f565b611306565b60405161053191906132e5565b60405180910390f35b34801561054657600080fd5b50610561600480360381019061055c919061273d565b611583565b60405161056e9190612f58565b60405180910390f35b34801561058357600080fd5b5061058c611617565b6040516105999190612ef1565b60405180910390f35b60095481565b60007f80ac58cd000000000000000000000000000000000000000000000000000000007bffffffffffffffffffffffffffffffffffffffffffffffffffffffff1916827bffffffffffffffffffffffffffffffffffffffffffffffffffffffff1916148061067357507f5b5e139f000000000000000000000000000000000000000000000000000000007bffffffffffffffffffffffffffffffffffffffffffffffffffffffff1916827bffffffffffffffffffffffffffffffffffffffffffffffffffffffff1916145b8061068357506106828261163d565b5b9050919050565b606060008054610699906135b0565b80601f01602080910402602001604051908101604052809291908181526020018280546106c5906135b0565b80156107125780601f106106e757610100808354040283529160200191610712565b820191906000526020600020905b8154815290600101906020018083116106f557829003601f168201915b5050505050905090565b6000610727826116a7565b610766576040517f08c379a000000000000000000000000000000000000000000000000000000000815260040161075d90613245565b60405180910390fd5b6004600083815260200190815260200160002060009054906101000a900473ffffffffffffffffffffffffffffffffffffffff169050919050565b60006107ac82610c99565b90508073ffffffffffffffffffffffffffffffffffffffff168373ffffffffffffffffffffffffffffffffffffffff16141561081d576040517f08c379a000000000000000000000000000000000000000000000000000000000815260040161081490613285565b60405180910390fd5b8073ffffffffffffffffffffffffffffffffffffffff1661083c611713565b73ffffffffffffffffffffffffffffffffffffffff16148061086b575061086a81610865611713565b611583565b5b6108aa576040517f08c379a00000000000000000000000000000000000000000000000000000000081526004016108a190613165565b60405180910390fd5b6108b4838361171b565b505050565b600c80546108c6906135b0565b80601f01602080910402602001604051908101604052809291908181526020018280546108f2906135b0565b801561093f5780601f106109145761010080835404028352916020019161093f565b820191906000526020600020905b81548152906001019060200180831161092257829003601f168201915b505050505081565b610958610952611713565b826117d4565b610997576040517f08c379a000000000000000000000000000000000000000000000000000000000815260040161098e906132a5565b60405180910390fd5b6109a28383836118b2565b505050565b600760009054906101000a900473ffffffffffffffffffffffffffffffffffffffff1673ffffffffffffffffffffffffffffffffffffffff163373ffffffffffffffffffffffffffffffffffffffff1614610a37576040517f08c379a0000000000000000000000000000000000000000000000000000000008152600401610a2e90613185565b60405180910390fd5b6000600760009054906101000a900473ffffffffffffffffffffffffffffffffffffffff1673ffffffffffffffffffffffffffffffffffffffff1647604051610a7f90612edc565b60006040518083038185875af1925050503d8060008114610abc576040519150601f19603f3d011682016040523d82523d6000602084013e610ac1565b606091505b5050905080610b05576040517f08c379a0000000000000000000000000000000000000000000000000000000008152600401610afc906130c5565b60405180910390fd5b50565b600860009054906101000a900473ffffffffffffffffffffffffffffffffffffffff1673ffffffffffffffffffffffffffffffffffffffff163373ffffffffffffffffffffffffffffffffffffffff1614610b98576040517f08c379a0000000000000000000000000000000000000000000000000000000008152600401610b8f90613145565b60405180910390fd5b610ba28282611b19565b7f6cf6b9ad03c115e67bcbd8096692d400e58bd03076049f0f767f759c06e577648282604051610bd3929190613300565b60405180910390a15050565b610bfa83838360405180602001604052806000815250611152565b505050565b600760009054906101000a900473ffffffffffffffffffffffffffffffffffffffff1673ffffffffffffffffffffffffffffffffffffffff163373ffffffffffffffffffffffffffffffffffffffff1614610c8f576040517f08c379a0000000000000000000000000000000000000000000000000000000008152600401610c8690613185565b60405180910390fd5b80600a8190555050565b6000806002600084815260200190815260200160002060009054906101000a900473ffffffffffffffffffffffffffffffffffffffff169050600073ffffffffffffffffffffffffffffffffffffffff168173ffffffffffffffffffffffffffffffffffffffff161415610d42576040517f08c379a0000000000000000000000000000000000000000000000000000000008152600401610d39906131c5565b60405180910390fd5b80915050919050565b60008073ffffffffffffffffffffffffffffffffffffffff168273ffffffffffffffffffffffffffffffffffffffff161415610dbc576040517f08c379a0000000000000000000000000000000000000000000000000000000008152600401610db3906131a5565b60405180910390fd5b600360008373ffffffffffffffffffffffffffffffffffffffff1673ffffffffffffffffffffffffffffffffffffffff168152602001908152602001600020549050919050565b600760009054906101000a900473ffffffffffffffffffffffffffffffffffffffff1673ffffffffffffffffffffffffffffffffffffffff163373ffffffffffffffffffffffffffffffffffffffff1614610e93576040517f08c379a0000000000000000000000000000000000000000000000000000000008152600401610e8a90613185565b60405180910390fd5b80600c9080519060200190610ea9929190612523565b5050565b606060018054610ebc906135b0565b80601f0160208091040260200160405190810160405280929190818152602001828054610ee8906135b0565b8015610f355780601f10610f0a57610100808354040283529160200191610f35565b820191906000526020600020905b815481529060010190602001808311610f1857829003601f168201915b5050505050905090565b600d8054610f4c906135b0565b80601f0160208091040260200160405190810160405280929190818152602001828054610f78906135b0565b8015610fc55780601f10610f9a57610100808354040283529160200191610fc5565b820191906000526020600020905b815481529060010190602001808311610fa857829003601f168201915b505050505081565b600080600860009054906101000a900473ffffffffffffffffffffffffffffffffffffffff16905060008173ffffffffffffffffffffffffffffffffffffffff16634f36a1846040518163ffffffff1660e01b815260040160206040518083038186803b15801561103d57600080fd5b505afa158015611051573d6000803e3d6000fd5b505050506040513d601f19601f8201168201806040525081019061107591906129cb565b9050600081600a54611087919061341a565b905080935050505090565b6110a461109d611713565b8383611b8d565b5050565b600760009054906101000a900473ffffffffffffffffffffffffffffffffffffffff1673ffffffffffffffffffffffffffffffffffffffff163373ffffffffffffffffffffffffffffffffffffffff1614611138576040517f08c379a000000000000000000000000000000000000000000000000000000000815260040161112f90613185565b60405180910390fd5b80600d908051906020019061114e929190612523565b5050565b61116361115d611713565b836117d4565b6111a2576040517f08c379a0000000000000000000000000000000000000000000000000000000008152600401611199906132a5565b60405180910390fd5b6111ae84848484611cfa565b50505050565b60606111bf826116a7565b6111fe576040517f08c379a00000000000000000000000000000000000000000000000000000000081526004016111f590613225565b60405180910390fd5b600060066000848152602001908152602001600020805461121e906135b0565b80601f016020809104026020016040519081016040528092919081815260200182805461124a906135b0565b80156112975780601f1061126c57610100808354040283529160200191611297565b820191906000526020600020905b81548152906001019060200180831161127a57829003601f168201915b5050505050905060006112a8611d56565b90506000815114156112be578192505050611301565b6000825111156112f35780826040516020016112db929190612eb8565b60405160208183030381529060405292505050611301565b6112fc84611d6d565b925050505b919050565b6000611310610fcd565b341015611352576040517f08c379a0000000000000000000000000000000000000000000000000000000008152600401611349906132c5565b60405180910390fd5b6009600081548092919061136590613613565b919050555061137683600954611e14565b6000600860009054906101000a900473ffffffffffffffffffffffffffffffffffffffff16905060008173ffffffffffffffffffffffffffffffffffffffff16634f36a1846040518163ffffffff1660e01b815260040160206040518083038186803b1580156113e557600080fd5b505afa1580156113f9573d6000803e3d6000fd5b505050506040513d601f19601f8201168201806040525081019061141d91906129cb565b90508173ffffffffffffffffffffffffffffffffffffffff166301f81fa482600c876009548a6040516020016114539190612e9d565b60405160208183030381529060405260006040518763ffffffff1660e01b8152600401611484959493929190612f95565b6000604051808303818588803b15801561149d57600080fd5b505af11580156114b1573d6000803e3d6000fd5b505050505083600e6000600954815260200190815260200160002090805190602001906114df929190612523565b50611576600954600d80546114f3906135b0565b80601f016020809104026020016040519081016040528092919081815260200182805461151f906135b0565b801561156c5780601f106115415761010080835404028352916020019161156c565b820191906000526020600020905b81548152906001019060200180831161154f57829003601f168201915b5050505050611b19565b6009549250505092915050565b6000600560008473ffffffffffffffffffffffffffffffffffffffff1673ffffffffffffffffffffffffffffffffffffffff16815260200190815260200160002060008373ffffffffffffffffffffffffffffffffffffffff1673ffffffffffffffffffffffffffffffffffffffff16815260200190815260200160002060009054906101000a900460ff16905092915050565b600860009054906101000a900473ffffffffffffffffffffffffffffffffffffffff1681565b60007f01ffc9a7000000000000000000000000000000000000000000000000000000007bffffffffffffffffffffffffffffffffffffffffffffffffffffffff1916827bffffffffffffffffffffffffffffffffffffffffffffffffffffffff1916149050919050565b60008073ffffffffffffffffffffffffffffffffffffffff166002600084815260200190815260200160002060009054906101000a900473ffffffffffffffffffffffffffffffffffffffff1673ffffffffffffffffffffffffffffffffffffffff1614159050919050565b600033905090565b816004600083815260200190815260200160002060006101000a81548173ffffffffffffffffffffffffffffffffffffffff021916908373ffffffffffffffffffffffffffffffffffffffff160217905550808273ffffffffffffffffffffffffffffffffffffffff1661178e83610c99565b73ffffffffffffffffffffffffffffffffffffffff167f8c5be1e5ebec7d5bd14f71427d1e84f3dd0314c0f7b2291e5b200ac8c7c3b92560405160405180910390a45050565b60006117df826116a7565b61181e576040517f08c379a000000000000000000000000000000000000000000000000000000000815260040161181590613125565b60405180910390fd5b600061182983610c99565b90508073ffffffffffffffffffffffffffffffffffffffff168473ffffffffffffffffffffffffffffffffffffffff16148061189857508373ffffffffffffffffffffffffffffffffffffffff166118808461071c565b73ffffffffffffffffffffffffffffffffffffffff16145b806118a957506118a88185611583565b5b91505092915050565b8273ffffffffffffffffffffffffffffffffffffffff166118d282610c99565b73ffffffffffffffffffffffffffffffffffffffff1614611928576040517f08c379a000000000000000000000000000000000000000000000000000000000815260040161191f90613085565b60405180910390fd5b600073ffffffffffffffffffffffffffffffffffffffff168273ffffffffffffffffffffffffffffffffffffffff161415611998576040517f08c379a000000000000000000000000000000000000000000000000000000000815260040161198f906130e5565b60405180910390fd5b6119a3838383611fee565b6119ae60008261171b565b6001600360008573ffffffffffffffffffffffffffffffffffffffff1673ffffffffffffffffffffffffffffffffffffffff16815260200190815260200160002060008282546119fe91906134a1565b925050819055506001600360008473ffffffffffffffffffffffffffffffffffffffff1673ffffffffffffffffffffffffffffffffffffffff1681526020019081526020016000206000828254611a55919061341a565b92505081905550816002600083815260200190815260200160002060006101000a81548173ffffffffffffffffffffffffffffffffffffffff021916908373ffffffffffffffffffffffffffffffffffffffff160217905550808273ffffffffffffffffffffffffffffffffffffffff168473ffffffffffffffffffffffffffffffffffffffff167fddf252ad1be2c89b69c2b068fc378daa952ba7f163c4a11628f55a4df523b3ef60405160405180910390a4611b148383836121b7565b505050565b611b22826116a7565b611b61576040517f08c379a0000000000000000000000000000000000000000000000000000000008152600401611b58906131e5565b60405180910390fd5b80600660008481526020019081526020016000209080519060200190611b88929190612523565b505050565b8173ffffffffffffffffffffffffffffffffffffffff168373ffffffffffffffffffffffffffffffffffffffff161415611bfc576040517f08c379a0000000000000000000000000000000000000000000000000000000008152600401611bf390613105565b60405180910390fd5b80600560008573ffffffffffffffffffffffffffffffffffffffff1673ffffffffffffffffffffffffffffffffffffffff16815260200190815260200160002060008473ffffffffffffffffffffffffffffffffffffffff1673ffffffffffffffffffffffffffffffffffffffff16815260200190815260200160002060006101000a81548160ff0219169083151502179055508173ffffffffffffffffffffffffffffffffffffffff168373ffffffffffffffffffffffffffffffffffffffff167f17307eab39ab6107e8899845ad3d59bd9653f200f220920489ca2b5937696c3183604051611ced9190612f58565b60405180910390a3505050565b611d058484846118b2565b611d11848484846121bc565b611d50576040517f08c379a0000000000000000000000000000000000000000000000000000000008152600401611d4790613065565b60405180910390fd5b50505050565b606060405180602001604052806000815250905090565b6060611d78826116a7565b611db7576040517f08c379a0000000000000000000000000000000000000000000000000000000008152600401611dae90613265565b60405180910390fd5b6000611dc1611d56565b90506000815111611de15760405180602001604052806000815250611e0c565b80611deb84612353565b604051602001611dfc929190612eb8565b6040516020818303038152906040525b915050919050565b600073ffffffffffffffffffffffffffffffffffffffff168273ffffffffffffffffffffffffffffffffffffffff161415611e84576040517f08c379a0000000000000000000000000000000000000000000000000000000008152600401611e7b90613205565b60405180910390fd5b611e8d816116a7565b15611ecd576040517f08c379a0000000000000000000000000000000000000000000000000000000008152600401611ec4906130a5565b60405180910390fd5b611ed960008383611fee565b6001600360008473ffffffffffffffffffffffffffffffffffffffff1673ffffffffffffffffffffffffffffffffffffffff1681526020019081526020016000206000828254611f29919061341a565b92505081905550816002600083815260200190815260200160002060006101000a81548173ffffffffffffffffffffffffffffffffffffffff021916908373ffffffffffffffffffffffffffffffffffffffff160217905550808273ffffffffffffffffffffffffffffffffffffffff16600073ffffffffffffffffffffffffffffffffffffffff167fddf252ad1be2c89b69c2b068fc378daa952ba7f163c4a11628f55a4df523b3ef60405160405180910390a4611fea600083836121b7565b5050565b600073ffffffffffffffffffffffffffffffffffffffff168373ffffffffffffffffffffffffffffffffffffffff16141580156120585750600073ffffffffffffffffffffffffffffffffffffffff168273ffffffffffffffffffffffffffffffffffffffff1614155b156121b2576000600860009054906101000a900473ffffffffffffffffffffffffffffffffffffffff16905060008173ffffffffffffffffffffffffffffffffffffffff16634f36a1846040518163ffffffff1660e01b815260040160206040518083038186803b1580156120cc57600080fd5b505afa1580156120e0573d6000803e3d6000fd5b505050506040513d601f19601f8201168201806040525081019061210491906129cb565b90508173ffffffffffffffffffffffffffffffffffffffff166301f81fa482600c600e60006009548152602001908152602001600020878960405160200161214c9190612e9d565b60405160208183030381529060405260006040518763ffffffff1660e01b815260040161217d959493929190612ffd565b6000604051808303818588803b15801561219657600080fd5b505af11580156121aa573d6000803e3d6000fd5b505050505050505b505050565b505050565b60006121dd8473ffffffffffffffffffffffffffffffffffffffff16612500565b15612346578373ffffffffffffffffffffffffffffffffffffffff1663150b7a02612206611713565b8786866040518563ffffffff1660e01b81526004016122289493929190612f0c565b602060405180830381600087803b15801561224257600080fd5b505af192505050801561227357506040513d601f19601f820116820180604052508101906122709190612938565b60015b6122f6573d80600081146122a3576040519150601f19603f3d011682016040523d82523d6000602084013e6122a8565b606091505b506000815114156122ee576040517f08c379a00000000000000000000000000000000000000000000000000000000081526004016122e590613065565b60405180910390fd5b805181602001fd5b63150b7a0260e01b7bffffffffffffffffffffffffffffffffffffffffffffffffffffffff1916817bffffffffffffffffffffffffffffffffffffffffffffffffffffffff19161491505061234b565b600190505b949350505050565b6060600082141561239b576040518060400160405280600181526020017f300000000000000000000000000000000000000000000000000000000000000081525090506124fb565b600082905060005b600082146123cd5780806123b690613613565b915050600a826123c69190613470565b91506123a3565b60008167ffffffffffffffff81111561240f577f4e487b7100000000000000000000000000000000000000000000000000000000600052604160045260246000fd5b6040519080825280601f01601f1916602001820160405280156124415781602001600182028036833780820191505090505b5090505b600085146124f45760018261245a91906134a1565b9150600a856124699190613680565b6030612475919061341a565b60f81b8183815181106124b1577f4e487b7100000000000000000000000000000000000000000000000000000000600052603260045260246000fd5b60200101907effffffffffffffffffffffffffffffffffffffffffffffffffffffffffffff1916908160001a905350600a856124ed9190613470565b9450612445565b8093505050505b919050565b6000808273ffffffffffffffffffffffffffffffffffffffff163b119050919050565b82805461252f906135b0565b90600052602060002090601f0160209004810192826125515760008555612598565b82601f1061256a57805160ff1916838001178555612598565b82800160010185558215612598579182015b8281111561259757825182559160200191906001019061257c565b5b5090506125a591906125a9565b5090565b5b808211156125c25760008160009055506001016125aa565b5090565b60006125d96125d484613355565b613330565b9050828152602081018484840111156125f157600080fd5b6125fc84828561356e565b509392505050565b600061261761261284613386565b613330565b90508281526020810184848401111561262f57600080fd5b61263a84828561356e565b509392505050565b60008135905061265181613cf3565b92915050565b60008135905061266681613d0a565b92915050565b60008135905061267b81613d21565b92915050565b60008151905061269081613d21565b92915050565b600082601f8301126126a757600080fd5b81356126b78482602086016125c6565b91505092915050565b600082601f8301126126d157600080fd5b81356126e1848260208601612604565b91505092915050565b6000813590506126f981613d38565b92915050565b60008151905061270e81613d38565b92915050565b60006020828403121561272657600080fd5b600061273484828501612642565b91505092915050565b6000806040838503121561275057600080fd5b600061275e85828601612642565b925050602061276f85828601612642565b9150509250929050565b60008060006060848603121561278e57600080fd5b600061279c86828701612642565b93505060206127ad86828701612642565b92505060406127be868287016126ea565b9150509250925092565b600080600080608085870312156127de57600080fd5b60006127ec87828801612642565b94505060206127fd87828801612642565b935050604061280e878288016126ea565b925050606085013567ffffffffffffffff81111561282b57600080fd5b61283787828801612696565b91505092959194509250565b6000806040838503121561285657600080fd5b600061286485828601612642565b925050602061287585828601612657565b9150509250929050565b6000806040838503121561289257600080fd5b60006128a085828601612642565b925050602083013567ffffffffffffffff8111156128bd57600080fd5b6128c9858286016126c0565b9150509250929050565b600080604083850312156128e657600080fd5b60006128f485828601612642565b9250506020612905858286016126ea565b9150509250929050565b60006020828403121561292157600080fd5b600061292f8482850161266c565b91505092915050565b60006020828403121561294a57600080fd5b600061295884828501612681565b91505092915050565b60006020828403121561297357600080fd5b600082013567ffffffffffffffff81111561298d57600080fd5b612999848285016126c0565b91505092915050565b6000602082840312156129b457600080fd5b60006129c2848285016126ea565b91505092915050565b6000602082840312156129dd57600080fd5b60006129eb848285016126ff565b91505092915050565b60008060408385031215612a0757600080fd5b6000612a15858286016126ea565b925050602083013567ffffffffffffffff811115612a3257600080fd5b612a3e858286016126c0565b9150509250929050565b612a51816134d5565b82525050565b612a68612a63826134d5565b61365c565b82525050565b612a77816134e7565b82525050565b6000612a88826133cc565b612a9281856133e2565b9350612aa281856020860161357d565b612aab8161379c565b840191505092915050565b612abf8161355c565b82525050565b6000612ad0826133d7565b612ada81856133fe565b9350612aea81856020860161357d565b612af38161379c565b840191505092915050565b6000612b09826133d7565b612b13818561340f565b9350612b2381856020860161357d565b80840191505092915050565b60008154612b3c816135b0565b612b4681866133fe565b94506001821660008114612b615760018114612b7357612ba6565b60ff1983168652602086019350612ba6565b612b7c856133b7565b60005b83811015612b9e57815481890152600182019150602081019050612b7f565b808801955050505b50505092915050565b6000612bbc6032836133fe565b9150612bc7826137ba565b604082019050919050565b6000612bdf6025836133fe565b9150612bea82613809565b604082019050919050565b6000612c02601c836133fe565b9150612c0d82613858565b602082019050919050565b6000612c25600f836133fe565b9150612c3082613881565b602082019050919050565b6000612c486024836133fe565b9150612c53826138aa565b604082019050919050565b6000612c6b6019836133fe565b9150612c76826138f9565b602082019050919050565b6000612c8e602c836133fe565b9150612c9982613922565b604082019050919050565b6000612cb16012836133fe565b9150612cbc82613971565b602082019050919050565b6000612cd46038836133fe565b9150612cdf8261399a565b604082019050919050565b6000612cf7600d836133fe565b9150612d02826139e9565b602082019050919050565b6000612d1a602a836133fe565b9150612d2582613a12565b604082019050919050565b6000612d3d6029836133fe565b9150612d4882613a61565b604082019050919050565b6000612d60602e836133fe565b9150612d6b82613ab0565b604082019050919050565b6000612d836020836133fe565b9150612d8e82613aff565b602082019050919050565b6000612da66031836133fe565b9150612db182613b28565b604082019050919050565b6000612dc9602c836133fe565b9150612dd482613b77565b604082019050919050565b6000612dec602f836133fe565b9150612df782613bc6565b604082019050919050565b6000612e0f6021836133fe565b9150612e1a82613c15565b604082019050919050565b6000612e326000836133f3565b9150612e3d82613c64565b600082019050919050565b6000612e556031836133fe565b9150612e6082613c67565b604082019050919050565b6000612e786020836133fe565b9150612e8382613cb6565b602082019050919050565b612e9781613552565b82525050565b6000612ea98284612a57565b60148201915081905092915050565b6000612ec48285612afe565b9150612ed08284612afe565b91508190509392505050565b6000612ee782612e25565b9150819050919050565b6000602082019050612f066000830184612a48565b92915050565b6000608082019050612f216000830187612a48565b612f2e6020830186612a48565b612f3b6040830185612e8e565b8181036060830152612f4d8184612a7d565b905095945050505050565b6000602082019050612f6d6000830184612a6e565b92915050565b60006020820190508181036000830152612f8d8184612ac5565b905092915050565b600060a0820190508181036000830152612faf8188612b2f565b90508181036020830152612fc38187612ac5565b9050612fd26040830186612e8e565b8181036060830152612fe48185612a7d565b9050612ff36080830184612ab6565b9695505050505050565b600060a08201905081810360008301526130178188612b2f565b9050818103602083015261302b8187612b2f565b905061303a6040830186612e8e565b818103606083015261304c8185612a7d565b905061305b6080830184612ab6565b9695505050505050565b6000602082019050818103600083015261307e81612baf565b9050919050565b6000602082019050818103600083015261309e81612bd2565b9050919050565b600060208201905081810360008301526130be81612bf5565b9050919050565b600060208201905081810360008301526130de81612c18565b9050919050565b600060208201905081810360008301526130fe81612c3b565b9050919050565b6000602082019050818103600083015261311e81612c5e565b9050919050565b6000602082019050818103600083015261313e81612c81565b9050919050565b6000602082019050818103600083015261315e81612ca4565b9050919050565b6000602082019050818103600083015261317e81612cc7565b9050919050565b6000602082019050818103600083015261319e81612cea565b9050919050565b600060208201905081810360008301526131be81612d0d565b9050919050565b600060208201905081810360008301526131de81612d30565b9050919050565b600060208201905081810360008301526131fe81612d53565b9050919050565b6000602082019050818103600083015261321e81612d76565b9050919050565b6000602082019050818103600083015261323e81612d99565b9050919050565b6000602082019050818103600083015261325e81612dbc565b9050919050565b6000602082019050818103600083015261327e81612ddf565b9050919050565b6000602082019050818103600083015261329e81612e02565b9050919050565b600060208201905081810360008301526132be81612e48565b9050919050565b600060208201905081810360008301526132de81612e6b565b9050919050565b60006020820190506132fa6000830184612e8e565b92915050565b60006040820190506133156000830185612e8e565b81810360208301526133278184612ac5565b90509392505050565b600061333a61334b565b905061334682826135e2565b919050565b6000604051905090565b600067ffffffffffffffff8211156133705761336f61376d565b5b6133798261379c565b9050602081019050919050565b600067ffffffffffffffff8211156133a1576133a061376d565b5b6133aa8261379c565b9050602081019050919050565b60008190508160005260206000209050919050565b600081519050919050565b600081519050919050565b600082825260208201905092915050565b600081905092915050565b600082825260208201905092915050565b600081905092915050565b600061342582613552565b915061343083613552565b9250827fffffffffffffffffffffffffffffffffffffffffffffffffffffffffffffffff03821115613465576134646136b1565b5b828201905092915050565b600061347b82613552565b915061348683613552565b925082613496576134956136e0565b5b828204905092915050565b60006134ac82613552565b91506134b783613552565b9250828210156134ca576134c96136b1565b5b828203905092915050565b60006134e082613532565b9050919050565b60008115159050919050565b60007fffffffff0000000000000000000000000000000000000000000000000000000082169050919050565b600081905061352d82613cdf565b919050565b600073ffffffffffffffffffffffffffffffffffffffff82169050919050565b6000819050919050565b60006135678261351f565b9050919050565b82818337600083830152505050565b60005b8381101561359b578082015181840152602081019050613580565b838111156135aa576000848401525b50505050565b600060028204905060018216806135c857607f821691505b602082108114156135dc576135db61373e565b5b50919050565b6135eb8261379c565b810181811067ffffffffffffffff8211171561360a5761360961376d565b5b80604052505050565b600061361e82613552565b91507fffffffffffffffffffffffffffffffffffffffffffffffffffffffffffffffff821415613651576136506136b1565b5b600182019050919050565b60006136678261366e565b9050919050565b6000613679826137ad565b9050919050565b600061368b82613552565b915061369683613552565b9250826136a6576136a56136e0565b5b828206905092915050565b7f4e487b7100000000000000000000000000000000000000000000000000000000600052601160045260246000fd5b7f4e487b7100000000000000000000000000000000000000000000000000000000600052601260045260246000fd5b7f4e487b7100000000000000000000000000000000000000000000000000000000600052602160045260246000fd5b7f4e487b7100000000000000000000000000000000000000000000000000000000600052602260045260246000fd5b7f4e487b7100000000000000000000000000000000000000000000000000000000600052604160045260246000fd5b6000601f19601f8301169050919050565b60008160601b9050919050565b7f4552433732313a207472616e7366657220746f206e6f6e20455243373231526560008201527f63656976657220696d706c656d656e7465720000000000000000000000000000602082015250565b7f4552433732313a207472616e736665722066726f6d20696e636f72726563742060008201527f6f776e6572000000000000000000000000000000000000000000000000000000602082015250565b7f4552433732313a20746f6b656e20616c7265616479206d696e74656400000000600082015250565b7f5769746864726177206661696c65640000000000000000000000000000000000600082015250565b7f4552433732313a207472616e7366657220746f20746865207a65726f2061646460008201527f7265737300000000000000000000000000000000000000000000000000000000602082015250565b7f4552433732313a20617070726f766520746f2063616c6c657200000000000000600082015250565b7f4552433732313a206f70657261746f7220717565727920666f72206e6f6e657860008201527f697374656e7420746f6b656e0000000000000000000000000000000000000000602082015250565b7f4e6f74204d4c20636f6f7264696e61746f720000000000000000000000000000600082015250565b7f4552433732313a20617070726f76652063616c6c6572206973206e6f74206f7760008201527f6e6572206e6f7220617070726f76656420666f7220616c6c0000000000000000602082015250565b7f4e6f7420746865206f776e657200000000000000000000000000000000000000600082015250565b7f4552433732313a2062616c616e636520717565727920666f7220746865207a6560008201527f726f206164647265737300000000000000000000000000000000000000000000602082015250565b7f4552433732313a206f776e657220717565727920666f72206e6f6e657869737460008201527f656e7420746f6b656e0000000000000000000000000000000000000000000000602082015250565b7f45524337323155524953746f726167653a2055524920736574206f66206e6f6e60008201527f6578697374656e7420746f6b656e000000000000000000000000000000000000602082015250565b7f4552433732313a206d696e7420746f20746865207a65726f2061646472657373600082015250565b7f45524337323155524953746f726167653a2055524920717565727920666f722060008201527f6e6f6e6578697374656e7420746f6b656e000000000000000000000000000000602082015250565b7f4552433732313a20617070726f76656420717565727920666f72206e6f6e657860008201527f697374656e7420746f6b656e0000000000000000000000000000000000000000602082015250565b7f4552433732314d657461646174613a2055524920717565727920666f72206e6f60008201527f6e6578697374656e7420746f6b656e0000000000000000000000000000000000602082015250565b7f4552433732313a20617070726f76616c20746f2063757272656e74206f776e6560008201527f7200000000000000000000000000000000000000000000000000000000000000602082015250565b50565b7f4552433732313a207472616e736665722063616c6c6572206973206e6f74206f60008201527f776e6572206e6f7220617070726f766564000000000000000000000000000000602082015250565b7f496e73756666696369656e74207061796d656e7420666f72206d696e74696e67600082015250565b60028110613cf057613cef61370f565b5b50565b613cfc816134d5565b8114613d0757600080fd5b50565b613d13816134e7565b8114613d1e57600080fd5b50565b613d2a816134f3565b8114613d3557600080fd5b50565b613d4181613552565b8114613d4c57600080fd5b5056fea2646970667358221220274f59f1a9e69ec97c409c5590a41ac008c499b4adb7bb720d3b587481282eff64736f6c63430008040033",
  "linkReferences": {},
  "deployedLinkReferences": {}
}